{"contracts/NFT_Marketplace.sol":{"FanaTick":{"abi":[{"inputs":[{"internalType":"address","name":"initialOwner","type":"address"}],"stateMutability":"nonpayable","type":"constructor"},{"inputs":[{"internalType":"address","name":"sender","type":"address"},{"internalType":"uint256","name":"balance","type":"uint256"},{"internalType":"uint256","name":"needed","type":"uint256"},{"internalType":"uint256","name":"tokenId","type":"uint256"}],"name":"ERC1155InsufficientBalance","type":"error"},{"inputs":[{"internalType":"address","name":"approver","type":"address"}],"name":"ERC1155InvalidApprover","type":"error"},{"inputs":[{"internalType":"uint256","name":"idsLength","type":"uint256"},{"internalType":"uint256","name":"valuesLength","type":"uint256"}],"name":"ERC1155InvalidArrayLength","type":"error"},{"inputs":[{"internalType":"address","name":"operator","type":"address"}],"name":"ERC1155InvalidOperator","type":"error"},{"inputs":[{"internalType":"address","name":"receiver","type":"address"}],"name":"ERC1155InvalidReceiver","type":"error"},{"inputs":[{"internalType":"address","name":"sender","type":"address"}],"name":"ERC1155InvalidSender","type":"error"},{"inputs":[{"internalType":"address","name":"operator","type":"address"},{"internalType":"address","name":"owner","type":"address"}],"name":"ERC1155MissingApprovalForAll","type":"error"},{"inputs":[{"internalType":"address","name":"owner","type":"address"}],"name":"OwnableInvalidOwner","type":"error"},{"inputs":[{"internalType":"address","name":"account","type":"address"}],"name":"OwnableUnauthorizedAccount","type":"error"},{"anonymous":false,"inputs":[{"indexed":true,"internalType":"address","name":"account","type":"address"},{"indexed":true,"internalType":"address","name":"operator","type":"address"},{"indexed":false,"internalType":"bool","name":"approved","type":"bool"}],"name":"ApprovalForAll","type":"event"},{"anonymous":false,"inputs":[{"indexed":true,"internalType":"address","name":"previousOwner","type":"address"},{"indexed":true,"internalType":"address","name":"newOwner","type":"address"}],"name":"OwnershipTransferred","type":"event"},{"anonymous":false,"inputs":[{"indexed":true,"internalType":"address","name":"player","type":"address"},{"indexed":false,"internalType":"uint256","name":"newScore","type":"uint256"}],"name":"POIUpdated","type":"event"},{"anonymous":false,"inputs":[{"indexed":true,"internalType":"address","name":"operator","type":"address"},{"indexed":true,"internalType":"address","name":"from","type":"address"},{"indexed":true,"internalType":"address","name":"to","type":"address"},{"indexed":false,"internalType":"uint256[]","name":"ids","type":"uint256[]"},{"indexed":false,"internalType":"uint256[]","name":"values","type":"uint256[]"}],"name":"TransferBatch","type":"event"},{"anonymous":false,"inputs":[{"indexed":true,"internalType":"address","name":"operator","type":"address"},{"indexed":true,"internalType":"address","name":"from","type":"address"},{"indexed":true,"internalType":"address","name":"to","type":"address"},{"indexed":false,"internalType":"uint256","name":"id","type":"uint256"},{"indexed":false,"internalType":"uint256","name":"value","type":"uint256"}],"name":"TransferSingle","type":"event"},{"anonymous":false,"inputs":[{"indexed":false,"internalType":"string","name":"value","type":"string"},{"indexed":true,"internalType":"uint256","name":"id","type":"uint256"}],"name":"URI","type":"event"},{"inputs":[{"internalType":"address","name":"account","type":"address"},{"internalType":"uint256","name":"id","type":"uint256"}],"name":"balanceOf","outputs":[{"internalType":"uint256","name":"","type":"uint256"}],"stateMutability":"view","type":"function"},{"inputs":[{"internalType":"address[]","name":"accounts","type":"address[]"},{"internalType":"uint256[]","name":"ids","type":"uint256[]"}],"name":"balanceOfBatch","outputs":[{"internalType":"uint256[]","name":"","type":"uint256[]"}],"stateMutability":"view","type":"function"},{"inputs":[{"internalType":"string","name":"artist","type":"string"},{"internalType":"bytes","name":"tokenURIs","type":"bytes"}],"name":"buy_ticket","outputs":[],"stateMutability":"payable","type":"function"},{"inputs":[{"internalType":"uint256","name":"id","type":"uint256"}],"name":"exists","outputs":[{"internalType":"bool","name":"","type":"bool"}],"stateMutability":"view","type":"function"},{"inputs":[{"internalType":"uint256","name":"_incrementBy","type":"uint256"},{"internalType":"address","name":"_sender","type":"address"},{"internalType":"string","name":"artist","type":"string"}],"name":"incrementScore","outputs":[],"stateMutability":"nonpayable","type":"function"},{"inputs":[{"internalType":"address","name":"account","type":"address"},{"internalType":"address","name":"operator","type":"address"}],"name":"isApprovedForAll","outputs":[{"internalType":"bool","name":"","type":"bool"}],"stateMutability":"view","type":"function"},{"inputs":[{"internalType":"address","name":"account","type":"address"},{"internalType":"uint256","name":"id","type":"uint256"},{"internalType":"uint256","name":"amount","type":"uint256"},{"internalType":"bytes","name":"data","type":"bytes"}],"name":"mint","outputs":[],"stateMutability":"nonpayable","type":"function"},{"inputs":[{"internalType":"address","name":"to","type":"address"},{"internalType":"uint256[]","name":"ids","type":"uint256[]"},{"internalType":"uint256[]","name":"amounts","type":"uint256[]"},{"internalType":"bytes","name":"data","type":"bytes"}],"name":"mintBatch","outputs":[],"stateMutability":"nonpayable","type":"function"},{"inputs":[],"name":"owner","outputs":[{"internalType":"address","name":"","type":"address"}],"stateMutability":"view","type":"function"},{"inputs":[],"name":"renounceOwnership","outputs":[],"stateMutability":"nonpayable","type":"function"},{"inputs":[{"internalType":"address","name":"from","type":"address"},{"internalType":"address","name":"to","type":"address"},{"internalType":"uint256[]","name":"ids","type":"uint256[]"},{"internalType":"uint256[]","name":"values","type":"uint256[]"},{"internalType":"bytes","name":"data","type":"bytes"}],"name":"safeBatchTransferFrom","outputs":[],"stateMutability":"nonpayable","type":"function"},{"inputs":[{"internalType":"address","name":"from","type":"address"},{"internalType":"address","name":"to","type":"address"},{"internalType":"uint256","name":"id","type":"uint256"},{"internalType":"uint256","name":"value","type":"uint256"},{"internalType":"bytes","name":"data","type":"bytes"}],"name":"safeTransferFrom","outputs":[],"stateMutability":"nonpayable","type":"function"},{"inputs":[{"internalType":"uint256","name":"seats","type":"uint256"},{"internalType":"uint64","name":"seats_poi","type":"uint64"},{"internalType":"uint256","name":"gprice","type":"uint256"},{"internalType":"string","name":"artist","type":"string"},{"internalType":"bytes","name":"tokenURIs","type":"bytes"}],"name":"sale","outputs":[],"stateMutability":"nonpayable","type":"function"},{"inputs":[{"internalType":"address","name":"operator","type":"address"},{"internalType":"bool","name":"approved","type":"bool"}],"name":"setApprovalForAll","outputs":[],"stateMutability":"nonpayable","type":"function"},{"inputs":[{"internalType":"string","name":"newuri","type":"string"}],"name":"setURI","outputs":[],"stateMutability":"nonpayable","type":"function"},{"inputs":[{"internalType":"bytes4","name":"interfaceId","type":"bytes4"}],"name":"supportsInterface","outputs":[{"internalType":"bool","name":"","type":"bool"}],"stateMutability":"view","type":"function"},{"inputs":[],"name":"totalSupply","outputs":[{"internalType":"uint256","name":"","type":"uint256"}],"stateMutability":"view","type":"function"},{"inputs":[{"internalType":"uint256","name":"id","type":"uint256"}],"name":"totalSupply","outputs":[{"internalType":"uint256","name":"","type":"uint256"}],"stateMutability":"view","type":"function"},{"inputs":[{"internalType":"address","name":"newOwner","type":"address"}],"name":"transferOwnership","outputs":[],"stateMutability":"nonpayable","type":"function"},{"inputs":[{"internalType":"uint256","name":"","type":"uint256"}],"name":"uri","outputs":[{"internalType":"string","name":"","type":"string"}],"stateMutability":"view","type":"function"}],"evm":{"bytecode":{"linkReferences":{},"object":"60806040523480156200001157600080fd5b5060405162003f5a38038062003f5a83398181016040528101906200003791906200026e565b806040518060200160405280600081525062000059816200012960201b60201c565b50600073ffffffffffffffffffffffffffffffffffffffff168173ffffffffffffffffffffffffffffffffffffffff1603620000cf5760006040517f1e4fbdf7000000000000000000000000000000000000000000000000000000008152600401620000c69190620002b1565b60405180910390fd5b620000e0816200013e60201b60201c565b5080600760006101000a81548173ffffffffffffffffffffffffffffffffffffffff021916908373ffffffffffffffffffffffffffffffffffffffff160217905550506200062f565b80600290816200013a919062000548565b5050565b6000600360009054906101000a900473ffffffffffffffffffffffffffffffffffffffff16905081600360006101000a81548173ffffffffffffffffffffffffffffffffffffffff021916908373ffffffffffffffffffffffffffffffffffffffff1602179055508173ffffffffffffffffffffffffffffffffffffffff168173ffffffffffffffffffffffffffffffffffffffff167f8be0079c531659141344cd1fd0a4f28419497f9722a3daafe3b4186f6b6457e060405160405180910390a35050565b600080fd5b600073ffffffffffffffffffffffffffffffffffffffff82169050919050565b6000620002368262000209565b9050919050565b620002488162000229565b81146200025457600080fd5b50565b60008151905062000268816200023d565b92915050565b60006020828403121562000287576200028662000204565b5b6000620002978482850162000257565b91505092915050565b620002ab8162000229565b82525050565b6000602082019050620002c86000830184620002a0565b92915050565b600081519050919050565b7f4e487b7100000000000000000000000000000000000000000000000000000000600052604160045260246000fd5b7f4e487b7100000000000000000000000000000000000000000000000000000000600052602260045260246000fd5b600060028204905060018216806200035057607f821691505b60208210810362000366576200036562000308565b5b50919050565b60008190508160005260206000209050919050565b60006020601f8301049050919050565b600082821b905092915050565b600060088302620003d07fffffffffffffffffffffffffffffffffffffffffffffffffffffffffffffffff8262000391565b620003dc868362000391565b95508019841693508086168417925050509392505050565b6000819050919050565b6000819050919050565b600062000429620004236200041d84620003f4565b620003fe565b620003f4565b9050919050565b6000819050919050565b620004458362000408565b6200045d620004548262000430565b8484546200039e565b825550505050565b600090565b6200047462000465565b620004818184846200043a565b505050565b5b81811015620004a9576200049d6000826200046a565b60018101905062000487565b5050565b601f821115620004f857620004c2816200036c565b620004cd8462000381565b81016020851015620004dd578190505b620004f5620004ec8562000381565b83018262000486565b50505b505050565b600082821c905092915050565b60006200051d60001984600802620004fd565b1980831691505092915050565b60006200053883836200050a565b9150826002028217905092915050565b6200055382620002ce565b67ffffffffffffffff8111156200056f576200056e620002d9565b5b6200057b825462000337565b62000588828285620004ad565b600060209050601f831160018114620005c05760008415620005ab578287015190505b620005b785826200052a565b86555062000627565b601f198416620005d0866200036c565b60005b82811015620005fa57848901518255600182019150602085019450602081019050620005d3565b868310156200061a578489015162000616601f8916826200050a565b8355505b6001600288020188555050505b505050505050565b61391b806200063f6000396000f3fe60806040526004361061011e5760003560e01c806371e33e78116100a0578063bd85b03911610064578063bd85b039146103e0578063e985e9c51461041d578063f20dfe121461045a578063f242432a14610476578063f2fde38b1461049f5761011e565b806371e33e7814610311578063731133e91461033a5780638da5cb5b14610363578063985d37971461038e578063a22cb465146103b75761011e565b80631f7fdffa116100e75780631f7fdffa1461022e5780632eb2c2d6146102575780634e1273f4146102805780634f558e79146102bd578063715018a6146102fa5761011e565b8062fdd58e1461012357806301ffc9a71461016057806302fe53051461019d5780630e89341c146101c657806318160ddd14610203575b600080fd5b34801561012f57600080fd5b5061014a600480360381019061014591906124bf565b6104c8565b604051610157919061250e565b60405180910390f35b34801561016c57600080fd5b5061018760048036038101906101829190612581565b610522565b60405161019491906125c9565b60405180910390f35b3480156101a957600080fd5b506101c460048036038101906101bf919061272a565b610604565b005b3480156101d257600080fd5b506101ed60048036038101906101e89190612773565b610618565b6040516101fa919061281f565b60405180910390f35b34801561020f57600080fd5b506102186106ac565b604051610225919061250e565b60405180910390f35b34801561023a57600080fd5b50610255600480360381019061025091906129aa565b6106b6565b005b34801561026357600080fd5b5061027e60048036038101906102799190612a65565b6106d0565b005b34801561028c57600080fd5b506102a760048036038101906102a29190612bf7565b610778565b6040516102b49190612d2d565b60405180910390f35b3480156102c957600080fd5b506102e460048036038101906102df9190612773565b610887565b6040516102f191906125c9565b60405180910390f35b34801561030657600080fd5b5061030f61089b565b005b34801561031d57600080fd5b5061033860048036038101906103339190612d8f565b6108af565b005b34801561034657600080fd5b50610361600480360381019061035c9190612e42565b610d5c565b005b34801561036f57600080fd5b50610378610d76565b6040516103859190612ed4565b60405180910390f35b34801561039a57600080fd5b506103b560048036038101906103b09190612eef565b610da0565b005b3480156103c357600080fd5b506103de60048036038101906103d99190612f8a565b610fab565b005b3480156103ec57600080fd5b5061040760048036038101906104029190612773565b610fc1565b604051610414919061250e565b60405180910390f35b34801561042957600080fd5b50610444600480360381019061043f9190612fca565b610fde565b60405161045191906125c9565b60405180910390f35b610474600480360381019061046f919061300a565b611072565b005b34801561048257600080fd5b5061049d60048036038101906104989190613082565b61129c565b005b3480156104ab57600080fd5b506104c660048036038101906104c19190613119565b611344565b005b600080600083815260200190815260200160002060008473ffffffffffffffffffffffffffffffffffffffff1673ffffffffffffffffffffffffffffffffffffffff16815260200190815260200160002054905092915050565b60007fd9b67a26000000000000000000000000000000000000000000000000000000007bffffffffffffffffffffffffffffffffffffffffffffffffffffffff1916827bffffffffffffffffffffffffffffffffffffffffffffffffffffffff191614806105ed57507f0e89341c000000000000000000000000000000000000000000000000000000007bffffffffffffffffffffffffffffffffffffffffffffffffffffffff1916827bffffffffffffffffffffffffffffffffffffffffffffffffffffffff1916145b806105fd57506105fc826113ca565b5b9050919050565b61060c611434565b610615816114bb565b50565b60606002805461062790613175565b80601f016020809104026020016040519081016040528092919081815260200182805461065390613175565b80156106a05780601f10610675576101008083540402835291602001916106a0565b820191906000526020600020905b81548152906001019060200180831161068357829003601f168201915b50505050509050919050565b6000600554905090565b6106be611434565b6106ca848484846114ce565b50505050565b60006106da611554565b90508073ffffffffffffffffffffffffffffffffffffffff168673ffffffffffffffffffffffffffffffffffffffff161415801561071f575061071d8682610fde565b155b156107635780866040517fe237d92200000000000000000000000000000000000000000000000000000000815260040161075a9291906131a6565b60405180910390fd5b610770868686868661155c565b505050505050565b606081518351146107c457815183516040517f5b0599910000000000000000000000000000000000000000000000000000000081526004016107bb9291906131cf565b60405180910390fd5b6000835167ffffffffffffffff8111156107e1576107e06125ff565b5b60405190808252806020026020018201604052801561080f5781602001602082028036833780820191505090505b50905060005b845181101561087c5761084c610834828761165490919063ffffffff16565b610847838761166890919063ffffffff16565b6104c8565b82828151811061085f5761085e6131f8565b5b6020026020010181815250508061087590613256565b9050610815565b508091505092915050565b60008061089383610fc1565b119050919050565b6108a3611434565b6108ad600061167c565b565b8367ffffffffffffffff166006836040516108ca91906132da565b9081526020016040518091039020600201805490501015610a955760005b60066040516108f69061333d565b9081526020016040518091039020600201805490508167ffffffffffffffff1610156109b9576109a660068460405161092f91906132da565b90815260200160405180910390206002018267ffffffffffffffff168154811061095c5761095b6131f8565b5b9060005260206000200160009054906101000a900473ffffffffffffffffffffffffffffffffffffffff166001836109949190613352565b67ffffffffffffffff16600185610d5c565b80806109b19061338e565b9150506108e8565b50600060405180608001604052804281526020018781526020018581526020016001876109e69190613352565b67ffffffffffffffff168152509050600683604051610a0591906132da565b908152602001604051809103902060040181908060018154018082558091505060019003906000526020600020906004020160009091909190915060008201518160000155602082015181600101556040820151816002015560608201518160030160006101000a81548167ffffffffffffffff021916908367ffffffffffffffff160217905550505050610d55565b60008467ffffffffffffffff1667ffffffffffffffff811115610abb57610aba6125ff565b5b604051908082528060200260200182016040528015610ae95781602001602082028036833780820191505090505b50905060005b8567ffffffffffffffff168167ffffffffffffffff161015610c6757610b95600685604051610b1e91906132da565b90815260200160405180910390206002018267ffffffffffffffff1681548110610b4b57610b4a6131f8565b5b9060005260206000200160009054906101000a900473ffffffffffffffffffffffffffffffffffffffff16600183610b839190613352565b67ffffffffffffffff16600186610d5c565b600684604051610ba591906132da565b90815260200160405180910390206002018167ffffffffffffffff1681548110610bd257610bd16131f8565b5b9060005260206000200160009054906101000a900473ffffffffffffffffffffffffffffffffffffffff16828267ffffffffffffffff1681518110610c1a57610c196131f8565b5b602002602001019073ffffffffffffffffffffffffffffffffffffffff16908173ffffffffffffffffffffffffffffffffffffffff16815250508080610c5f9061338e565b915050610aef565b50600060405180608001604052804281526020018767ffffffffffffffff1689610c9191906133be565b8152602001868152602001600188610ca99190613352565b67ffffffffffffffff168152509050600684604051610cc891906132da565b908152602001604051809103902060040181908060018154018082558091505060019003906000526020600020906004020160009091909190915060008201518160000155602082015181600101556040820151816002015560608201518160030160006101000a81548167ffffffffffffffff021916908367ffffffffffffffff160217905550505050505b5050505050565b610d64611434565b610d7084848484611742565b50505050565b6000600360009054906101000a900473ffffffffffffffffffffffffffffffffffffffff16905090565b6000600682604051610db291906132da565b908152602001604051809103902060000160008473ffffffffffffffffffffffffffffffffffffffff1673ffffffffffffffffffffffffffffffffffffffff1681526020019081526020016000205403610e8957600681604051610e1691906132da565b9081526020016040518091039020600201829080600181540180825580915050600190039060005260206000200160009091909190916101000a81548173ffffffffffffffffffffffffffffffffffffffff021916908373ffffffffffffffffffffffffffffffffffffffff1602179055505b826006604051610e989061333d565b908152602001604051809103902060000160008473ffffffffffffffffffffffffffffffffffffffff1673ffffffffffffffffffffffffffffffffffffffff1681526020019081526020016000206000828254610ef591906133f2565b925050819055508173ffffffffffffffffffffffffffffffffffffffff167f40f839c1403eb49fa41afde447358e499b01b7c5aa7e51c628b52cbc5766cb486006604051610f429061333d565b908152602001604051809103902060000160008573ffffffffffffffffffffffffffffffffffffffff1673ffffffffffffffffffffffffffffffffffffffff16815260200190815260200160002054604051610f9e919061250e565b60405180910390a2505050565b610fbd610fb6611554565b83836117db565b5050565b600060046000838152602001908152602001600020549050919050565b6000600160008473ffffffffffffffffffffffffffffffffffffffff1673ffffffffffffffffffffffffffffffffffffffff16815260200190815260200160002060008373ffffffffffffffffffffffffffffffffffffffff1673ffffffffffffffffffffffffffffffffffffffff16815260200190815260200160002060009054906101000a900460ff16905092915050565b600060068360405161108491906132da565b908152602001604051809103902060040180549050905060006006846040516110ad91906132da565b90815260200160405180910390206004016001836110cb91906133be565b815481106110dc576110db6131f8565b5b906000526020600020906004020160030160009054906101000a900467ffffffffffffffff1667ffffffffffffffff169050600160068560405161112091906132da565b908152602001604051809103902060040160018461113e91906133be565b8154811061114f5761114e6131f8565b5b906000526020600020906004020160030160008282829054906101000a900467ffffffffffffffff166111829190613352565b92506101000a81548167ffffffffffffffff021916908367ffffffffffffffff1602179055506006846040516111b891906132da565b90815260200160405180910390206004016001836111d691906133be565b815481106111e7576111e66131f8565b5b90600052602060002090600402016002015434101561123b576040517f08c379a000000000000000000000000000000000000000000000000000000000815260040161123290613472565b60405180910390fd5b6112483382600186611742565b611250610d76565b73ffffffffffffffffffffffffffffffffffffffff166108fc349081150290604051600060405180830381858888f19350505050158015611295573d6000803e3d6000fd5b5050505050565b60006112a6611554565b90508073ffffffffffffffffffffffffffffffffffffffff168673ffffffffffffffffffffffffffffffffffffffff16141580156112eb57506112e98682610fde565b155b1561132f5780866040517fe237d9220000000000000000000000000000000000000000000000000000000081526004016113269291906131a6565b60405180910390fd5b61133c868686868661194b565b505050505050565b61134c611434565b600073ffffffffffffffffffffffffffffffffffffffff168173ffffffffffffffffffffffffffffffffffffffff16036113be5760006040517f1e4fbdf70000000000000000000000000000000000000000000000000000000081526004016113b59190612ed4565b60405180910390fd5b6113c78161167c565b50565b60007f01ffc9a7000000000000000000000000000000000000000000000000000000007bffffffffffffffffffffffffffffffffffffffffffffffffffffffff1916827bffffffffffffffffffffffffffffffffffffffffffffffffffffffff1916149050919050565b61143c611554565b73ffffffffffffffffffffffffffffffffffffffff1661145a610d76565b73ffffffffffffffffffffffffffffffffffffffff16146114b95761147d611554565b6040517f118cdaa70000000000000000000000000000000000000000000000000000000081526004016114b09190612ed4565b60405180910390fd5b565b80600290816114ca919061363e565b5050565b600073ffffffffffffffffffffffffffffffffffffffff168473ffffffffffffffffffffffffffffffffffffffff16036115405760006040517f57f447ce0000000000000000000000000000000000000000000000000000000081526004016115379190612ed4565b60405180910390fd5b61154e600085858585611a56565b50505050565b600033905090565b600073ffffffffffffffffffffffffffffffffffffffff168473ffffffffffffffffffffffffffffffffffffffff16036115ce5760006040517f57f447ce0000000000000000000000000000000000000000000000000000000081526004016115c59190612ed4565b60405180910390fd5b600073ffffffffffffffffffffffffffffffffffffffff168573ffffffffffffffffffffffffffffffffffffffff16036116405760006040517f01a835140000000000000000000000000000000000000000000000000000000081526004016116379190612ed4565b60405180910390fd5b61164d8585858585611a56565b5050505050565b600060208202602084010151905092915050565b600060208202602084010151905092915050565b6000600360009054906101000a900473ffffffffffffffffffffffffffffffffffffffff16905081600360006101000a81548173ffffffffffffffffffffffffffffffffffffffff021916908373ffffffffffffffffffffffffffffffffffffffff1602179055508173ffffffffffffffffffffffffffffffffffffffff168173ffffffffffffffffffffffffffffffffffffffff167f8be0079c531659141344cd1fd0a4f28419497f9722a3daafe3b4186f6b6457e060405160405180910390a35050565b600073ffffffffffffffffffffffffffffffffffffffff168473ffffffffffffffffffffffffffffffffffffffff16036117b45760006040517f57f447ce0000000000000000000000000000000000000000000000000000000081526004016117ab9190612ed4565b60405180910390fd5b6000806117c18585611b08565b915091506117d3600087848487611a56565b505050505050565b600073ffffffffffffffffffffffffffffffffffffffff168273ffffffffffffffffffffffffffffffffffffffff160361184d5760006040517fced3e1000000000000000000000000000000000000000000000000000000000081526004016118449190612ed4565b60405180910390fd5b80600160008573ffffffffffffffffffffffffffffffffffffffff1673ffffffffffffffffffffffffffffffffffffffff16815260200190815260200160002060008473ffffffffffffffffffffffffffffffffffffffff1673ffffffffffffffffffffffffffffffffffffffff16815260200190815260200160002060006101000a81548160ff0219169083151502179055508173ffffffffffffffffffffffffffffffffffffffff168373ffffffffffffffffffffffffffffffffffffffff167f17307eab39ab6107e8899845ad3d59bd9653f200f220920489ca2b5937696c318360405161193e91906125c9565b60405180910390a3505050565b600073ffffffffffffffffffffffffffffffffffffffff168473ffffffffffffffffffffffffffffffffffffffff16036119bd5760006040517f57f447ce0000000000000000000000000000000000000000000000000000000081526004016119b49190612ed4565b60405180910390fd5b600073ffffffffffffffffffffffffffffffffffffffff168573ffffffffffffffffffffffffffffffffffffffff1603611a2f5760006040517f01a83514000000000000000000000000000000000000000000000000000000008152600401611a269190612ed4565b60405180910390fd5b600080611a3c8585611b08565b91509150611a4d8787848487611a56565b50505050505050565b611a6285858585611b38565b600073ffffffffffffffffffffffffffffffffffffffff168473ffffffffffffffffffffffffffffffffffffffff1614611b01576000611aa0611554565b90506001845103611af0576000611ac160008661166890919063ffffffff16565b90506000611ad960008661166890919063ffffffff16565b9050611ae9838989858589611b4a565b5050611aff565b611afe818787878787611cfe565b5b505b5050505050565b60608060405191506001825283602083015260408201905060018152826020820152604081016040529250929050565b611b4484848484611eb2565b50505050565b60008473ffffffffffffffffffffffffffffffffffffffff163b1115611cf6578373ffffffffffffffffffffffffffffffffffffffff1663f23a6e6187878686866040518663ffffffff1660e01b8152600401611bab959493929190613765565b6020604051808303816000875af1925050508015611be757506040513d601f19601f82011682018060405250810190611be491906137d4565b60015b611c6b573d8060008114611c17576040519150601f19603f3d011682016040523d82523d6000602084013e611c1c565b606091505b506000815103611c6357846040517f57f447ce000000000000000000000000000000000000000000000000000000008152600401611c5a9190612ed4565b60405180910390fd5b805181602001fd5b63f23a6e6160e01b7bffffffffffffffffffffffffffffffffffffffffffffffffffffffff1916817bffffffffffffffffffffffffffffffffffffffffffffffffffffffff191614611cf457846040517f57f447ce000000000000000000000000000000000000000000000000000000008152600401611ceb9190612ed4565b60405180910390fd5b505b505050505050565b60008473ffffffffffffffffffffffffffffffffffffffff163b1115611eaa578373ffffffffffffffffffffffffffffffffffffffff1663bc197c8187878686866040518663ffffffff1660e01b8152600401611d5f959493929190613801565b6020604051808303816000875af1925050508015611d9b57506040513d601f19601f82011682018060405250810190611d9891906137d4565b60015b611e1f573d8060008114611dcb576040519150601f19603f3d011682016040523d82523d6000602084013e611dd0565b606091505b506000815103611e1757846040517f57f447ce000000000000000000000000000000000000000000000000000000008152600401611e0e9190612ed4565b60405180910390fd5b805181602001fd5b63bc197c8160e01b7bffffffffffffffffffffffffffffffffffffffffffffffffffffffff1916817bffffffffffffffffffffffffffffffffffffffffffffffffffffffff191614611ea857846040517f57f447ce000000000000000000000000000000000000000000000000000000008152600401611e9f9190612ed4565b60405180910390fd5b505b505050505050565b611ebe84848484612069565b600073ffffffffffffffffffffffffffffffffffffffff168473ffffffffffffffffffffffffffffffffffffffff1603611f9e576000805b8351811015611f82576000838281518110611f1457611f136131f8565b5b602002602001015190508060046000878581518110611f3657611f356131f8565b5b602002602001015181526020019081526020016000206000828254611f5b91906133f2565b925050819055508083611f6e91906133f2565b92505080611f7b90613256565b9050611ef6565b508060056000828254611f9591906133f2565b92505081905550505b600073ffffffffffffffffffffffffffffffffffffffff168373ffffffffffffffffffffffffffffffffffffffff1603612063576000805b8351811015612050576000838281518110611ff457611ff36131f8565b5b602002602001015190508060046000878581518110612016576120156131f8565b5b60200260200101518152602001908152602001600020600082825403925050819055508083019250508061204990613256565b9050611fd6565b5080600560008282540392505081905550505b50505050565b80518251146120b357815181516040517f5b0599910000000000000000000000000000000000000000000000000000000081526004016120aa9291906131cf565b60405180910390fd5b60006120bd611554565b905060005b83518110156122d25760006120e0828661166890919063ffffffff16565b905060006120f7838661166890919063ffffffff16565b9050600073ffffffffffffffffffffffffffffffffffffffff168873ffffffffffffffffffffffffffffffffffffffff161461222457600080600084815260200190815260200160002060008a73ffffffffffffffffffffffffffffffffffffffff1673ffffffffffffffffffffffffffffffffffffffff168152602001908152602001600020549050818110156121cc57888183856040517f03dee4c50000000000000000000000000000000000000000000000000000000081526004016121c39493929190613869565b60405180910390fd5b81810360008085815260200190815260200160002060008b73ffffffffffffffffffffffffffffffffffffffff1673ffffffffffffffffffffffffffffffffffffffff16815260200190815260200160002081905550505b600073ffffffffffffffffffffffffffffffffffffffff168773ffffffffffffffffffffffffffffffffffffffff16146122bf578060008084815260200190815260200160002060008973ffffffffffffffffffffffffffffffffffffffff1673ffffffffffffffffffffffffffffffffffffffff16815260200190815260200160002060008282546122b791906133f2565b925050819055505b5050806122cb90613256565b90506120c2565b5060018351036123915760006122f260008561166890919063ffffffff16565b9050600061230a60008561166890919063ffffffff16565b90508573ffffffffffffffffffffffffffffffffffffffff168773ffffffffffffffffffffffffffffffffffffffff168473ffffffffffffffffffffffffffffffffffffffff167fc3d58168c5ae7397731d063d5bbf3d657854427343f4c083240f7aacaa2d0f6285856040516123829291906131cf565b60405180910390a45050612410565b8373ffffffffffffffffffffffffffffffffffffffff168573ffffffffffffffffffffffffffffffffffffffff168273ffffffffffffffffffffffffffffffffffffffff167f4a39dc06d4c0dbc64b70af90fd698a233a518aa5d07e595d983b8c0526c8f7fb86866040516124079291906138ae565b60405180910390a45b5050505050565b6000604051905090565b600080fd5b600080fd5b600073ffffffffffffffffffffffffffffffffffffffff82169050919050565b60006124568261242b565b9050919050565b6124668161244b565b811461247157600080fd5b50565b6000813590506124838161245d565b92915050565b6000819050919050565b61249c81612489565b81146124a757600080fd5b50565b6000813590506124b981612493565b92915050565b600080604083850312156124d6576124d5612421565b5b60006124e485828601612474565b92505060206124f5858286016124aa565b9150509250929050565b61250881612489565b82525050565b600060208201905061252360008301846124ff565b92915050565b60007fffffffff0000000000000000000000000000000000000000000000000000000082169050919050565b61255e81612529565b811461256957600080fd5b50565b60008135905061257b81612555565b92915050565b60006020828403121561259757612596612421565b5b60006125a58482850161256c565b91505092915050565b60008115159050919050565b6125c3816125ae565b82525050565b60006020820190506125de60008301846125ba565b92915050565b600080fd5b600080fd5b6000601f19601f8301169050919050565b7f4e487b7100000000000000000000000000000000000000000000000000000000600052604160045260246000fd5b612637826125ee565b810181811067ffffffffffffffff82111715612656576126556125ff565b5b80604052505050565b6000612669612417565b9050612675828261262e565b919050565b600067ffffffffffffffff821115612695576126946125ff565b5b61269e826125ee565b9050602081019050919050565b82818337600083830152505050565b60006126cd6126c88461267a565b61265f565b9050828152602081018484840111156126e9576126e86125e9565b5b6126f48482856126ab565b509392505050565b600082601f830112612711576127106125e4565b5b81356127218482602086016126ba565b91505092915050565b6000602082840312156127405761273f612421565b5b600082013567ffffffffffffffff81111561275e5761275d612426565b5b61276a848285016126fc565b91505092915050565b60006020828403121561278957612788612421565b5b6000612797848285016124aa565b91505092915050565b600081519050919050565b600082825260208201905092915050565b60005b838110156127da5780820151818401526020810190506127bf565b60008484015250505050565b60006127f1826127a0565b6127fb81856127ab565b935061280b8185602086016127bc565b612814816125ee565b840191505092915050565b6000602082019050818103600083015261283981846127e6565b905092915050565b600067ffffffffffffffff82111561285c5761285b6125ff565b5b602082029050602081019050919050565b600080fd5b600061288561288084612841565b61265f565b905080838252602082019050602084028301858111156128a8576128a761286d565b5b835b818110156128d157806128bd88826124aa565b8452602084019350506020810190506128aa565b5050509392505050565b600082601f8301126128f0576128ef6125e4565b5b8135612900848260208601612872565b91505092915050565b600067ffffffffffffffff821115612924576129236125ff565b5b61292d826125ee565b9050602081019050919050565b600061294d61294884612909565b61265f565b905082815260208101848484011115612969576129686125e9565b5b6129748482856126ab565b509392505050565b600082601f830112612991576129906125e4565b5b81356129a184826020860161293a565b91505092915050565b600080600080608085870312156129c4576129c3612421565b5b60006129d287828801612474565b945050602085013567ffffffffffffffff8111156129f3576129f2612426565b5b6129ff878288016128db565b935050604085013567ffffffffffffffff811115612a2057612a1f612426565b5b612a2c878288016128db565b925050606085013567ffffffffffffffff811115612a4d57612a4c612426565b5b612a598782880161297c565b91505092959194509250565b600080600080600060a08688031215612a8157612a80612421565b5b6000612a8f88828901612474565b9550506020612aa088828901612474565b945050604086013567ffffffffffffffff811115612ac157612ac0612426565b5b612acd888289016128db565b935050606086013567ffffffffffffffff811115612aee57612aed612426565b5b612afa888289016128db565b925050608086013567ffffffffffffffff811115612b1b57612b1a612426565b5b612b278882890161297c565b9150509295509295909350565b600067ffffffffffffffff821115612b4f57612b4e6125ff565b5b602082029050602081019050919050565b6000612b73612b6e84612b34565b61265f565b90508083825260208201905060208402830185811115612b9657612b9561286d565b5b835b81811015612bbf5780612bab8882612474565b845260208401935050602081019050612b98565b5050509392505050565b600082601f830112612bde57612bdd6125e4565b5b8135612bee848260208601612b60565b91505092915050565b60008060408385031215612c0e57612c0d612421565b5b600083013567ffffffffffffffff811115612c2c57612c2b612426565b5b612c3885828601612bc9565b925050602083013567ffffffffffffffff811115612c5957612c58612426565b5b612c65858286016128db565b9150509250929050565b600081519050919050565b600082825260208201905092915050565b6000819050602082019050919050565b612ca481612489565b82525050565b6000612cb68383612c9b565b60208301905092915050565b6000602082019050919050565b6000612cda82612c6f565b612ce48185612c7a565b9350612cef83612c8b565b8060005b83811015612d20578151612d078882612caa565b9750612d1283612cc2565b925050600181019050612cf3565b5085935050505092915050565b60006020820190508181036000830152612d478184612ccf565b905092915050565b600067ffffffffffffffff82169050919050565b612d6c81612d4f565b8114612d7757600080fd5b50565b600081359050612d8981612d63565b92915050565b600080600080600060a08688031215612dab57612daa612421565b5b6000612db9888289016124aa565b9550506020612dca88828901612d7a565b9450506040612ddb888289016124aa565b935050606086013567ffffffffffffffff811115612dfc57612dfb612426565b5b612e08888289016126fc565b925050608086013567ffffffffffffffff811115612e2957612e28612426565b5b612e358882890161297c565b9150509295509295909350565b60008060008060808587031215612e5c57612e5b612421565b5b6000612e6a87828801612474565b9450506020612e7b878288016124aa565b9350506040612e8c878288016124aa565b925050606085013567ffffffffffffffff811115612ead57612eac612426565b5b612eb98782880161297c565b91505092959194509250565b612ece8161244b565b82525050565b6000602082019050612ee96000830184612ec5565b92915050565b600080600060608486031215612f0857612f07612421565b5b6000612f16868287016124aa565b9350506020612f2786828701612474565b925050604084013567ffffffffffffffff811115612f4857612f47612426565b5b612f54868287016126fc565b9150509250925092565b612f67816125ae565b8114612f7257600080fd5b50565b600081359050612f8481612f5e565b92915050565b60008060408385031215612fa157612fa0612421565b5b6000612faf85828601612474565b9250506020612fc085828601612f75565b9150509250929050565b60008060408385031215612fe157612fe0612421565b5b6000612fef85828601612474565b925050602061300085828601612474565b9150509250929050565b6000806040838503121561302157613020612421565b5b600083013567ffffffffffffffff81111561303f5761303e612426565b5b61304b858286016126fc565b925050602083013567ffffffffffffffff81111561306c5761306b612426565b5b6130788582860161297c565b9150509250929050565b600080600080600060a0868803121561309e5761309d612421565b5b60006130ac88828901612474565b95505060206130bd88828901612474565b94505060406130ce888289016124aa565b93505060606130df888289016124aa565b925050608086013567ffffffffffffffff811115613100576130ff612426565b5b61310c8882890161297c565b9150509295509295909350565b60006020828403121561312f5761312e612421565b5b600061313d84828501612474565b91505092915050565b7f4e487b7100000000000000000000000000000000000000000000000000000000600052602260045260246000fd5b6000600282049050600182168061318d57607f821691505b6020821081036131a05761319f613146565b5b50919050565b60006040820190506131bb6000830185612ec5565b6131c86020830184612ec5565b9392505050565b60006040820190506131e460008301856124ff565b6131f160208301846124ff565b9392505050565b7f4e487b7100000000000000000000000000000000000000000000000000000000600052603260045260246000fd5b7f4e487b7100000000000000000000000000000000000000000000000000000000600052601160045260246000fd5b600061326182612489565b91507fffffffffffffffffffffffffffffffffffffffffffffffffffffffffffffffff820361329357613292613227565b5b600182019050919050565b600081905092915050565b60006132b4826127a0565b6132be818561329e565b93506132ce8185602086016127bc565b80840191505092915050565b60006132e682846132a9565b915081905092915050565b7f6172746973740000000000000000000000000000000000000000000000000000600082015250565b600061332760068361329e565b9150613332826132f1565b600682019050919050565b60006133488261331a565b9150819050919050565b600061335d82612d4f565b915061336883612d4f565b9250828201905067ffffffffffffffff81111561338857613387613227565b5b92915050565b600061339982612d4f565b915067ffffffffffffffff82036133b3576133b2613227565b5b600182019050919050565b60006133c982612489565b91506133d483612489565b92508282039050818111156133ec576133eb613227565b5b92915050565b60006133fd82612489565b915061340883612489565b92508282019050808211156134205761341f613227565b5b92915050565b7f496e73756666696369656e742066756e64730000000000000000000000000000600082015250565b600061345c6012836127ab565b915061346782613426565b602082019050919050565b6000602082019050818103600083015261348b8161344f565b9050919050565b60008190508160005260206000209050919050565b60006020601f8301049050919050565b600082821b905092915050565b6000600883026134f47fffffffffffffffffffffffffffffffffffffffffffffffffffffffffffffffff826134b7565b6134fe86836134b7565b95508019841693508086168417925050509392505050565b6000819050919050565b600061353b61353661353184612489565b613516565b612489565b9050919050565b6000819050919050565b61355583613520565b61356961356182613542565b8484546134c4565b825550505050565b600090565b61357e613571565b61358981848461354c565b505050565b5b818110156135ad576135a2600082613576565b60018101905061358f565b5050565b601f8211156135f2576135c381613492565b6135cc846134a7565b810160208510156135db578190505b6135ef6135e7856134a7565b83018261358e565b50505b505050565b600082821c905092915050565b6000613615600019846008026135f7565b1980831691505092915050565b600061362e8383613604565b9150826002028217905092915050565b613647826127a0565b67ffffffffffffffff8111156136605761365f6125ff565b5b61366a8254613175565b6136758282856135b1565b600060209050601f8311600181146136a85760008415613696578287015190505b6136a08582613622565b865550613708565b601f1984166136b686613492565b60005b828110156136de578489015182556001820191506020850194506020810190506136b9565b868310156136fb57848901516136f7601f891682613604565b8355505b6001600288020188555050505b505050505050565b600081519050919050565b600082825260208201905092915050565b600061373782613710565b613741818561371b565b93506137518185602086016127bc565b61375a816125ee565b840191505092915050565b600060a08201905061377a6000830188612ec5565b6137876020830187612ec5565b61379460408301866124ff565b6137a160608301856124ff565b81810360808301526137b3818461372c565b90509695505050505050565b6000815190506137ce81612555565b92915050565b6000602082840312156137ea576137e9612421565b5b60006137f8848285016137bf565b91505092915050565b600060a0820190506138166000830188612ec5565b6138236020830187612ec5565b81810360408301526138358186612ccf565b905081810360608301526138498185612ccf565b9050818103608083015261385d818461372c565b90509695505050505050565b600060808201905061387e6000830187612ec5565b61388b60208301866124ff565b61389860408301856124ff565b6138a560608301846124ff565b95945050505050565b600060408201905081810360008301526138c88185612ccf565b905081810360208301526138dc8184612ccf565b9050939250505056fea2646970667358221220f014ee9b4dab2a3fbacd8978b718ab854f08814edd04acf57185944120ab6faf64736f6c63430008140033","opcodes":"PUSH1 0x80 PUSH1 0x40 MSTORE CALLVALUE DUP1 ISZERO PUSH3 0x11 JUMPI PUSH1 0x0 DUP1 REVERT JUMPDEST POP PUSH1 0x40 MLOAD PUSH3 0x3F5A CODESIZE SUB DUP1 PUSH3 0x3F5A DUP4 CODECOPY DUP2 DUP2 ADD PUSH1 0x40 MSTORE DUP2 ADD SWAP1 PUSH3 0x37 SWAP2 SWAP1 PUSH3 0x26E JUMP JUMPDEST DUP1 PUSH1 0x40 MLOAD DUP1 PUSH1 0x20 ADD PUSH1 0x40 MSTORE DUP1 PUSH1 0x0 DUP2 MSTORE POP PUSH3 0x59 DUP2 PUSH3 0x129 PUSH1 0x20 SHL PUSH1 0x20 SHR JUMP JUMPDEST POP PUSH1 0x0 PUSH20 0xFFFFFFFFFFFFFFFFFFFFFFFFFFFFFFFFFFFFFFFF AND DUP2 PUSH20 0xFFFFFFFFFFFFFFFFFFFFFFFFFFFFFFFFFFFFFFFF AND SUB PUSH3 0xCF JUMPI PUSH1 0x0 PUSH1 0x40 MLOAD PUSH32 0x1E4FBDF700000000000000000000000000000000000000000000000000000000 DUP2 MSTORE PUSH1 0x4 ADD PUSH3 0xC6 SWAP2 SWAP1 PUSH3 0x2B1 JUMP JUMPDEST PUSH1 0x40 MLOAD DUP1 SWAP2 SUB SWAP1 REVERT JUMPDEST PUSH3 0xE0 DUP2 PUSH3 0x13E PUSH1 0x20 SHL PUSH1 0x20 SHR JUMP JUMPDEST POP DUP1 PUSH1 0x7 PUSH1 0x0 PUSH2 0x100 EXP DUP2 SLOAD DUP2 PUSH20 0xFFFFFFFFFFFFFFFFFFFFFFFFFFFFFFFFFFFFFFFF MUL NOT AND SWAP1 DUP4 PUSH20 0xFFFFFFFFFFFFFFFFFFFFFFFFFFFFFFFFFFFFFFFF AND MUL OR SWAP1 SSTORE POP POP PUSH3 0x62F JUMP JUMPDEST DUP1 PUSH1 0x2 SWAP1 DUP2 PUSH3 0x13A SWAP2 SWAP1 PUSH3 0x548 JUMP JUMPDEST POP POP JUMP JUMPDEST PUSH1 0x0 PUSH1 0x3 PUSH1 0x0 SWAP1 SLOAD SWAP1 PUSH2 0x100 EXP SWAP1 DIV PUSH20 0xFFFFFFFFFFFFFFFFFFFFFFFFFFFFFFFFFFFFFFFF AND SWAP1 POP DUP2 PUSH1 0x3 PUSH1 0x0 PUSH2 0x100 EXP DUP2 SLOAD DUP2 PUSH20 0xFFFFFFFFFFFFFFFFFFFFFFFFFFFFFFFFFFFFFFFF MUL NOT AND SWAP1 DUP4 PUSH20 0xFFFFFFFFFFFFFFFFFFFFFFFFFFFFFFFFFFFFFFFF AND MUL OR SWAP1 SSTORE POP DUP2 PUSH20 0xFFFFFFFFFFFFFFFFFFFFFFFFFFFFFFFFFFFFFFFF AND DUP2 PUSH20 0xFFFFFFFFFFFFFFFFFFFFFFFFFFFFFFFFFFFFFFFF AND PUSH32 0x8BE0079C531659141344CD1FD0A4F28419497F9722A3DAAFE3B4186F6B6457E0 PUSH1 0x40 MLOAD PUSH1 0x40 MLOAD DUP1 SWAP2 SUB SWAP1 LOG3 POP POP JUMP JUMPDEST PUSH1 0x0 DUP1 REVERT JUMPDEST PUSH1 0x0 PUSH20 0xFFFFFFFFFFFFFFFFFFFFFFFFFFFFFFFFFFFFFFFF DUP3 AND SWAP1 POP SWAP2 SWAP1 POP JUMP JUMPDEST PUSH1 0x0 PUSH3 0x236 DUP3 PUSH3 0x209 JUMP JUMPDEST SWAP1 POP SWAP2 SWAP1 POP JUMP JUMPDEST PUSH3 0x248 DUP2 PUSH3 0x229 JUMP JUMPDEST DUP2 EQ PUSH3 0x254 JUMPI PUSH1 0x0 DUP1 REVERT JUMPDEST POP JUMP JUMPDEST PUSH1 0x0 DUP2 MLOAD SWAP1 POP PUSH3 0x268 DUP2 PUSH3 0x23D JUMP JUMPDEST SWAP3 SWAP2 POP POP JUMP JUMPDEST PUSH1 0x0 PUSH1 0x20 DUP3 DUP5 SUB SLT ISZERO PUSH3 0x287 JUMPI PUSH3 0x286 PUSH3 0x204 JUMP JUMPDEST JUMPDEST PUSH1 0x0 PUSH3 0x297 DUP5 DUP3 DUP6 ADD PUSH3 0x257 JUMP JUMPDEST SWAP2 POP POP SWAP3 SWAP2 POP POP JUMP JUMPDEST PUSH3 0x2AB DUP2 PUSH3 0x229 JUMP JUMPDEST DUP3 MSTORE POP POP JUMP JUMPDEST PUSH1 0x0 PUSH1 0x20 DUP3 ADD SWAP1 POP PUSH3 0x2C8 PUSH1 0x0 DUP4 ADD DUP5 PUSH3 0x2A0 JUMP JUMPDEST SWAP3 SWAP2 POP POP JUMP JUMPDEST PUSH1 0x0 DUP2 MLOAD SWAP1 POP SWAP2 SWAP1 POP JUMP JUMPDEST PUSH32 0x4E487B7100000000000000000000000000000000000000000000000000000000 PUSH1 0x0 MSTORE PUSH1 0x41 PUSH1 0x4 MSTORE PUSH1 0x24 PUSH1 0x0 REVERT JUMPDEST PUSH32 0x4E487B7100000000000000000000000000000000000000000000000000000000 PUSH1 0x0 MSTORE PUSH1 0x22 PUSH1 0x4 MSTORE PUSH1 0x24 PUSH1 0x0 REVERT JUMPDEST PUSH1 0x0 PUSH1 0x2 DUP3 DIV SWAP1 POP PUSH1 0x1 DUP3 AND DUP1 PUSH3 0x350 JUMPI PUSH1 0x7F DUP3 AND SWAP2 POP JUMPDEST PUSH1 0x20 DUP3 LT DUP2 SUB PUSH3 0x366 JUMPI PUSH3 0x365 PUSH3 0x308 JUMP JUMPDEST JUMPDEST POP SWAP2 SWAP1 POP JUMP JUMPDEST PUSH1 0x0 DUP2 SWAP1 POP DUP2 PUSH1 0x0 MSTORE PUSH1 0x20 PUSH1 0x0 KECCAK256 SWAP1 POP SWAP2 SWAP1 POP JUMP JUMPDEST PUSH1 0x0 PUSH1 0x20 PUSH1 0x1F DUP4 ADD DIV SWAP1 POP SWAP2 SWAP1 POP JUMP JUMPDEST PUSH1 0x0 DUP3 DUP3 SHL SWAP1 POP SWAP3 SWAP2 POP POP JUMP JUMPDEST PUSH1 0x0 PUSH1 0x8 DUP4 MUL PUSH3 0x3D0 PUSH32 0xFFFFFFFFFFFFFFFFFFFFFFFFFFFFFFFFFFFFFFFFFFFFFFFFFFFFFFFFFFFFFFFF DUP3 PUSH3 0x391 JUMP JUMPDEST PUSH3 0x3DC DUP7 DUP4 PUSH3 0x391 JUMP JUMPDEST SWAP6 POP DUP1 NOT DUP5 AND SWAP4 POP DUP1 DUP7 AND DUP5 OR SWAP3 POP POP POP SWAP4 SWAP3 POP POP POP JUMP JUMPDEST PUSH1 0x0 DUP2 SWAP1 POP SWAP2 SWAP1 POP JUMP JUMPDEST PUSH1 0x0 DUP2 SWAP1 POP SWAP2 SWAP1 POP JUMP JUMPDEST PUSH1 0x0 PUSH3 0x429 PUSH3 0x423 PUSH3 0x41D DUP5 PUSH3 0x3F4 JUMP JUMPDEST PUSH3 0x3FE JUMP JUMPDEST PUSH3 0x3F4 JUMP JUMPDEST SWAP1 POP SWAP2 SWAP1 POP JUMP JUMPDEST PUSH1 0x0 DUP2 SWAP1 POP SWAP2 SWAP1 POP JUMP JUMPDEST PUSH3 0x445 DUP4 PUSH3 0x408 JUMP JUMPDEST PUSH3 0x45D PUSH3 0x454 DUP3 PUSH3 0x430 JUMP JUMPDEST DUP5 DUP5 SLOAD PUSH3 0x39E JUMP JUMPDEST DUP3 SSTORE POP POP POP POP JUMP JUMPDEST PUSH1 0x0 SWAP1 JUMP JUMPDEST PUSH3 0x474 PUSH3 0x465 JUMP JUMPDEST PUSH3 0x481 DUP2 DUP5 DUP5 PUSH3 0x43A JUMP JUMPDEST POP POP POP JUMP JUMPDEST JUMPDEST DUP2 DUP2 LT ISZERO PUSH3 0x4A9 JUMPI PUSH3 0x49D PUSH1 0x0 DUP3 PUSH3 0x46A JUMP JUMPDEST PUSH1 0x1 DUP2 ADD SWAP1 POP PUSH3 0x487 JUMP JUMPDEST POP POP JUMP JUMPDEST PUSH1 0x1F DUP3 GT ISZERO PUSH3 0x4F8 JUMPI PUSH3 0x4C2 DUP2 PUSH3 0x36C JUMP JUMPDEST PUSH3 0x4CD DUP5 PUSH3 0x381 JUMP JUMPDEST DUP2 ADD PUSH1 0x20 DUP6 LT ISZERO PUSH3 0x4DD JUMPI DUP2 SWAP1 POP JUMPDEST PUSH3 0x4F5 PUSH3 0x4EC DUP6 PUSH3 0x381 JUMP JUMPDEST DUP4 ADD DUP3 PUSH3 0x486 JUMP JUMPDEST POP POP JUMPDEST POP POP POP JUMP JUMPDEST PUSH1 0x0 DUP3 DUP3 SHR SWAP1 POP SWAP3 SWAP2 POP POP JUMP JUMPDEST PUSH1 0x0 PUSH3 0x51D PUSH1 0x0 NOT DUP5 PUSH1 0x8 MUL PUSH3 0x4FD JUMP JUMPDEST NOT DUP1 DUP4 AND SWAP2 POP POP SWAP3 SWAP2 POP POP JUMP JUMPDEST PUSH1 0x0 PUSH3 0x538 DUP4 DUP4 PUSH3 0x50A JUMP JUMPDEST SWAP2 POP DUP3 PUSH1 0x2 MUL DUP3 OR SWAP1 POP SWAP3 SWAP2 POP POP JUMP JUMPDEST PUSH3 0x553 DUP3 PUSH3 0x2CE JUMP JUMPDEST PUSH8 0xFFFFFFFFFFFFFFFF DUP2 GT ISZERO PUSH3 0x56F JUMPI PUSH3 0x56E PUSH3 0x2D9 JUMP JUMPDEST JUMPDEST PUSH3 0x57B DUP3 SLOAD PUSH3 0x337 JUMP JUMPDEST PUSH3 0x588 DUP3 DUP3 DUP6 PUSH3 0x4AD JUMP JUMPDEST PUSH1 0x0 PUSH1 0x20 SWAP1 POP PUSH1 0x1F DUP4 GT PUSH1 0x1 DUP2 EQ PUSH3 0x5C0 JUMPI PUSH1 0x0 DUP5 ISZERO PUSH3 0x5AB JUMPI DUP3 DUP8 ADD MLOAD SWAP1 POP JUMPDEST PUSH3 0x5B7 DUP6 DUP3 PUSH3 0x52A JUMP JUMPDEST DUP7 SSTORE POP PUSH3 0x627 JUMP JUMPDEST PUSH1 0x1F NOT DUP5 AND PUSH3 0x5D0 DUP7 PUSH3 0x36C JUMP JUMPDEST PUSH1 0x0 JUMPDEST DUP3 DUP2 LT ISZERO PUSH3 0x5FA JUMPI DUP5 DUP10 ADD MLOAD DUP3 SSTORE PUSH1 0x1 DUP3 ADD SWAP2 POP PUSH1 0x20 DUP6 ADD SWAP5 POP PUSH1 0x20 DUP2 ADD SWAP1 POP PUSH3 0x5D3 JUMP JUMPDEST DUP7 DUP4 LT ISZERO PUSH3 0x61A JUMPI DUP5 DUP10 ADD MLOAD PUSH3 0x616 PUSH1 0x1F DUP10 AND DUP3 PUSH3 0x50A JUMP JUMPDEST DUP4 SSTORE POP JUMPDEST PUSH1 0x1 PUSH1 0x2 DUP9 MUL ADD DUP9 SSTORE POP POP POP JUMPDEST POP POP POP POP POP POP JUMP JUMPDEST PUSH2 0x391B DUP1 PUSH3 0x63F PUSH1 0x0 CODECOPY PUSH1 0x0 RETURN INVALID PUSH1 0x80 PUSH1 0x40 MSTORE PUSH1 0x4 CALLDATASIZE LT PUSH2 0x11E JUMPI PUSH1 0x0 CALLDATALOAD PUSH1 0xE0 SHR DUP1 PUSH4 0x71E33E78 GT PUSH2 0xA0 JUMPI DUP1 PUSH4 0xBD85B039 GT PUSH2 0x64 JUMPI DUP1 PUSH4 0xBD85B039 EQ PUSH2 0x3E0 JUMPI DUP1 PUSH4 0xE985E9C5 EQ PUSH2 0x41D JUMPI DUP1 PUSH4 0xF20DFE12 EQ PUSH2 0x45A JUMPI DUP1 PUSH4 0xF242432A EQ PUSH2 0x476 JUMPI DUP1 PUSH4 0xF2FDE38B EQ PUSH2 0x49F JUMPI PUSH2 0x11E JUMP JUMPDEST DUP1 PUSH4 0x71E33E78 EQ PUSH2 0x311 JUMPI DUP1 PUSH4 0x731133E9 EQ PUSH2 0x33A JUMPI DUP1 PUSH4 0x8DA5CB5B EQ PUSH2 0x363 JUMPI DUP1 PUSH4 0x985D3797 EQ PUSH2 0x38E JUMPI DUP1 PUSH4 0xA22CB465 EQ PUSH2 0x3B7 JUMPI PUSH2 0x11E JUMP JUMPDEST DUP1 PUSH4 0x1F7FDFFA GT PUSH2 0xE7 JUMPI DUP1 PUSH4 0x1F7FDFFA EQ PUSH2 0x22E JUMPI DUP1 PUSH4 0x2EB2C2D6 EQ PUSH2 0x257 JUMPI DUP1 PUSH4 0x4E1273F4 EQ PUSH2 0x280 JUMPI DUP1 PUSH4 0x4F558E79 EQ PUSH2 0x2BD JUMPI DUP1 PUSH4 0x715018A6 EQ PUSH2 0x2FA JUMPI PUSH2 0x11E JUMP JUMPDEST DUP1 PUSH3 0xFDD58E EQ PUSH2 0x123 JUMPI DUP1 PUSH4 0x1FFC9A7 EQ PUSH2 0x160 JUMPI DUP1 PUSH4 0x2FE5305 EQ PUSH2 0x19D JUMPI DUP1 PUSH4 0xE89341C EQ PUSH2 0x1C6 JUMPI DUP1 PUSH4 0x18160DDD EQ PUSH2 0x203 JUMPI JUMPDEST PUSH1 0x0 DUP1 REVERT JUMPDEST CALLVALUE DUP1 ISZERO PUSH2 0x12F JUMPI PUSH1 0x0 DUP1 REVERT JUMPDEST POP PUSH2 0x14A PUSH1 0x4 DUP1 CALLDATASIZE SUB DUP2 ADD SWAP1 PUSH2 0x145 SWAP2 SWAP1 PUSH2 0x24BF JUMP JUMPDEST PUSH2 0x4C8 JUMP JUMPDEST PUSH1 0x40 MLOAD PUSH2 0x157 SWAP2 SWAP1 PUSH2 0x250E JUMP JUMPDEST PUSH1 0x40 MLOAD DUP1 SWAP2 SUB SWAP1 RETURN JUMPDEST CALLVALUE DUP1 ISZERO PUSH2 0x16C JUMPI PUSH1 0x0 DUP1 REVERT JUMPDEST POP PUSH2 0x187 PUSH1 0x4 DUP1 CALLDATASIZE SUB DUP2 ADD SWAP1 PUSH2 0x182 SWAP2 SWAP1 PUSH2 0x2581 JUMP JUMPDEST PUSH2 0x522 JUMP JUMPDEST PUSH1 0x40 MLOAD PUSH2 0x194 SWAP2 SWAP1 PUSH2 0x25C9 JUMP JUMPDEST PUSH1 0x40 MLOAD DUP1 SWAP2 SUB SWAP1 RETURN JUMPDEST CALLVALUE DUP1 ISZERO PUSH2 0x1A9 JUMPI PUSH1 0x0 DUP1 REVERT JUMPDEST POP PUSH2 0x1C4 PUSH1 0x4 DUP1 CALLDATASIZE SUB DUP2 ADD SWAP1 PUSH2 0x1BF SWAP2 SWAP1 PUSH2 0x272A JUMP JUMPDEST PUSH2 0x604 JUMP JUMPDEST STOP JUMPDEST CALLVALUE DUP1 ISZERO PUSH2 0x1D2 JUMPI PUSH1 0x0 DUP1 REVERT JUMPDEST POP PUSH2 0x1ED PUSH1 0x4 DUP1 CALLDATASIZE SUB DUP2 ADD SWAP1 PUSH2 0x1E8 SWAP2 SWAP1 PUSH2 0x2773 JUMP JUMPDEST PUSH2 0x618 JUMP JUMPDEST PUSH1 0x40 MLOAD PUSH2 0x1FA SWAP2 SWAP1 PUSH2 0x281F JUMP JUMPDEST PUSH1 0x40 MLOAD DUP1 SWAP2 SUB SWAP1 RETURN JUMPDEST CALLVALUE DUP1 ISZERO PUSH2 0x20F JUMPI PUSH1 0x0 DUP1 REVERT JUMPDEST POP PUSH2 0x218 PUSH2 0x6AC JUMP JUMPDEST PUSH1 0x40 MLOAD PUSH2 0x225 SWAP2 SWAP1 PUSH2 0x250E JUMP JUMPDEST PUSH1 0x40 MLOAD DUP1 SWAP2 SUB SWAP1 RETURN JUMPDEST CALLVALUE DUP1 ISZERO PUSH2 0x23A JUMPI PUSH1 0x0 DUP1 REVERT JUMPDEST POP PUSH2 0x255 PUSH1 0x4 DUP1 CALLDATASIZE SUB DUP2 ADD SWAP1 PUSH2 0x250 SWAP2 SWAP1 PUSH2 0x29AA JUMP JUMPDEST PUSH2 0x6B6 JUMP JUMPDEST STOP JUMPDEST CALLVALUE DUP1 ISZERO PUSH2 0x263 JUMPI PUSH1 0x0 DUP1 REVERT JUMPDEST POP PUSH2 0x27E PUSH1 0x4 DUP1 CALLDATASIZE SUB DUP2 ADD SWAP1 PUSH2 0x279 SWAP2 SWAP1 PUSH2 0x2A65 JUMP JUMPDEST PUSH2 0x6D0 JUMP JUMPDEST STOP JUMPDEST CALLVALUE DUP1 ISZERO PUSH2 0x28C JUMPI PUSH1 0x0 DUP1 REVERT JUMPDEST POP PUSH2 0x2A7 PUSH1 0x4 DUP1 CALLDATASIZE SUB DUP2 ADD SWAP1 PUSH2 0x2A2 SWAP2 SWAP1 PUSH2 0x2BF7 JUMP JUMPDEST PUSH2 0x778 JUMP JUMPDEST PUSH1 0x40 MLOAD PUSH2 0x2B4 SWAP2 SWAP1 PUSH2 0x2D2D JUMP JUMPDEST PUSH1 0x40 MLOAD DUP1 SWAP2 SUB SWAP1 RETURN JUMPDEST CALLVALUE DUP1 ISZERO PUSH2 0x2C9 JUMPI PUSH1 0x0 DUP1 REVERT JUMPDEST POP PUSH2 0x2E4 PUSH1 0x4 DUP1 CALLDATASIZE SUB DUP2 ADD SWAP1 PUSH2 0x2DF SWAP2 SWAP1 PUSH2 0x2773 JUMP JUMPDEST PUSH2 0x887 JUMP JUMPDEST PUSH1 0x40 MLOAD PUSH2 0x2F1 SWAP2 SWAP1 PUSH2 0x25C9 JUMP JUMPDEST PUSH1 0x40 MLOAD DUP1 SWAP2 SUB SWAP1 RETURN JUMPDEST CALLVALUE DUP1 ISZERO PUSH2 0x306 JUMPI PUSH1 0x0 DUP1 REVERT JUMPDEST POP PUSH2 0x30F PUSH2 0x89B JUMP JUMPDEST STOP JUMPDEST CALLVALUE DUP1 ISZERO PUSH2 0x31D JUMPI PUSH1 0x0 DUP1 REVERT JUMPDEST POP PUSH2 0x338 PUSH1 0x4 DUP1 CALLDATASIZE SUB DUP2 ADD SWAP1 PUSH2 0x333 SWAP2 SWAP1 PUSH2 0x2D8F JUMP JUMPDEST PUSH2 0x8AF JUMP JUMPDEST STOP JUMPDEST CALLVALUE DUP1 ISZERO PUSH2 0x346 JUMPI PUSH1 0x0 DUP1 REVERT JUMPDEST POP PUSH2 0x361 PUSH1 0x4 DUP1 CALLDATASIZE SUB DUP2 ADD SWAP1 PUSH2 0x35C SWAP2 SWAP1 PUSH2 0x2E42 JUMP JUMPDEST PUSH2 0xD5C JUMP JUMPDEST STOP JUMPDEST CALLVALUE DUP1 ISZERO PUSH2 0x36F JUMPI PUSH1 0x0 DUP1 REVERT JUMPDEST POP PUSH2 0x378 PUSH2 0xD76 JUMP JUMPDEST PUSH1 0x40 MLOAD PUSH2 0x385 SWAP2 SWAP1 PUSH2 0x2ED4 JUMP JUMPDEST PUSH1 0x40 MLOAD DUP1 SWAP2 SUB SWAP1 RETURN JUMPDEST CALLVALUE DUP1 ISZERO PUSH2 0x39A JUMPI PUSH1 0x0 DUP1 REVERT JUMPDEST POP PUSH2 0x3B5 PUSH1 0x4 DUP1 CALLDATASIZE SUB DUP2 ADD SWAP1 PUSH2 0x3B0 SWAP2 SWAP1 PUSH2 0x2EEF JUMP JUMPDEST PUSH2 0xDA0 JUMP JUMPDEST STOP JUMPDEST CALLVALUE DUP1 ISZERO PUSH2 0x3C3 JUMPI PUSH1 0x0 DUP1 REVERT JUMPDEST POP PUSH2 0x3DE PUSH1 0x4 DUP1 CALLDATASIZE SUB DUP2 ADD SWAP1 PUSH2 0x3D9 SWAP2 SWAP1 PUSH2 0x2F8A JUMP JUMPDEST PUSH2 0xFAB JUMP JUMPDEST STOP JUMPDEST CALLVALUE DUP1 ISZERO PUSH2 0x3EC JUMPI PUSH1 0x0 DUP1 REVERT JUMPDEST POP PUSH2 0x407 PUSH1 0x4 DUP1 CALLDATASIZE SUB DUP2 ADD SWAP1 PUSH2 0x402 SWAP2 SWAP1 PUSH2 0x2773 JUMP JUMPDEST PUSH2 0xFC1 JUMP JUMPDEST PUSH1 0x40 MLOAD PUSH2 0x414 SWAP2 SWAP1 PUSH2 0x250E JUMP JUMPDEST PUSH1 0x40 MLOAD DUP1 SWAP2 SUB SWAP1 RETURN JUMPDEST CALLVALUE DUP1 ISZERO PUSH2 0x429 JUMPI PUSH1 0x0 DUP1 REVERT JUMPDEST POP PUSH2 0x444 PUSH1 0x4 DUP1 CALLDATASIZE SUB DUP2 ADD SWAP1 PUSH2 0x43F SWAP2 SWAP1 PUSH2 0x2FCA JUMP JUMPDEST PUSH2 0xFDE JUMP JUMPDEST PUSH1 0x40 MLOAD PUSH2 0x451 SWAP2 SWAP1 PUSH2 0x25C9 JUMP JUMPDEST PUSH1 0x40 MLOAD DUP1 SWAP2 SUB SWAP1 RETURN JUMPDEST PUSH2 0x474 PUSH1 0x4 DUP1 CALLDATASIZE SUB DUP2 ADD SWAP1 PUSH2 0x46F SWAP2 SWAP1 PUSH2 0x300A JUMP JUMPDEST PUSH2 0x1072 JUMP JUMPDEST STOP JUMPDEST CALLVALUE DUP1 ISZERO PUSH2 0x482 JUMPI PUSH1 0x0 DUP1 REVERT JUMPDEST POP PUSH2 0x49D PUSH1 0x4 DUP1 CALLDATASIZE SUB DUP2 ADD SWAP1 PUSH2 0x498 SWAP2 SWAP1 PUSH2 0x3082 JUMP JUMPDEST PUSH2 0x129C JUMP JUMPDEST STOP JUMPDEST CALLVALUE DUP1 ISZERO PUSH2 0x4AB JUMPI PUSH1 0x0 DUP1 REVERT JUMPDEST POP PUSH2 0x4C6 PUSH1 0x4 DUP1 CALLDATASIZE SUB DUP2 ADD SWAP1 PUSH2 0x4C1 SWAP2 SWAP1 PUSH2 0x3119 JUMP JUMPDEST PUSH2 0x1344 JUMP JUMPDEST STOP JUMPDEST PUSH1 0x0 DUP1 PUSH1 0x0 DUP4 DUP2 MSTORE PUSH1 0x20 ADD SWAP1 DUP2 MSTORE PUSH1 0x20 ADD PUSH1 0x0 KECCAK256 PUSH1 0x0 DUP5 PUSH20 0xFFFFFFFFFFFFFFFFFFFFFFFFFFFFFFFFFFFFFFFF AND PUSH20 0xFFFFFFFFFFFFFFFFFFFFFFFFFFFFFFFFFFFFFFFF AND DUP2 MSTORE PUSH1 0x20 ADD SWAP1 DUP2 MSTORE PUSH1 0x20 ADD PUSH1 0x0 KECCAK256 SLOAD SWAP1 POP SWAP3 SWAP2 POP POP JUMP JUMPDEST PUSH1 0x0 PUSH32 0xD9B67A2600000000000000000000000000000000000000000000000000000000 PUSH28 0xFFFFFFFFFFFFFFFFFFFFFFFFFFFFFFFFFFFFFFFFFFFFFFFFFFFFFFFF NOT AND DUP3 PUSH28 0xFFFFFFFFFFFFFFFFFFFFFFFFFFFFFFFFFFFFFFFFFFFFFFFFFFFFFFFF NOT AND EQ DUP1 PUSH2 0x5ED JUMPI POP PUSH32 0xE89341C00000000000000000000000000000000000000000000000000000000 PUSH28 0xFFFFFFFFFFFFFFFFFFFFFFFFFFFFFFFFFFFFFFFFFFFFFFFFFFFFFFFF NOT AND DUP3 PUSH28 0xFFFFFFFFFFFFFFFFFFFFFFFFFFFFFFFFFFFFFFFFFFFFFFFFFFFFFFFF NOT AND EQ JUMPDEST DUP1 PUSH2 0x5FD JUMPI POP PUSH2 0x5FC DUP3 PUSH2 0x13CA JUMP JUMPDEST JUMPDEST SWAP1 POP SWAP2 SWAP1 POP JUMP JUMPDEST PUSH2 0x60C PUSH2 0x1434 JUMP JUMPDEST PUSH2 0x615 DUP2 PUSH2 0x14BB JUMP JUMPDEST POP JUMP JUMPDEST PUSH1 0x60 PUSH1 0x2 DUP1 SLOAD PUSH2 0x627 SWAP1 PUSH2 0x3175 JUMP JUMPDEST DUP1 PUSH1 0x1F ADD PUSH1 0x20 DUP1 SWAP2 DIV MUL PUSH1 0x20 ADD PUSH1 0x40 MLOAD SWAP1 DUP2 ADD PUSH1 0x40 MSTORE DUP1 SWAP3 SWAP2 SWAP1 DUP2 DUP2 MSTORE PUSH1 0x20 ADD DUP3 DUP1 SLOAD PUSH2 0x653 SWAP1 PUSH2 0x3175 JUMP JUMPDEST DUP1 ISZERO PUSH2 0x6A0 JUMPI DUP1 PUSH1 0x1F LT PUSH2 0x675 JUMPI PUSH2 0x100 DUP1 DUP4 SLOAD DIV MUL DUP4 MSTORE SWAP2 PUSH1 0x20 ADD SWAP2 PUSH2 0x6A0 JUMP JUMPDEST DUP3 ADD SWAP2 SWAP1 PUSH1 0x0 MSTORE PUSH1 0x20 PUSH1 0x0 KECCAK256 SWAP1 JUMPDEST DUP2 SLOAD DUP2 MSTORE SWAP1 PUSH1 0x1 ADD SWAP1 PUSH1 0x20 ADD DUP1 DUP4 GT PUSH2 0x683 JUMPI DUP3 SWAP1 SUB PUSH1 0x1F AND DUP3 ADD SWAP2 JUMPDEST POP POP POP POP POP SWAP1 POP SWAP2 SWAP1 POP JUMP JUMPDEST PUSH1 0x0 PUSH1 0x5 SLOAD SWAP1 POP SWAP1 JUMP JUMPDEST PUSH2 0x6BE PUSH2 0x1434 JUMP JUMPDEST PUSH2 0x6CA DUP5 DUP5 DUP5 DUP5 PUSH2 0x14CE JUMP JUMPDEST POP POP POP POP JUMP JUMPDEST PUSH1 0x0 PUSH2 0x6DA PUSH2 0x1554 JUMP JUMPDEST SWAP1 POP DUP1 PUSH20 0xFFFFFFFFFFFFFFFFFFFFFFFFFFFFFFFFFFFFFFFF AND DUP7 PUSH20 0xFFFFFFFFFFFFFFFFFFFFFFFFFFFFFFFFFFFFFFFF AND EQ ISZERO DUP1 ISZERO PUSH2 0x71F JUMPI POP PUSH2 0x71D DUP7 DUP3 PUSH2 0xFDE JUMP JUMPDEST ISZERO JUMPDEST ISZERO PUSH2 0x763 JUMPI DUP1 DUP7 PUSH1 0x40 MLOAD PUSH32 0xE237D92200000000000000000000000000000000000000000000000000000000 DUP2 MSTORE PUSH1 0x4 ADD PUSH2 0x75A SWAP3 SWAP2 SWAP1 PUSH2 0x31A6 JUMP JUMPDEST PUSH1 0x40 MLOAD DUP1 SWAP2 SUB SWAP1 REVERT JUMPDEST PUSH2 0x770 DUP7 DUP7 DUP7 DUP7 DUP7 PUSH2 0x155C JUMP JUMPDEST POP POP POP POP POP POP JUMP JUMPDEST PUSH1 0x60 DUP2 MLOAD DUP4 MLOAD EQ PUSH2 0x7C4 JUMPI DUP2 MLOAD DUP4 MLOAD PUSH1 0x40 MLOAD PUSH32 0x5B05999100000000000000000000000000000000000000000000000000000000 DUP2 MSTORE PUSH1 0x4 ADD PUSH2 0x7BB SWAP3 SWAP2 SWAP1 PUSH2 0x31CF JUMP JUMPDEST PUSH1 0x40 MLOAD DUP1 SWAP2 SUB SWAP1 REVERT JUMPDEST PUSH1 0x0 DUP4 MLOAD PUSH8 0xFFFFFFFFFFFFFFFF DUP2 GT ISZERO PUSH2 0x7E1 JUMPI PUSH2 0x7E0 PUSH2 0x25FF JUMP JUMPDEST JUMPDEST PUSH1 0x40 MLOAD SWAP1 DUP1 DUP3 MSTORE DUP1 PUSH1 0x20 MUL PUSH1 0x20 ADD DUP3 ADD PUSH1 0x40 MSTORE DUP1 ISZERO PUSH2 0x80F JUMPI DUP2 PUSH1 0x20 ADD PUSH1 0x20 DUP3 MUL DUP1 CALLDATASIZE DUP4 CALLDATACOPY DUP1 DUP3 ADD SWAP2 POP POP SWAP1 POP JUMPDEST POP SWAP1 POP PUSH1 0x0 JUMPDEST DUP5 MLOAD DUP2 LT ISZERO PUSH2 0x87C JUMPI PUSH2 0x84C PUSH2 0x834 DUP3 DUP8 PUSH2 0x1654 SWAP1 SWAP2 SWAP1 PUSH4 0xFFFFFFFF AND JUMP JUMPDEST PUSH2 0x847 DUP4 DUP8 PUSH2 0x1668 SWAP1 SWAP2 SWAP1 PUSH4 0xFFFFFFFF AND JUMP JUMPDEST PUSH2 0x4C8 JUMP JUMPDEST DUP3 DUP3 DUP2 MLOAD DUP2 LT PUSH2 0x85F JUMPI PUSH2 0x85E PUSH2 0x31F8 JUMP JUMPDEST JUMPDEST PUSH1 0x20 MUL PUSH1 0x20 ADD ADD DUP2 DUP2 MSTORE POP POP DUP1 PUSH2 0x875 SWAP1 PUSH2 0x3256 JUMP JUMPDEST SWAP1 POP PUSH2 0x815 JUMP JUMPDEST POP DUP1 SWAP2 POP POP SWAP3 SWAP2 POP POP JUMP JUMPDEST PUSH1 0x0 DUP1 PUSH2 0x893 DUP4 PUSH2 0xFC1 JUMP JUMPDEST GT SWAP1 POP SWAP2 SWAP1 POP JUMP JUMPDEST PUSH2 0x8A3 PUSH2 0x1434 JUMP JUMPDEST PUSH2 0x8AD PUSH1 0x0 PUSH2 0x167C JUMP JUMPDEST JUMP JUMPDEST DUP4 PUSH8 0xFFFFFFFFFFFFFFFF AND PUSH1 0x6 DUP4 PUSH1 0x40 MLOAD PUSH2 0x8CA SWAP2 SWAP1 PUSH2 0x32DA JUMP JUMPDEST SWAP1 DUP2 MSTORE PUSH1 0x20 ADD PUSH1 0x40 MLOAD DUP1 SWAP2 SUB SWAP1 KECCAK256 PUSH1 0x2 ADD DUP1 SLOAD SWAP1 POP LT ISZERO PUSH2 0xA95 JUMPI PUSH1 0x0 JUMPDEST PUSH1 0x6 PUSH1 0x40 MLOAD PUSH2 0x8F6 SWAP1 PUSH2 0x333D JUMP JUMPDEST SWAP1 DUP2 MSTORE PUSH1 0x20 ADD PUSH1 0x40 MLOAD DUP1 SWAP2 SUB SWAP1 KECCAK256 PUSH1 0x2 ADD DUP1 SLOAD SWAP1 POP DUP2 PUSH8 0xFFFFFFFFFFFFFFFF AND LT ISZERO PUSH2 0x9B9 JUMPI PUSH2 0x9A6 PUSH1 0x6 DUP5 PUSH1 0x40 MLOAD PUSH2 0x92F SWAP2 SWAP1 PUSH2 0x32DA JUMP JUMPDEST SWAP1 DUP2 MSTORE PUSH1 0x20 ADD PUSH1 0x40 MLOAD DUP1 SWAP2 SUB SWAP1 KECCAK256 PUSH1 0x2 ADD DUP3 PUSH8 0xFFFFFFFFFFFFFFFF AND DUP2 SLOAD DUP2 LT PUSH2 0x95C JUMPI PUSH2 0x95B PUSH2 0x31F8 JUMP JUMPDEST JUMPDEST SWAP1 PUSH1 0x0 MSTORE PUSH1 0x20 PUSH1 0x0 KECCAK256 ADD PUSH1 0x0 SWAP1 SLOAD SWAP1 PUSH2 0x100 EXP SWAP1 DIV PUSH20 0xFFFFFFFFFFFFFFFFFFFFFFFFFFFFFFFFFFFFFFFF AND PUSH1 0x1 DUP4 PUSH2 0x994 SWAP2 SWAP1 PUSH2 0x3352 JUMP JUMPDEST PUSH8 0xFFFFFFFFFFFFFFFF AND PUSH1 0x1 DUP6 PUSH2 0xD5C JUMP JUMPDEST DUP1 DUP1 PUSH2 0x9B1 SWAP1 PUSH2 0x338E JUMP JUMPDEST SWAP2 POP POP PUSH2 0x8E8 JUMP JUMPDEST POP PUSH1 0x0 PUSH1 0x40 MLOAD DUP1 PUSH1 0x80 ADD PUSH1 0x40 MSTORE DUP1 TIMESTAMP DUP2 MSTORE PUSH1 0x20 ADD DUP8 DUP2 MSTORE PUSH1 0x20 ADD DUP6 DUP2 MSTORE PUSH1 0x20 ADD PUSH1 0x1 DUP8 PUSH2 0x9E6 SWAP2 SWAP1 PUSH2 0x3352 JUMP JUMPDEST PUSH8 0xFFFFFFFFFFFFFFFF AND DUP2 MSTORE POP SWAP1 POP PUSH1 0x6 DUP4 PUSH1 0x40 MLOAD PUSH2 0xA05 SWAP2 SWAP1 PUSH2 0x32DA JUMP JUMPDEST SWAP1 DUP2 MSTORE PUSH1 0x20 ADD PUSH1 0x40 MLOAD DUP1 SWAP2 SUB SWAP1 KECCAK256 PUSH1 0x4 ADD DUP2 SWAP1 DUP1 PUSH1 0x1 DUP2 SLOAD ADD DUP1 DUP3 SSTORE DUP1 SWAP2 POP POP PUSH1 0x1 SWAP1 SUB SWAP1 PUSH1 0x0 MSTORE PUSH1 0x20 PUSH1 0x0 KECCAK256 SWAP1 PUSH1 0x4 MUL ADD PUSH1 0x0 SWAP1 SWAP2 SWAP1 SWAP2 SWAP1 SWAP2 POP PUSH1 0x0 DUP3 ADD MLOAD DUP2 PUSH1 0x0 ADD SSTORE PUSH1 0x20 DUP3 ADD MLOAD DUP2 PUSH1 0x1 ADD SSTORE PUSH1 0x40 DUP3 ADD MLOAD DUP2 PUSH1 0x2 ADD SSTORE PUSH1 0x60 DUP3 ADD MLOAD DUP2 PUSH1 0x3 ADD PUSH1 0x0 PUSH2 0x100 EXP DUP2 SLOAD DUP2 PUSH8 0xFFFFFFFFFFFFFFFF MUL NOT AND SWAP1 DUP4 PUSH8 0xFFFFFFFFFFFFFFFF AND MUL OR SWAP1 SSTORE POP POP POP POP PUSH2 0xD55 JUMP JUMPDEST PUSH1 0x0 DUP5 PUSH8 0xFFFFFFFFFFFFFFFF AND PUSH8 0xFFFFFFFFFFFFFFFF DUP2 GT ISZERO PUSH2 0xABB JUMPI PUSH2 0xABA PUSH2 0x25FF JUMP JUMPDEST JUMPDEST PUSH1 0x40 MLOAD SWAP1 DUP1 DUP3 MSTORE DUP1 PUSH1 0x20 MUL PUSH1 0x20 ADD DUP3 ADD PUSH1 0x40 MSTORE DUP1 ISZERO PUSH2 0xAE9 JUMPI DUP2 PUSH1 0x20 ADD PUSH1 0x20 DUP3 MUL DUP1 CALLDATASIZE DUP4 CALLDATACOPY DUP1 DUP3 ADD SWAP2 POP POP SWAP1 POP JUMPDEST POP SWAP1 POP PUSH1 0x0 JUMPDEST DUP6 PUSH8 0xFFFFFFFFFFFFFFFF AND DUP2 PUSH8 0xFFFFFFFFFFFFFFFF AND LT ISZERO PUSH2 0xC67 JUMPI PUSH2 0xB95 PUSH1 0x6 DUP6 PUSH1 0x40 MLOAD PUSH2 0xB1E SWAP2 SWAP1 PUSH2 0x32DA JUMP JUMPDEST SWAP1 DUP2 MSTORE PUSH1 0x20 ADD PUSH1 0x40 MLOAD DUP1 SWAP2 SUB SWAP1 KECCAK256 PUSH1 0x2 ADD DUP3 PUSH8 0xFFFFFFFFFFFFFFFF AND DUP2 SLOAD DUP2 LT PUSH2 0xB4B JUMPI PUSH2 0xB4A PUSH2 0x31F8 JUMP JUMPDEST JUMPDEST SWAP1 PUSH1 0x0 MSTORE PUSH1 0x20 PUSH1 0x0 KECCAK256 ADD PUSH1 0x0 SWAP1 SLOAD SWAP1 PUSH2 0x100 EXP SWAP1 DIV PUSH20 0xFFFFFFFFFFFFFFFFFFFFFFFFFFFFFFFFFFFFFFFF AND PUSH1 0x1 DUP4 PUSH2 0xB83 SWAP2 SWAP1 PUSH2 0x3352 JUMP JUMPDEST PUSH8 0xFFFFFFFFFFFFFFFF AND PUSH1 0x1 DUP7 PUSH2 0xD5C JUMP JUMPDEST PUSH1 0x6 DUP5 PUSH1 0x40 MLOAD PUSH2 0xBA5 SWAP2 SWAP1 PUSH2 0x32DA JUMP JUMPDEST SWAP1 DUP2 MSTORE PUSH1 0x20 ADD PUSH1 0x40 MLOAD DUP1 SWAP2 SUB SWAP1 KECCAK256 PUSH1 0x2 ADD DUP2 PUSH8 0xFFFFFFFFFFFFFFFF AND DUP2 SLOAD DUP2 LT PUSH2 0xBD2 JUMPI PUSH2 0xBD1 PUSH2 0x31F8 JUMP JUMPDEST JUMPDEST SWAP1 PUSH1 0x0 MSTORE PUSH1 0x20 PUSH1 0x0 KECCAK256 ADD PUSH1 0x0 SWAP1 SLOAD SWAP1 PUSH2 0x100 EXP SWAP1 DIV PUSH20 0xFFFFFFFFFFFFFFFFFFFFFFFFFFFFFFFFFFFFFFFF AND DUP3 DUP3 PUSH8 0xFFFFFFFFFFFFFFFF AND DUP2 MLOAD DUP2 LT PUSH2 0xC1A JUMPI PUSH2 0xC19 PUSH2 0x31F8 JUMP JUMPDEST JUMPDEST PUSH1 0x20 MUL PUSH1 0x20 ADD ADD SWAP1 PUSH20 0xFFFFFFFFFFFFFFFFFFFFFFFFFFFFFFFFFFFFFFFF AND SWAP1 DUP2 PUSH20 0xFFFFFFFFFFFFFFFFFFFFFFFFFFFFFFFFFFFFFFFF AND DUP2 MSTORE POP POP DUP1 DUP1 PUSH2 0xC5F SWAP1 PUSH2 0x338E JUMP JUMPDEST SWAP2 POP POP PUSH2 0xAEF JUMP JUMPDEST POP PUSH1 0x0 PUSH1 0x40 MLOAD DUP1 PUSH1 0x80 ADD PUSH1 0x40 MSTORE DUP1 TIMESTAMP DUP2 MSTORE PUSH1 0x20 ADD DUP8 PUSH8 0xFFFFFFFFFFFFFFFF AND DUP10 PUSH2 0xC91 SWAP2 SWAP1 PUSH2 0x33BE JUMP JUMPDEST DUP2 MSTORE PUSH1 0x20 ADD DUP7 DUP2 MSTORE PUSH1 0x20 ADD PUSH1 0x1 DUP9 PUSH2 0xCA9 SWAP2 SWAP1 PUSH2 0x3352 JUMP JUMPDEST PUSH8 0xFFFFFFFFFFFFFFFF AND DUP2 MSTORE POP SWAP1 POP PUSH1 0x6 DUP5 PUSH1 0x40 MLOAD PUSH2 0xCC8 SWAP2 SWAP1 PUSH2 0x32DA JUMP JUMPDEST SWAP1 DUP2 MSTORE PUSH1 0x20 ADD PUSH1 0x40 MLOAD DUP1 SWAP2 SUB SWAP1 KECCAK256 PUSH1 0x4 ADD DUP2 SWAP1 DUP1 PUSH1 0x1 DUP2 SLOAD ADD DUP1 DUP3 SSTORE DUP1 SWAP2 POP POP PUSH1 0x1 SWAP1 SUB SWAP1 PUSH1 0x0 MSTORE PUSH1 0x20 PUSH1 0x0 KECCAK256 SWAP1 PUSH1 0x4 MUL ADD PUSH1 0x0 SWAP1 SWAP2 SWAP1 SWAP2 SWAP1 SWAP2 POP PUSH1 0x0 DUP3 ADD MLOAD DUP2 PUSH1 0x0 ADD SSTORE PUSH1 0x20 DUP3 ADD MLOAD DUP2 PUSH1 0x1 ADD SSTORE PUSH1 0x40 DUP3 ADD MLOAD DUP2 PUSH1 0x2 ADD SSTORE PUSH1 0x60 DUP3 ADD MLOAD DUP2 PUSH1 0x3 ADD PUSH1 0x0 PUSH2 0x100 EXP DUP2 SLOAD DUP2 PUSH8 0xFFFFFFFFFFFFFFFF MUL NOT AND SWAP1 DUP4 PUSH8 0xFFFFFFFFFFFFFFFF AND MUL OR SWAP1 SSTORE POP POP POP POP POP JUMPDEST POP POP POP POP POP JUMP JUMPDEST PUSH2 0xD64 PUSH2 0x1434 JUMP JUMPDEST PUSH2 0xD70 DUP5 DUP5 DUP5 DUP5 PUSH2 0x1742 JUMP JUMPDEST POP POP POP POP JUMP JUMPDEST PUSH1 0x0 PUSH1 0x3 PUSH1 0x0 SWAP1 SLOAD SWAP1 PUSH2 0x100 EXP SWAP1 DIV PUSH20 0xFFFFFFFFFFFFFFFFFFFFFFFFFFFFFFFFFFFFFFFF AND SWAP1 POP SWAP1 JUMP JUMPDEST PUSH1 0x0 PUSH1 0x6 DUP3 PUSH1 0x40 MLOAD PUSH2 0xDB2 SWAP2 SWAP1 PUSH2 0x32DA JUMP JUMPDEST SWAP1 DUP2 MSTORE PUSH1 0x20 ADD PUSH1 0x40 MLOAD DUP1 SWAP2 SUB SWAP1 KECCAK256 PUSH1 0x0 ADD PUSH1 0x0 DUP5 PUSH20 0xFFFFFFFFFFFFFFFFFFFFFFFFFFFFFFFFFFFFFFFF AND PUSH20 0xFFFFFFFFFFFFFFFFFFFFFFFFFFFFFFFFFFFFFFFF AND DUP2 MSTORE PUSH1 0x20 ADD SWAP1 DUP2 MSTORE PUSH1 0x20 ADD PUSH1 0x0 KECCAK256 SLOAD SUB PUSH2 0xE89 JUMPI PUSH1 0x6 DUP2 PUSH1 0x40 MLOAD PUSH2 0xE16 SWAP2 SWAP1 PUSH2 0x32DA JUMP JUMPDEST SWAP1 DUP2 MSTORE PUSH1 0x20 ADD PUSH1 0x40 MLOAD DUP1 SWAP2 SUB SWAP1 KECCAK256 PUSH1 0x2 ADD DUP3 SWAP1 DUP1 PUSH1 0x1 DUP2 SLOAD ADD DUP1 DUP3 SSTORE DUP1 SWAP2 POP POP PUSH1 0x1 SWAP1 SUB SWAP1 PUSH1 0x0 MSTORE PUSH1 0x20 PUSH1 0x0 KECCAK256 ADD PUSH1 0x0 SWAP1 SWAP2 SWAP1 SWAP2 SWAP1 SWAP2 PUSH2 0x100 EXP DUP2 SLOAD DUP2 PUSH20 0xFFFFFFFFFFFFFFFFFFFFFFFFFFFFFFFFFFFFFFFF MUL NOT AND SWAP1 DUP4 PUSH20 0xFFFFFFFFFFFFFFFFFFFFFFFFFFFFFFFFFFFFFFFF AND MUL OR SWAP1 SSTORE POP JUMPDEST DUP3 PUSH1 0x6 PUSH1 0x40 MLOAD PUSH2 0xE98 SWAP1 PUSH2 0x333D JUMP JUMPDEST SWAP1 DUP2 MSTORE PUSH1 0x20 ADD PUSH1 0x40 MLOAD DUP1 SWAP2 SUB SWAP1 KECCAK256 PUSH1 0x0 ADD PUSH1 0x0 DUP5 PUSH20 0xFFFFFFFFFFFFFFFFFFFFFFFFFFFFFFFFFFFFFFFF AND PUSH20 0xFFFFFFFFFFFFFFFFFFFFFFFFFFFFFFFFFFFFFFFF AND DUP2 MSTORE PUSH1 0x20 ADD SWAP1 DUP2 MSTORE PUSH1 0x20 ADD PUSH1 0x0 KECCAK256 PUSH1 0x0 DUP3 DUP3 SLOAD PUSH2 0xEF5 SWAP2 SWAP1 PUSH2 0x33F2 JUMP JUMPDEST SWAP3 POP POP DUP2 SWAP1 SSTORE POP DUP2 PUSH20 0xFFFFFFFFFFFFFFFFFFFFFFFFFFFFFFFFFFFFFFFF AND PUSH32 0x40F839C1403EB49FA41AFDE447358E499B01B7C5AA7E51C628B52CBC5766CB48 PUSH1 0x6 PUSH1 0x40 MLOAD PUSH2 0xF42 SWAP1 PUSH2 0x333D JUMP JUMPDEST SWAP1 DUP2 MSTORE PUSH1 0x20 ADD PUSH1 0x40 MLOAD DUP1 SWAP2 SUB SWAP1 KECCAK256 PUSH1 0x0 ADD PUSH1 0x0 DUP6 PUSH20 0xFFFFFFFFFFFFFFFFFFFFFFFFFFFFFFFFFFFFFFFF AND PUSH20 0xFFFFFFFFFFFFFFFFFFFFFFFFFFFFFFFFFFFFFFFF AND DUP2 MSTORE PUSH1 0x20 ADD SWAP1 DUP2 MSTORE PUSH1 0x20 ADD PUSH1 0x0 KECCAK256 SLOAD PUSH1 0x40 MLOAD PUSH2 0xF9E SWAP2 SWAP1 PUSH2 0x250E JUMP JUMPDEST PUSH1 0x40 MLOAD DUP1 SWAP2 SUB SWAP1 LOG2 POP POP POP JUMP JUMPDEST PUSH2 0xFBD PUSH2 0xFB6 PUSH2 0x1554 JUMP JUMPDEST DUP4 DUP4 PUSH2 0x17DB JUMP JUMPDEST POP POP JUMP JUMPDEST PUSH1 0x0 PUSH1 0x4 PUSH1 0x0 DUP4 DUP2 MSTORE PUSH1 0x20 ADD SWAP1 DUP2 MSTORE PUSH1 0x20 ADD PUSH1 0x0 KECCAK256 SLOAD SWAP1 POP SWAP2 SWAP1 POP JUMP JUMPDEST PUSH1 0x0 PUSH1 0x1 PUSH1 0x0 DUP5 PUSH20 0xFFFFFFFFFFFFFFFFFFFFFFFFFFFFFFFFFFFFFFFF AND PUSH20 0xFFFFFFFFFFFFFFFFFFFFFFFFFFFFFFFFFFFFFFFF AND DUP2 MSTORE PUSH1 0x20 ADD SWAP1 DUP2 MSTORE PUSH1 0x20 ADD PUSH1 0x0 KECCAK256 PUSH1 0x0 DUP4 PUSH20 0xFFFFFFFFFFFFFFFFFFFFFFFFFFFFFFFFFFFFFFFF AND PUSH20 0xFFFFFFFFFFFFFFFFFFFFFFFFFFFFFFFFFFFFFFFF AND DUP2 MSTORE PUSH1 0x20 ADD SWAP1 DUP2 MSTORE PUSH1 0x20 ADD PUSH1 0x0 KECCAK256 PUSH1 0x0 SWAP1 SLOAD SWAP1 PUSH2 0x100 EXP SWAP1 DIV PUSH1 0xFF AND SWAP1 POP SWAP3 SWAP2 POP POP JUMP JUMPDEST PUSH1 0x0 PUSH1 0x6 DUP4 PUSH1 0x40 MLOAD PUSH2 0x1084 SWAP2 SWAP1 PUSH2 0x32DA JUMP JUMPDEST SWAP1 DUP2 MSTORE PUSH1 0x20 ADD PUSH1 0x40 MLOAD DUP1 SWAP2 SUB SWAP1 KECCAK256 PUSH1 0x4 ADD DUP1 SLOAD SWAP1 POP SWAP1 POP PUSH1 0x0 PUSH1 0x6 DUP5 PUSH1 0x40 MLOAD PUSH2 0x10AD SWAP2 SWAP1 PUSH2 0x32DA JUMP JUMPDEST SWAP1 DUP2 MSTORE PUSH1 0x20 ADD PUSH1 0x40 MLOAD DUP1 SWAP2 SUB SWAP1 KECCAK256 PUSH1 0x4 ADD PUSH1 0x1 DUP4 PUSH2 0x10CB SWAP2 SWAP1 PUSH2 0x33BE JUMP JUMPDEST DUP2 SLOAD DUP2 LT PUSH2 0x10DC JUMPI PUSH2 0x10DB PUSH2 0x31F8 JUMP JUMPDEST JUMPDEST SWAP1 PUSH1 0x0 MSTORE PUSH1 0x20 PUSH1 0x0 KECCAK256 SWAP1 PUSH1 0x4 MUL ADD PUSH1 0x3 ADD PUSH1 0x0 SWAP1 SLOAD SWAP1 PUSH2 0x100 EXP SWAP1 DIV PUSH8 0xFFFFFFFFFFFFFFFF AND PUSH8 0xFFFFFFFFFFFFFFFF AND SWAP1 POP PUSH1 0x1 PUSH1 0x6 DUP6 PUSH1 0x40 MLOAD PUSH2 0x1120 SWAP2 SWAP1 PUSH2 0x32DA JUMP JUMPDEST SWAP1 DUP2 MSTORE PUSH1 0x20 ADD PUSH1 0x40 MLOAD DUP1 SWAP2 SUB SWAP1 KECCAK256 PUSH1 0x4 ADD PUSH1 0x1 DUP5 PUSH2 0x113E SWAP2 SWAP1 PUSH2 0x33BE JUMP JUMPDEST DUP2 SLOAD DUP2 LT PUSH2 0x114F JUMPI PUSH2 0x114E PUSH2 0x31F8 JUMP JUMPDEST JUMPDEST SWAP1 PUSH1 0x0 MSTORE PUSH1 0x20 PUSH1 0x0 KECCAK256 SWAP1 PUSH1 0x4 MUL ADD PUSH1 0x3 ADD PUSH1 0x0 DUP3 DUP3 DUP3 SWAP1 SLOAD SWAP1 PUSH2 0x100 EXP SWAP1 DIV PUSH8 0xFFFFFFFFFFFFFFFF AND PUSH2 0x1182 SWAP2 SWAP1 PUSH2 0x3352 JUMP JUMPDEST SWAP3 POP PUSH2 0x100 EXP DUP2 SLOAD DUP2 PUSH8 0xFFFFFFFFFFFFFFFF MUL NOT AND SWAP1 DUP4 PUSH8 0xFFFFFFFFFFFFFFFF AND MUL OR SWAP1 SSTORE POP PUSH1 0x6 DUP5 PUSH1 0x40 MLOAD PUSH2 0x11B8 SWAP2 SWAP1 PUSH2 0x32DA JUMP JUMPDEST SWAP1 DUP2 MSTORE PUSH1 0x20 ADD PUSH1 0x40 MLOAD DUP1 SWAP2 SUB SWAP1 KECCAK256 PUSH1 0x4 ADD PUSH1 0x1 DUP4 PUSH2 0x11D6 SWAP2 SWAP1 PUSH2 0x33BE JUMP JUMPDEST DUP2 SLOAD DUP2 LT PUSH2 0x11E7 JUMPI PUSH2 0x11E6 PUSH2 0x31F8 JUMP JUMPDEST JUMPDEST SWAP1 PUSH1 0x0 MSTORE PUSH1 0x20 PUSH1 0x0 KECCAK256 SWAP1 PUSH1 0x4 MUL ADD PUSH1 0x2 ADD SLOAD CALLVALUE LT ISZERO PUSH2 0x123B JUMPI PUSH1 0x40 MLOAD PUSH32 0x8C379A000000000000000000000000000000000000000000000000000000000 DUP2 MSTORE PUSH1 0x4 ADD PUSH2 0x1232 SWAP1 PUSH2 0x3472 JUMP JUMPDEST PUSH1 0x40 MLOAD DUP1 SWAP2 SUB SWAP1 REVERT JUMPDEST PUSH2 0x1248 CALLER DUP3 PUSH1 0x1 DUP7 PUSH2 0x1742 JUMP JUMPDEST PUSH2 0x1250 PUSH2 0xD76 JUMP JUMPDEST PUSH20 0xFFFFFFFFFFFFFFFFFFFFFFFFFFFFFFFFFFFFFFFF AND PUSH2 0x8FC CALLVALUE SWAP1 DUP2 ISZERO MUL SWAP1 PUSH1 0x40 MLOAD PUSH1 0x0 PUSH1 0x40 MLOAD DUP1 DUP4 SUB DUP2 DUP6 DUP9 DUP9 CALL SWAP4 POP POP POP POP ISZERO DUP1 ISZERO PUSH2 0x1295 JUMPI RETURNDATASIZE PUSH1 0x0 DUP1 RETURNDATACOPY RETURNDATASIZE PUSH1 0x0 REVERT JUMPDEST POP POP POP POP POP JUMP JUMPDEST PUSH1 0x0 PUSH2 0x12A6 PUSH2 0x1554 JUMP JUMPDEST SWAP1 POP DUP1 PUSH20 0xFFFFFFFFFFFFFFFFFFFFFFFFFFFFFFFFFFFFFFFF AND DUP7 PUSH20 0xFFFFFFFFFFFFFFFFFFFFFFFFFFFFFFFFFFFFFFFF AND EQ ISZERO DUP1 ISZERO PUSH2 0x12EB JUMPI POP PUSH2 0x12E9 DUP7 DUP3 PUSH2 0xFDE JUMP JUMPDEST ISZERO JUMPDEST ISZERO PUSH2 0x132F JUMPI DUP1 DUP7 PUSH1 0x40 MLOAD PUSH32 0xE237D92200000000000000000000000000000000000000000000000000000000 DUP2 MSTORE PUSH1 0x4 ADD PUSH2 0x1326 SWAP3 SWAP2 SWAP1 PUSH2 0x31A6 JUMP JUMPDEST PUSH1 0x40 MLOAD DUP1 SWAP2 SUB SWAP1 REVERT JUMPDEST PUSH2 0x133C DUP7 DUP7 DUP7 DUP7 DUP7 PUSH2 0x194B JUMP JUMPDEST POP POP POP POP POP POP JUMP JUMPDEST PUSH2 0x134C PUSH2 0x1434 JUMP JUMPDEST PUSH1 0x0 PUSH20 0xFFFFFFFFFFFFFFFFFFFFFFFFFFFFFFFFFFFFFFFF AND DUP2 PUSH20 0xFFFFFFFFFFFFFFFFFFFFFFFFFFFFFFFFFFFFFFFF AND SUB PUSH2 0x13BE JUMPI PUSH1 0x0 PUSH1 0x40 MLOAD PUSH32 0x1E4FBDF700000000000000000000000000000000000000000000000000000000 DUP2 MSTORE PUSH1 0x4 ADD PUSH2 0x13B5 SWAP2 SWAP1 PUSH2 0x2ED4 JUMP JUMPDEST PUSH1 0x40 MLOAD DUP1 SWAP2 SUB SWAP1 REVERT JUMPDEST PUSH2 0x13C7 DUP2 PUSH2 0x167C JUMP JUMPDEST POP JUMP JUMPDEST PUSH1 0x0 PUSH32 0x1FFC9A700000000000000000000000000000000000000000000000000000000 PUSH28 0xFFFFFFFFFFFFFFFFFFFFFFFFFFFFFFFFFFFFFFFFFFFFFFFFFFFFFFFF NOT AND DUP3 PUSH28 0xFFFFFFFFFFFFFFFFFFFFFFFFFFFFFFFFFFFFFFFFFFFFFFFFFFFFFFFF NOT AND EQ SWAP1 POP SWAP2 SWAP1 POP JUMP JUMPDEST PUSH2 0x143C PUSH2 0x1554 JUMP JUMPDEST PUSH20 0xFFFFFFFFFFFFFFFFFFFFFFFFFFFFFFFFFFFFFFFF AND PUSH2 0x145A PUSH2 0xD76 JUMP JUMPDEST PUSH20 0xFFFFFFFFFFFFFFFFFFFFFFFFFFFFFFFFFFFFFFFF AND EQ PUSH2 0x14B9 JUMPI PUSH2 0x147D PUSH2 0x1554 JUMP JUMPDEST PUSH1 0x40 MLOAD PUSH32 0x118CDAA700000000000000000000000000000000000000000000000000000000 DUP2 MSTORE PUSH1 0x4 ADD PUSH2 0x14B0 SWAP2 SWAP1 PUSH2 0x2ED4 JUMP JUMPDEST PUSH1 0x40 MLOAD DUP1 SWAP2 SUB SWAP1 REVERT JUMPDEST JUMP JUMPDEST DUP1 PUSH1 0x2 SWAP1 DUP2 PUSH2 0x14CA SWAP2 SWAP1 PUSH2 0x363E JUMP JUMPDEST POP POP JUMP JUMPDEST PUSH1 0x0 PUSH20 0xFFFFFFFFFFFFFFFFFFFFFFFFFFFFFFFFFFFFFFFF AND DUP5 PUSH20 0xFFFFFFFFFFFFFFFFFFFFFFFFFFFFFFFFFFFFFFFF AND SUB PUSH2 0x1540 JUMPI PUSH1 0x0 PUSH1 0x40 MLOAD PUSH32 0x57F447CE00000000000000000000000000000000000000000000000000000000 DUP2 MSTORE PUSH1 0x4 ADD PUSH2 0x1537 SWAP2 SWAP1 PUSH2 0x2ED4 JUMP JUMPDEST PUSH1 0x40 MLOAD DUP1 SWAP2 SUB SWAP1 REVERT JUMPDEST PUSH2 0x154E PUSH1 0x0 DUP6 DUP6 DUP6 DUP6 PUSH2 0x1A56 JUMP JUMPDEST POP POP POP POP JUMP JUMPDEST PUSH1 0x0 CALLER SWAP1 POP SWAP1 JUMP JUMPDEST PUSH1 0x0 PUSH20 0xFFFFFFFFFFFFFFFFFFFFFFFFFFFFFFFFFFFFFFFF AND DUP5 PUSH20 0xFFFFFFFFFFFFFFFFFFFFFFFFFFFFFFFFFFFFFFFF AND SUB PUSH2 0x15CE JUMPI PUSH1 0x0 PUSH1 0x40 MLOAD PUSH32 0x57F447CE00000000000000000000000000000000000000000000000000000000 DUP2 MSTORE PUSH1 0x4 ADD PUSH2 0x15C5 SWAP2 SWAP1 PUSH2 0x2ED4 JUMP JUMPDEST PUSH1 0x40 MLOAD DUP1 SWAP2 SUB SWAP1 REVERT JUMPDEST PUSH1 0x0 PUSH20 0xFFFFFFFFFFFFFFFFFFFFFFFFFFFFFFFFFFFFFFFF AND DUP6 PUSH20 0xFFFFFFFFFFFFFFFFFFFFFFFFFFFFFFFFFFFFFFFF AND SUB PUSH2 0x1640 JUMPI PUSH1 0x0 PUSH1 0x40 MLOAD PUSH32 0x1A8351400000000000000000000000000000000000000000000000000000000 DUP2 MSTORE PUSH1 0x4 ADD PUSH2 0x1637 SWAP2 SWAP1 PUSH2 0x2ED4 JUMP JUMPDEST PUSH1 0x40 MLOAD DUP1 SWAP2 SUB SWAP1 REVERT JUMPDEST PUSH2 0x164D DUP6 DUP6 DUP6 DUP6 DUP6 PUSH2 0x1A56 JUMP JUMPDEST POP POP POP POP POP JUMP JUMPDEST PUSH1 0x0 PUSH1 0x20 DUP3 MUL PUSH1 0x20 DUP5 ADD ADD MLOAD SWAP1 POP SWAP3 SWAP2 POP POP JUMP JUMPDEST PUSH1 0x0 PUSH1 0x20 DUP3 MUL PUSH1 0x20 DUP5 ADD ADD MLOAD SWAP1 POP SWAP3 SWAP2 POP POP JUMP JUMPDEST PUSH1 0x0 PUSH1 0x3 PUSH1 0x0 SWAP1 SLOAD SWAP1 PUSH2 0x100 EXP SWAP1 DIV PUSH20 0xFFFFFFFFFFFFFFFFFFFFFFFFFFFFFFFFFFFFFFFF AND SWAP1 POP DUP2 PUSH1 0x3 PUSH1 0x0 PUSH2 0x100 EXP DUP2 SLOAD DUP2 PUSH20 0xFFFFFFFFFFFFFFFFFFFFFFFFFFFFFFFFFFFFFFFF MUL NOT AND SWAP1 DUP4 PUSH20 0xFFFFFFFFFFFFFFFFFFFFFFFFFFFFFFFFFFFFFFFF AND MUL OR SWAP1 SSTORE POP DUP2 PUSH20 0xFFFFFFFFFFFFFFFFFFFFFFFFFFFFFFFFFFFFFFFF AND DUP2 PUSH20 0xFFFFFFFFFFFFFFFFFFFFFFFFFFFFFFFFFFFFFFFF AND PUSH32 0x8BE0079C531659141344CD1FD0A4F28419497F9722A3DAAFE3B4186F6B6457E0 PUSH1 0x40 MLOAD PUSH1 0x40 MLOAD DUP1 SWAP2 SUB SWAP1 LOG3 POP POP JUMP JUMPDEST PUSH1 0x0 PUSH20 0xFFFFFFFFFFFFFFFFFFFFFFFFFFFFFFFFFFFFFFFF AND DUP5 PUSH20 0xFFFFFFFFFFFFFFFFFFFFFFFFFFFFFFFFFFFFFFFF AND SUB PUSH2 0x17B4 JUMPI PUSH1 0x0 PUSH1 0x40 MLOAD PUSH32 0x57F447CE00000000000000000000000000000000000000000000000000000000 DUP2 MSTORE PUSH1 0x4 ADD PUSH2 0x17AB SWAP2 SWAP1 PUSH2 0x2ED4 JUMP JUMPDEST PUSH1 0x40 MLOAD DUP1 SWAP2 SUB SWAP1 REVERT JUMPDEST PUSH1 0x0 DUP1 PUSH2 0x17C1 DUP6 DUP6 PUSH2 0x1B08 JUMP JUMPDEST SWAP2 POP SWAP2 POP PUSH2 0x17D3 PUSH1 0x0 DUP8 DUP5 DUP5 DUP8 PUSH2 0x1A56 JUMP JUMPDEST POP POP POP POP POP POP JUMP JUMPDEST PUSH1 0x0 PUSH20 0xFFFFFFFFFFFFFFFFFFFFFFFFFFFFFFFFFFFFFFFF AND DUP3 PUSH20 0xFFFFFFFFFFFFFFFFFFFFFFFFFFFFFFFFFFFFFFFF AND SUB PUSH2 0x184D JUMPI PUSH1 0x0 PUSH1 0x40 MLOAD PUSH32 0xCED3E10000000000000000000000000000000000000000000000000000000000 DUP2 MSTORE PUSH1 0x4 ADD PUSH2 0x1844 SWAP2 SWAP1 PUSH2 0x2ED4 JUMP JUMPDEST PUSH1 0x40 MLOAD DUP1 SWAP2 SUB SWAP1 REVERT JUMPDEST DUP1 PUSH1 0x1 PUSH1 0x0 DUP6 PUSH20 0xFFFFFFFFFFFFFFFFFFFFFFFFFFFFFFFFFFFFFFFF AND PUSH20 0xFFFFFFFFFFFFFFFFFFFFFFFFFFFFFFFFFFFFFFFF AND DUP2 MSTORE PUSH1 0x20 ADD SWAP1 DUP2 MSTORE PUSH1 0x20 ADD PUSH1 0x0 KECCAK256 PUSH1 0x0 DUP5 PUSH20 0xFFFFFFFFFFFFFFFFFFFFFFFFFFFFFFFFFFFFFFFF AND PUSH20 0xFFFFFFFFFFFFFFFFFFFFFFFFFFFFFFFFFFFFFFFF AND DUP2 MSTORE PUSH1 0x20 ADD SWAP1 DUP2 MSTORE PUSH1 0x20 ADD PUSH1 0x0 KECCAK256 PUSH1 0x0 PUSH2 0x100 EXP DUP2 SLOAD DUP2 PUSH1 0xFF MUL NOT AND SWAP1 DUP4 ISZERO ISZERO MUL OR SWAP1 SSTORE POP DUP2 PUSH20 0xFFFFFFFFFFFFFFFFFFFFFFFFFFFFFFFFFFFFFFFF AND DUP4 PUSH20 0xFFFFFFFFFFFFFFFFFFFFFFFFFFFFFFFFFFFFFFFF AND PUSH32 0x17307EAB39AB6107E8899845AD3D59BD9653F200F220920489CA2B5937696C31 DUP4 PUSH1 0x40 MLOAD PUSH2 0x193E SWAP2 SWAP1 PUSH2 0x25C9 JUMP JUMPDEST PUSH1 0x40 MLOAD DUP1 SWAP2 SUB SWAP1 LOG3 POP POP POP JUMP JUMPDEST PUSH1 0x0 PUSH20 0xFFFFFFFFFFFFFFFFFFFFFFFFFFFFFFFFFFFFFFFF AND DUP5 PUSH20 0xFFFFFFFFFFFFFFFFFFFFFFFFFFFFFFFFFFFFFFFF AND SUB PUSH2 0x19BD JUMPI PUSH1 0x0 PUSH1 0x40 MLOAD PUSH32 0x57F447CE00000000000000000000000000000000000000000000000000000000 DUP2 MSTORE PUSH1 0x4 ADD PUSH2 0x19B4 SWAP2 SWAP1 PUSH2 0x2ED4 JUMP JUMPDEST PUSH1 0x40 MLOAD DUP1 SWAP2 SUB SWAP1 REVERT JUMPDEST PUSH1 0x0 PUSH20 0xFFFFFFFFFFFFFFFFFFFFFFFFFFFFFFFFFFFFFFFF AND DUP6 PUSH20 0xFFFFFFFFFFFFFFFFFFFFFFFFFFFFFFFFFFFFFFFF AND SUB PUSH2 0x1A2F JUMPI PUSH1 0x0 PUSH1 0x40 MLOAD PUSH32 0x1A8351400000000000000000000000000000000000000000000000000000000 DUP2 MSTORE PUSH1 0x4 ADD PUSH2 0x1A26 SWAP2 SWAP1 PUSH2 0x2ED4 JUMP JUMPDEST PUSH1 0x40 MLOAD DUP1 SWAP2 SUB SWAP1 REVERT JUMPDEST PUSH1 0x0 DUP1 PUSH2 0x1A3C DUP6 DUP6 PUSH2 0x1B08 JUMP JUMPDEST SWAP2 POP SWAP2 POP PUSH2 0x1A4D DUP8 DUP8 DUP5 DUP5 DUP8 PUSH2 0x1A56 JUMP JUMPDEST POP POP POP POP POP POP POP JUMP JUMPDEST PUSH2 0x1A62 DUP6 DUP6 DUP6 DUP6 PUSH2 0x1B38 JUMP JUMPDEST PUSH1 0x0 PUSH20 0xFFFFFFFFFFFFFFFFFFFFFFFFFFFFFFFFFFFFFFFF AND DUP5 PUSH20 0xFFFFFFFFFFFFFFFFFFFFFFFFFFFFFFFFFFFFFFFF AND EQ PUSH2 0x1B01 JUMPI PUSH1 0x0 PUSH2 0x1AA0 PUSH2 0x1554 JUMP JUMPDEST SWAP1 POP PUSH1 0x1 DUP5 MLOAD SUB PUSH2 0x1AF0 JUMPI PUSH1 0x0 PUSH2 0x1AC1 PUSH1 0x0 DUP7 PUSH2 0x1668 SWAP1 SWAP2 SWAP1 PUSH4 0xFFFFFFFF AND JUMP JUMPDEST SWAP1 POP PUSH1 0x0 PUSH2 0x1AD9 PUSH1 0x0 DUP7 PUSH2 0x1668 SWAP1 SWAP2 SWAP1 PUSH4 0xFFFFFFFF AND JUMP JUMPDEST SWAP1 POP PUSH2 0x1AE9 DUP4 DUP10 DUP10 DUP6 DUP6 DUP10 PUSH2 0x1B4A JUMP JUMPDEST POP POP PUSH2 0x1AFF JUMP JUMPDEST PUSH2 0x1AFE DUP2 DUP8 DUP8 DUP8 DUP8 DUP8 PUSH2 0x1CFE JUMP JUMPDEST JUMPDEST POP JUMPDEST POP POP POP POP POP JUMP JUMPDEST PUSH1 0x60 DUP1 PUSH1 0x40 MLOAD SWAP2 POP PUSH1 0x1 DUP3 MSTORE DUP4 PUSH1 0x20 DUP4 ADD MSTORE PUSH1 0x40 DUP3 ADD SWAP1 POP PUSH1 0x1 DUP2 MSTORE DUP3 PUSH1 0x20 DUP3 ADD MSTORE PUSH1 0x40 DUP2 ADD PUSH1 0x40 MSTORE SWAP3 POP SWAP3 SWAP1 POP JUMP JUMPDEST PUSH2 0x1B44 DUP5 DUP5 DUP5 DUP5 PUSH2 0x1EB2 JUMP JUMPDEST POP POP POP POP JUMP JUMPDEST PUSH1 0x0 DUP5 PUSH20 0xFFFFFFFFFFFFFFFFFFFFFFFFFFFFFFFFFFFFFFFF AND EXTCODESIZE GT ISZERO PUSH2 0x1CF6 JUMPI DUP4 PUSH20 0xFFFFFFFFFFFFFFFFFFFFFFFFFFFFFFFFFFFFFFFF AND PUSH4 0xF23A6E61 DUP8 DUP8 DUP7 DUP7 DUP7 PUSH1 0x40 MLOAD DUP7 PUSH4 0xFFFFFFFF AND PUSH1 0xE0 SHL DUP2 MSTORE PUSH1 0x4 ADD PUSH2 0x1BAB SWAP6 SWAP5 SWAP4 SWAP3 SWAP2 SWAP1 PUSH2 0x3765 JUMP JUMPDEST PUSH1 0x20 PUSH1 0x40 MLOAD DUP1 DUP4 SUB DUP2 PUSH1 0x0 DUP8 GAS CALL SWAP3 POP POP POP DUP1 ISZERO PUSH2 0x1BE7 JUMPI POP PUSH1 0x40 MLOAD RETURNDATASIZE PUSH1 0x1F NOT PUSH1 0x1F DUP3 ADD AND DUP3 ADD DUP1 PUSH1 0x40 MSTORE POP DUP2 ADD SWAP1 PUSH2 0x1BE4 SWAP2 SWAP1 PUSH2 0x37D4 JUMP JUMPDEST PUSH1 0x1 JUMPDEST PUSH2 0x1C6B JUMPI RETURNDATASIZE DUP1 PUSH1 0x0 DUP2 EQ PUSH2 0x1C17 JUMPI PUSH1 0x40 MLOAD SWAP2 POP PUSH1 0x1F NOT PUSH1 0x3F RETURNDATASIZE ADD AND DUP3 ADD PUSH1 0x40 MSTORE RETURNDATASIZE DUP3 MSTORE RETURNDATASIZE PUSH1 0x0 PUSH1 0x20 DUP5 ADD RETURNDATACOPY PUSH2 0x1C1C JUMP JUMPDEST PUSH1 0x60 SWAP2 POP JUMPDEST POP PUSH1 0x0 DUP2 MLOAD SUB PUSH2 0x1C63 JUMPI DUP5 PUSH1 0x40 MLOAD PUSH32 0x57F447CE00000000000000000000000000000000000000000000000000000000 DUP2 MSTORE PUSH1 0x4 ADD PUSH2 0x1C5A SWAP2 SWAP1 PUSH2 0x2ED4 JUMP JUMPDEST PUSH1 0x40 MLOAD DUP1 SWAP2 SUB SWAP1 REVERT JUMPDEST DUP1 MLOAD DUP2 PUSH1 0x20 ADD REVERT JUMPDEST PUSH4 0xF23A6E61 PUSH1 0xE0 SHL PUSH28 0xFFFFFFFFFFFFFFFFFFFFFFFFFFFFFFFFFFFFFFFFFFFFFFFFFFFFFFFF NOT AND DUP2 PUSH28 0xFFFFFFFFFFFFFFFFFFFFFFFFFFFFFFFFFFFFFFFFFFFFFFFFFFFFFFFF NOT AND EQ PUSH2 0x1CF4 JUMPI DUP5 PUSH1 0x40 MLOAD PUSH32 0x57F447CE00000000000000000000000000000000000000000000000000000000 DUP2 MSTORE PUSH1 0x4 ADD PUSH2 0x1CEB SWAP2 SWAP1 PUSH2 0x2ED4 JUMP JUMPDEST PUSH1 0x40 MLOAD DUP1 SWAP2 SUB SWAP1 REVERT JUMPDEST POP JUMPDEST POP POP POP POP POP POP JUMP JUMPDEST PUSH1 0x0 DUP5 PUSH20 0xFFFFFFFFFFFFFFFFFFFFFFFFFFFFFFFFFFFFFFFF AND EXTCODESIZE GT ISZERO PUSH2 0x1EAA JUMPI DUP4 PUSH20 0xFFFFFFFFFFFFFFFFFFFFFFFFFFFFFFFFFFFFFFFF AND PUSH4 0xBC197C81 DUP8 DUP8 DUP7 DUP7 DUP7 PUSH1 0x40 MLOAD DUP7 PUSH4 0xFFFFFFFF AND PUSH1 0xE0 SHL DUP2 MSTORE PUSH1 0x4 ADD PUSH2 0x1D5F SWAP6 SWAP5 SWAP4 SWAP3 SWAP2 SWAP1 PUSH2 0x3801 JUMP JUMPDEST PUSH1 0x20 PUSH1 0x40 MLOAD DUP1 DUP4 SUB DUP2 PUSH1 0x0 DUP8 GAS CALL SWAP3 POP POP POP DUP1 ISZERO PUSH2 0x1D9B JUMPI POP PUSH1 0x40 MLOAD RETURNDATASIZE PUSH1 0x1F NOT PUSH1 0x1F DUP3 ADD AND DUP3 ADD DUP1 PUSH1 0x40 MSTORE POP DUP2 ADD SWAP1 PUSH2 0x1D98 SWAP2 SWAP1 PUSH2 0x37D4 JUMP JUMPDEST PUSH1 0x1 JUMPDEST PUSH2 0x1E1F JUMPI RETURNDATASIZE DUP1 PUSH1 0x0 DUP2 EQ PUSH2 0x1DCB JUMPI PUSH1 0x40 MLOAD SWAP2 POP PUSH1 0x1F NOT PUSH1 0x3F RETURNDATASIZE ADD AND DUP3 ADD PUSH1 0x40 MSTORE RETURNDATASIZE DUP3 MSTORE RETURNDATASIZE PUSH1 0x0 PUSH1 0x20 DUP5 ADD RETURNDATACOPY PUSH2 0x1DD0 JUMP JUMPDEST PUSH1 0x60 SWAP2 POP JUMPDEST POP PUSH1 0x0 DUP2 MLOAD SUB PUSH2 0x1E17 JUMPI DUP5 PUSH1 0x40 MLOAD PUSH32 0x57F447CE00000000000000000000000000000000000000000000000000000000 DUP2 MSTORE PUSH1 0x4 ADD PUSH2 0x1E0E SWAP2 SWAP1 PUSH2 0x2ED4 JUMP JUMPDEST PUSH1 0x40 MLOAD DUP1 SWAP2 SUB SWAP1 REVERT JUMPDEST DUP1 MLOAD DUP2 PUSH1 0x20 ADD REVERT JUMPDEST PUSH4 0xBC197C81 PUSH1 0xE0 SHL PUSH28 0xFFFFFFFFFFFFFFFFFFFFFFFFFFFFFFFFFFFFFFFFFFFFFFFFFFFFFFFF NOT AND DUP2 PUSH28 0xFFFFFFFFFFFFFFFFFFFFFFFFFFFFFFFFFFFFFFFFFFFFFFFFFFFFFFFF NOT AND EQ PUSH2 0x1EA8 JUMPI DUP5 PUSH1 0x40 MLOAD PUSH32 0x57F447CE00000000000000000000000000000000000000000000000000000000 DUP2 MSTORE PUSH1 0x4 ADD PUSH2 0x1E9F SWAP2 SWAP1 PUSH2 0x2ED4 JUMP JUMPDEST PUSH1 0x40 MLOAD DUP1 SWAP2 SUB SWAP1 REVERT JUMPDEST POP JUMPDEST POP POP POP POP POP POP JUMP JUMPDEST PUSH2 0x1EBE DUP5 DUP5 DUP5 DUP5 PUSH2 0x2069 JUMP JUMPDEST PUSH1 0x0 PUSH20 0xFFFFFFFFFFFFFFFFFFFFFFFFFFFFFFFFFFFFFFFF AND DUP5 PUSH20 0xFFFFFFFFFFFFFFFFFFFFFFFFFFFFFFFFFFFFFFFF AND SUB PUSH2 0x1F9E JUMPI PUSH1 0x0 DUP1 JUMPDEST DUP4 MLOAD DUP2 LT ISZERO PUSH2 0x1F82 JUMPI PUSH1 0x0 DUP4 DUP3 DUP2 MLOAD DUP2 LT PUSH2 0x1F14 JUMPI PUSH2 0x1F13 PUSH2 0x31F8 JUMP JUMPDEST JUMPDEST PUSH1 0x20 MUL PUSH1 0x20 ADD ADD MLOAD SWAP1 POP DUP1 PUSH1 0x4 PUSH1 0x0 DUP8 DUP6 DUP2 MLOAD DUP2 LT PUSH2 0x1F36 JUMPI PUSH2 0x1F35 PUSH2 0x31F8 JUMP JUMPDEST JUMPDEST PUSH1 0x20 MUL PUSH1 0x20 ADD ADD MLOAD DUP2 MSTORE PUSH1 0x20 ADD SWAP1 DUP2 MSTORE PUSH1 0x20 ADD PUSH1 0x0 KECCAK256 PUSH1 0x0 DUP3 DUP3 SLOAD PUSH2 0x1F5B SWAP2 SWAP1 PUSH2 0x33F2 JUMP JUMPDEST SWAP3 POP POP DUP2 SWAP1 SSTORE POP DUP1 DUP4 PUSH2 0x1F6E SWAP2 SWAP1 PUSH2 0x33F2 JUMP JUMPDEST SWAP3 POP POP DUP1 PUSH2 0x1F7B SWAP1 PUSH2 0x3256 JUMP JUMPDEST SWAP1 POP PUSH2 0x1EF6 JUMP JUMPDEST POP DUP1 PUSH1 0x5 PUSH1 0x0 DUP3 DUP3 SLOAD PUSH2 0x1F95 SWAP2 SWAP1 PUSH2 0x33F2 JUMP JUMPDEST SWAP3 POP POP DUP2 SWAP1 SSTORE POP POP JUMPDEST PUSH1 0x0 PUSH20 0xFFFFFFFFFFFFFFFFFFFFFFFFFFFFFFFFFFFFFFFF AND DUP4 PUSH20 0xFFFFFFFFFFFFFFFFFFFFFFFFFFFFFFFFFFFFFFFF AND SUB PUSH2 0x2063 JUMPI PUSH1 0x0 DUP1 JUMPDEST DUP4 MLOAD DUP2 LT ISZERO PUSH2 0x2050 JUMPI PUSH1 0x0 DUP4 DUP3 DUP2 MLOAD DUP2 LT PUSH2 0x1FF4 JUMPI PUSH2 0x1FF3 PUSH2 0x31F8 JUMP JUMPDEST JUMPDEST PUSH1 0x20 MUL PUSH1 0x20 ADD ADD MLOAD SWAP1 POP DUP1 PUSH1 0x4 PUSH1 0x0 DUP8 DUP6 DUP2 MLOAD DUP2 LT PUSH2 0x2016 JUMPI PUSH2 0x2015 PUSH2 0x31F8 JUMP JUMPDEST JUMPDEST PUSH1 0x20 MUL PUSH1 0x20 ADD ADD MLOAD DUP2 MSTORE PUSH1 0x20 ADD SWAP1 DUP2 MSTORE PUSH1 0x20 ADD PUSH1 0x0 KECCAK256 PUSH1 0x0 DUP3 DUP3 SLOAD SUB SWAP3 POP POP DUP2 SWAP1 SSTORE POP DUP1 DUP4 ADD SWAP3 POP POP DUP1 PUSH2 0x2049 SWAP1 PUSH2 0x3256 JUMP JUMPDEST SWAP1 POP PUSH2 0x1FD6 JUMP JUMPDEST POP DUP1 PUSH1 0x5 PUSH1 0x0 DUP3 DUP3 SLOAD SUB SWAP3 POP POP DUP2 SWAP1 SSTORE POP POP JUMPDEST POP POP POP POP JUMP JUMPDEST DUP1 MLOAD DUP3 MLOAD EQ PUSH2 0x20B3 JUMPI DUP2 MLOAD DUP2 MLOAD PUSH1 0x40 MLOAD PUSH32 0x5B05999100000000000000000000000000000000000000000000000000000000 DUP2 MSTORE PUSH1 0x4 ADD PUSH2 0x20AA SWAP3 SWAP2 SWAP1 PUSH2 0x31CF JUMP JUMPDEST PUSH1 0x40 MLOAD DUP1 SWAP2 SUB SWAP1 REVERT JUMPDEST PUSH1 0x0 PUSH2 0x20BD PUSH2 0x1554 JUMP JUMPDEST SWAP1 POP PUSH1 0x0 JUMPDEST DUP4 MLOAD DUP2 LT ISZERO PUSH2 0x22D2 JUMPI PUSH1 0x0 PUSH2 0x20E0 DUP3 DUP7 PUSH2 0x1668 SWAP1 SWAP2 SWAP1 PUSH4 0xFFFFFFFF AND JUMP JUMPDEST SWAP1 POP PUSH1 0x0 PUSH2 0x20F7 DUP4 DUP7 PUSH2 0x1668 SWAP1 SWAP2 SWAP1 PUSH4 0xFFFFFFFF AND JUMP JUMPDEST SWAP1 POP PUSH1 0x0 PUSH20 0xFFFFFFFFFFFFFFFFFFFFFFFFFFFFFFFFFFFFFFFF AND DUP9 PUSH20 0xFFFFFFFFFFFFFFFFFFFFFFFFFFFFFFFFFFFFFFFF AND EQ PUSH2 0x2224 JUMPI PUSH1 0x0 DUP1 PUSH1 0x0 DUP5 DUP2 MSTORE PUSH1 0x20 ADD SWAP1 DUP2 MSTORE PUSH1 0x20 ADD PUSH1 0x0 KECCAK256 PUSH1 0x0 DUP11 PUSH20 0xFFFFFFFFFFFFFFFFFFFFFFFFFFFFFFFFFFFFFFFF AND PUSH20 0xFFFFFFFFFFFFFFFFFFFFFFFFFFFFFFFFFFFFFFFF AND DUP2 MSTORE PUSH1 0x20 ADD SWAP1 DUP2 MSTORE PUSH1 0x20 ADD PUSH1 0x0 KECCAK256 SLOAD SWAP1 POP DUP2 DUP2 LT ISZERO PUSH2 0x21CC JUMPI DUP9 DUP2 DUP4 DUP6 PUSH1 0x40 MLOAD PUSH32 0x3DEE4C500000000000000000000000000000000000000000000000000000000 DUP2 MSTORE PUSH1 0x4 ADD PUSH2 0x21C3 SWAP5 SWAP4 SWAP3 SWAP2 SWAP1 PUSH2 0x3869 JUMP JUMPDEST PUSH1 0x40 MLOAD DUP1 SWAP2 SUB SWAP1 REVERT JUMPDEST DUP2 DUP2 SUB PUSH1 0x0 DUP1 DUP6 DUP2 MSTORE PUSH1 0x20 ADD SWAP1 DUP2 MSTORE PUSH1 0x20 ADD PUSH1 0x0 KECCAK256 PUSH1 0x0 DUP12 PUSH20 0xFFFFFFFFFFFFFFFFFFFFFFFFFFFFFFFFFFFFFFFF AND PUSH20 0xFFFFFFFFFFFFFFFFFFFFFFFFFFFFFFFFFFFFFFFF AND DUP2 MSTORE PUSH1 0x20 ADD SWAP1 DUP2 MSTORE PUSH1 0x20 ADD PUSH1 0x0 KECCAK256 DUP2 SWAP1 SSTORE POP POP JUMPDEST PUSH1 0x0 PUSH20 0xFFFFFFFFFFFFFFFFFFFFFFFFFFFFFFFFFFFFFFFF AND DUP8 PUSH20 0xFFFFFFFFFFFFFFFFFFFFFFFFFFFFFFFFFFFFFFFF AND EQ PUSH2 0x22BF JUMPI DUP1 PUSH1 0x0 DUP1 DUP5 DUP2 MSTORE PUSH1 0x20 ADD SWAP1 DUP2 MSTORE PUSH1 0x20 ADD PUSH1 0x0 KECCAK256 PUSH1 0x0 DUP10 PUSH20 0xFFFFFFFFFFFFFFFFFFFFFFFFFFFFFFFFFFFFFFFF AND PUSH20 0xFFFFFFFFFFFFFFFFFFFFFFFFFFFFFFFFFFFFFFFF AND DUP2 MSTORE PUSH1 0x20 ADD SWAP1 DUP2 MSTORE PUSH1 0x20 ADD PUSH1 0x0 KECCAK256 PUSH1 0x0 DUP3 DUP3 SLOAD PUSH2 0x22B7 SWAP2 SWAP1 PUSH2 0x33F2 JUMP JUMPDEST SWAP3 POP POP DUP2 SWAP1 SSTORE POP JUMPDEST POP POP DUP1 PUSH2 0x22CB SWAP1 PUSH2 0x3256 JUMP JUMPDEST SWAP1 POP PUSH2 0x20C2 JUMP JUMPDEST POP PUSH1 0x1 DUP4 MLOAD SUB PUSH2 0x2391 JUMPI PUSH1 0x0 PUSH2 0x22F2 PUSH1 0x0 DUP6 PUSH2 0x1668 SWAP1 SWAP2 SWAP1 PUSH4 0xFFFFFFFF AND JUMP JUMPDEST SWAP1 POP PUSH1 0x0 PUSH2 0x230A PUSH1 0x0 DUP6 PUSH2 0x1668 SWAP1 SWAP2 SWAP1 PUSH4 0xFFFFFFFF AND JUMP JUMPDEST SWAP1 POP DUP6 PUSH20 0xFFFFFFFFFFFFFFFFFFFFFFFFFFFFFFFFFFFFFFFF AND DUP8 PUSH20 0xFFFFFFFFFFFFFFFFFFFFFFFFFFFFFFFFFFFFFFFF AND DUP5 PUSH20 0xFFFFFFFFFFFFFFFFFFFFFFFFFFFFFFFFFFFFFFFF AND PUSH32 0xC3D58168C5AE7397731D063D5BBF3D657854427343F4C083240F7AACAA2D0F62 DUP6 DUP6 PUSH1 0x40 MLOAD PUSH2 0x2382 SWAP3 SWAP2 SWAP1 PUSH2 0x31CF JUMP JUMPDEST PUSH1 0x40 MLOAD DUP1 SWAP2 SUB SWAP1 LOG4 POP POP PUSH2 0x2410 JUMP JUMPDEST DUP4 PUSH20 0xFFFFFFFFFFFFFFFFFFFFFFFFFFFFFFFFFFFFFFFF AND DUP6 PUSH20 0xFFFFFFFFFFFFFFFFFFFFFFFFFFFFFFFFFFFFFFFF AND DUP3 PUSH20 0xFFFFFFFFFFFFFFFFFFFFFFFFFFFFFFFFFFFFFFFF AND PUSH32 0x4A39DC06D4C0DBC64B70AF90FD698A233A518AA5D07E595D983B8C0526C8F7FB DUP7 DUP7 PUSH1 0x40 MLOAD PUSH2 0x2407 SWAP3 SWAP2 SWAP1 PUSH2 0x38AE JUMP JUMPDEST PUSH1 0x40 MLOAD DUP1 SWAP2 SUB SWAP1 LOG4 JUMPDEST POP POP POP POP POP JUMP JUMPDEST PUSH1 0x0 PUSH1 0x40 MLOAD SWAP1 POP SWAP1 JUMP JUMPDEST PUSH1 0x0 DUP1 REVERT JUMPDEST PUSH1 0x0 DUP1 REVERT JUMPDEST PUSH1 0x0 PUSH20 0xFFFFFFFFFFFFFFFFFFFFFFFFFFFFFFFFFFFFFFFF DUP3 AND SWAP1 POP SWAP2 SWAP1 POP JUMP JUMPDEST PUSH1 0x0 PUSH2 0x2456 DUP3 PUSH2 0x242B JUMP JUMPDEST SWAP1 POP SWAP2 SWAP1 POP JUMP JUMPDEST PUSH2 0x2466 DUP2 PUSH2 0x244B JUMP JUMPDEST DUP2 EQ PUSH2 0x2471 JUMPI PUSH1 0x0 DUP1 REVERT JUMPDEST POP JUMP JUMPDEST PUSH1 0x0 DUP2 CALLDATALOAD SWAP1 POP PUSH2 0x2483 DUP2 PUSH2 0x245D JUMP JUMPDEST SWAP3 SWAP2 POP POP JUMP JUMPDEST PUSH1 0x0 DUP2 SWAP1 POP SWAP2 SWAP1 POP JUMP JUMPDEST PUSH2 0x249C DUP2 PUSH2 0x2489 JUMP JUMPDEST DUP2 EQ PUSH2 0x24A7 JUMPI PUSH1 0x0 DUP1 REVERT JUMPDEST POP JUMP JUMPDEST PUSH1 0x0 DUP2 CALLDATALOAD SWAP1 POP PUSH2 0x24B9 DUP2 PUSH2 0x2493 JUMP JUMPDEST SWAP3 SWAP2 POP POP JUMP JUMPDEST PUSH1 0x0 DUP1 PUSH1 0x40 DUP4 DUP6 SUB SLT ISZERO PUSH2 0x24D6 JUMPI PUSH2 0x24D5 PUSH2 0x2421 JUMP JUMPDEST JUMPDEST PUSH1 0x0 PUSH2 0x24E4 DUP6 DUP3 DUP7 ADD PUSH2 0x2474 JUMP JUMPDEST SWAP3 POP POP PUSH1 0x20 PUSH2 0x24F5 DUP6 DUP3 DUP7 ADD PUSH2 0x24AA JUMP JUMPDEST SWAP2 POP POP SWAP3 POP SWAP3 SWAP1 POP JUMP JUMPDEST PUSH2 0x2508 DUP2 PUSH2 0x2489 JUMP JUMPDEST DUP3 MSTORE POP POP JUMP JUMPDEST PUSH1 0x0 PUSH1 0x20 DUP3 ADD SWAP1 POP PUSH2 0x2523 PUSH1 0x0 DUP4 ADD DUP5 PUSH2 0x24FF JUMP JUMPDEST SWAP3 SWAP2 POP POP JUMP JUMPDEST PUSH1 0x0 PUSH32 0xFFFFFFFF00000000000000000000000000000000000000000000000000000000 DUP3 AND SWAP1 POP SWAP2 SWAP1 POP JUMP JUMPDEST PUSH2 0x255E DUP2 PUSH2 0x2529 JUMP JUMPDEST DUP2 EQ PUSH2 0x2569 JUMPI PUSH1 0x0 DUP1 REVERT JUMPDEST POP JUMP JUMPDEST PUSH1 0x0 DUP2 CALLDATALOAD SWAP1 POP PUSH2 0x257B DUP2 PUSH2 0x2555 JUMP JUMPDEST SWAP3 SWAP2 POP POP JUMP JUMPDEST PUSH1 0x0 PUSH1 0x20 DUP3 DUP5 SUB SLT ISZERO PUSH2 0x2597 JUMPI PUSH2 0x2596 PUSH2 0x2421 JUMP JUMPDEST JUMPDEST PUSH1 0x0 PUSH2 0x25A5 DUP5 DUP3 DUP6 ADD PUSH2 0x256C JUMP JUMPDEST SWAP2 POP POP SWAP3 SWAP2 POP POP JUMP JUMPDEST PUSH1 0x0 DUP2 ISZERO ISZERO SWAP1 POP SWAP2 SWAP1 POP JUMP JUMPDEST PUSH2 0x25C3 DUP2 PUSH2 0x25AE JUMP JUMPDEST DUP3 MSTORE POP POP JUMP JUMPDEST PUSH1 0x0 PUSH1 0x20 DUP3 ADD SWAP1 POP PUSH2 0x25DE PUSH1 0x0 DUP4 ADD DUP5 PUSH2 0x25BA JUMP JUMPDEST SWAP3 SWAP2 POP POP JUMP JUMPDEST PUSH1 0x0 DUP1 REVERT JUMPDEST PUSH1 0x0 DUP1 REVERT JUMPDEST PUSH1 0x0 PUSH1 0x1F NOT PUSH1 0x1F DUP4 ADD AND SWAP1 POP SWAP2 SWAP1 POP JUMP JUMPDEST PUSH32 0x4E487B7100000000000000000000000000000000000000000000000000000000 PUSH1 0x0 MSTORE PUSH1 0x41 PUSH1 0x4 MSTORE PUSH1 0x24 PUSH1 0x0 REVERT JUMPDEST PUSH2 0x2637 DUP3 PUSH2 0x25EE JUMP JUMPDEST DUP2 ADD DUP2 DUP2 LT PUSH8 0xFFFFFFFFFFFFFFFF DUP3 GT OR ISZERO PUSH2 0x2656 JUMPI PUSH2 0x2655 PUSH2 0x25FF JUMP JUMPDEST JUMPDEST DUP1 PUSH1 0x40 MSTORE POP POP POP JUMP JUMPDEST PUSH1 0x0 PUSH2 0x2669 PUSH2 0x2417 JUMP JUMPDEST SWAP1 POP PUSH2 0x2675 DUP3 DUP3 PUSH2 0x262E JUMP JUMPDEST SWAP2 SWAP1 POP JUMP JUMPDEST PUSH1 0x0 PUSH8 0xFFFFFFFFFFFFFFFF DUP3 GT ISZERO PUSH2 0x2695 JUMPI PUSH2 0x2694 PUSH2 0x25FF JUMP JUMPDEST JUMPDEST PUSH2 0x269E DUP3 PUSH2 0x25EE JUMP JUMPDEST SWAP1 POP PUSH1 0x20 DUP2 ADD SWAP1 POP SWAP2 SWAP1 POP JUMP JUMPDEST DUP3 DUP2 DUP4 CALLDATACOPY PUSH1 0x0 DUP4 DUP4 ADD MSTORE POP POP POP JUMP JUMPDEST PUSH1 0x0 PUSH2 0x26CD PUSH2 0x26C8 DUP5 PUSH2 0x267A JUMP JUMPDEST PUSH2 0x265F JUMP JUMPDEST SWAP1 POP DUP3 DUP2 MSTORE PUSH1 0x20 DUP2 ADD DUP5 DUP5 DUP5 ADD GT ISZERO PUSH2 0x26E9 JUMPI PUSH2 0x26E8 PUSH2 0x25E9 JUMP JUMPDEST JUMPDEST PUSH2 0x26F4 DUP5 DUP3 DUP6 PUSH2 0x26AB JUMP JUMPDEST POP SWAP4 SWAP3 POP POP POP JUMP JUMPDEST PUSH1 0x0 DUP3 PUSH1 0x1F DUP4 ADD SLT PUSH2 0x2711 JUMPI PUSH2 0x2710 PUSH2 0x25E4 JUMP JUMPDEST JUMPDEST DUP2 CALLDATALOAD PUSH2 0x2721 DUP5 DUP3 PUSH1 0x20 DUP7 ADD PUSH2 0x26BA JUMP JUMPDEST SWAP2 POP POP SWAP3 SWAP2 POP POP JUMP JUMPDEST PUSH1 0x0 PUSH1 0x20 DUP3 DUP5 SUB SLT ISZERO PUSH2 0x2740 JUMPI PUSH2 0x273F PUSH2 0x2421 JUMP JUMPDEST JUMPDEST PUSH1 0x0 DUP3 ADD CALLDATALOAD PUSH8 0xFFFFFFFFFFFFFFFF DUP2 GT ISZERO PUSH2 0x275E JUMPI PUSH2 0x275D PUSH2 0x2426 JUMP JUMPDEST JUMPDEST PUSH2 0x276A DUP5 DUP3 DUP6 ADD PUSH2 0x26FC JUMP JUMPDEST SWAP2 POP POP SWAP3 SWAP2 POP POP JUMP JUMPDEST PUSH1 0x0 PUSH1 0x20 DUP3 DUP5 SUB SLT ISZERO PUSH2 0x2789 JUMPI PUSH2 0x2788 PUSH2 0x2421 JUMP JUMPDEST JUMPDEST PUSH1 0x0 PUSH2 0x2797 DUP5 DUP3 DUP6 ADD PUSH2 0x24AA JUMP JUMPDEST SWAP2 POP POP SWAP3 SWAP2 POP POP JUMP JUMPDEST PUSH1 0x0 DUP2 MLOAD SWAP1 POP SWAP2 SWAP1 POP JUMP JUMPDEST PUSH1 0x0 DUP3 DUP3 MSTORE PUSH1 0x20 DUP3 ADD SWAP1 POP SWAP3 SWAP2 POP POP JUMP JUMPDEST PUSH1 0x0 JUMPDEST DUP4 DUP2 LT ISZERO PUSH2 0x27DA JUMPI DUP1 DUP3 ADD MLOAD DUP2 DUP5 ADD MSTORE PUSH1 0x20 DUP2 ADD SWAP1 POP PUSH2 0x27BF JUMP JUMPDEST PUSH1 0x0 DUP5 DUP5 ADD MSTORE POP POP POP POP JUMP JUMPDEST PUSH1 0x0 PUSH2 0x27F1 DUP3 PUSH2 0x27A0 JUMP JUMPDEST PUSH2 0x27FB DUP2 DUP6 PUSH2 0x27AB JUMP JUMPDEST SWAP4 POP PUSH2 0x280B DUP2 DUP6 PUSH1 0x20 DUP7 ADD PUSH2 0x27BC JUMP JUMPDEST PUSH2 0x2814 DUP2 PUSH2 0x25EE JUMP JUMPDEST DUP5 ADD SWAP2 POP POP SWAP3 SWAP2 POP POP JUMP JUMPDEST PUSH1 0x0 PUSH1 0x20 DUP3 ADD SWAP1 POP DUP2 DUP2 SUB PUSH1 0x0 DUP4 ADD MSTORE PUSH2 0x2839 DUP2 DUP5 PUSH2 0x27E6 JUMP JUMPDEST SWAP1 POP SWAP3 SWAP2 POP POP JUMP JUMPDEST PUSH1 0x0 PUSH8 0xFFFFFFFFFFFFFFFF DUP3 GT ISZERO PUSH2 0x285C JUMPI PUSH2 0x285B PUSH2 0x25FF JUMP JUMPDEST JUMPDEST PUSH1 0x20 DUP3 MUL SWAP1 POP PUSH1 0x20 DUP2 ADD SWAP1 POP SWAP2 SWAP1 POP JUMP JUMPDEST PUSH1 0x0 DUP1 REVERT JUMPDEST PUSH1 0x0 PUSH2 0x2885 PUSH2 0x2880 DUP5 PUSH2 0x2841 JUMP JUMPDEST PUSH2 0x265F JUMP JUMPDEST SWAP1 POP DUP1 DUP4 DUP3 MSTORE PUSH1 0x20 DUP3 ADD SWAP1 POP PUSH1 0x20 DUP5 MUL DUP4 ADD DUP6 DUP2 GT ISZERO PUSH2 0x28A8 JUMPI PUSH2 0x28A7 PUSH2 0x286D JUMP JUMPDEST JUMPDEST DUP4 JUMPDEST DUP2 DUP2 LT ISZERO PUSH2 0x28D1 JUMPI DUP1 PUSH2 0x28BD DUP9 DUP3 PUSH2 0x24AA JUMP JUMPDEST DUP5 MSTORE PUSH1 0x20 DUP5 ADD SWAP4 POP POP PUSH1 0x20 DUP2 ADD SWAP1 POP PUSH2 0x28AA JUMP JUMPDEST POP POP POP SWAP4 SWAP3 POP POP POP JUMP JUMPDEST PUSH1 0x0 DUP3 PUSH1 0x1F DUP4 ADD SLT PUSH2 0x28F0 JUMPI PUSH2 0x28EF PUSH2 0x25E4 JUMP JUMPDEST JUMPDEST DUP2 CALLDATALOAD PUSH2 0x2900 DUP5 DUP3 PUSH1 0x20 DUP7 ADD PUSH2 0x2872 JUMP JUMPDEST SWAP2 POP POP SWAP3 SWAP2 POP POP JUMP JUMPDEST PUSH1 0x0 PUSH8 0xFFFFFFFFFFFFFFFF DUP3 GT ISZERO PUSH2 0x2924 JUMPI PUSH2 0x2923 PUSH2 0x25FF JUMP JUMPDEST JUMPDEST PUSH2 0x292D DUP3 PUSH2 0x25EE JUMP JUMPDEST SWAP1 POP PUSH1 0x20 DUP2 ADD SWAP1 POP SWAP2 SWAP1 POP JUMP JUMPDEST PUSH1 0x0 PUSH2 0x294D PUSH2 0x2948 DUP5 PUSH2 0x2909 JUMP JUMPDEST PUSH2 0x265F JUMP JUMPDEST SWAP1 POP DUP3 DUP2 MSTORE PUSH1 0x20 DUP2 ADD DUP5 DUP5 DUP5 ADD GT ISZERO PUSH2 0x2969 JUMPI PUSH2 0x2968 PUSH2 0x25E9 JUMP JUMPDEST JUMPDEST PUSH2 0x2974 DUP5 DUP3 DUP6 PUSH2 0x26AB JUMP JUMPDEST POP SWAP4 SWAP3 POP POP POP JUMP JUMPDEST PUSH1 0x0 DUP3 PUSH1 0x1F DUP4 ADD SLT PUSH2 0x2991 JUMPI PUSH2 0x2990 PUSH2 0x25E4 JUMP JUMPDEST JUMPDEST DUP2 CALLDATALOAD PUSH2 0x29A1 DUP5 DUP3 PUSH1 0x20 DUP7 ADD PUSH2 0x293A JUMP JUMPDEST SWAP2 POP POP SWAP3 SWAP2 POP POP JUMP JUMPDEST PUSH1 0x0 DUP1 PUSH1 0x0 DUP1 PUSH1 0x80 DUP6 DUP8 SUB SLT ISZERO PUSH2 0x29C4 JUMPI PUSH2 0x29C3 PUSH2 0x2421 JUMP JUMPDEST JUMPDEST PUSH1 0x0 PUSH2 0x29D2 DUP8 DUP3 DUP9 ADD PUSH2 0x2474 JUMP JUMPDEST SWAP5 POP POP PUSH1 0x20 DUP6 ADD CALLDATALOAD PUSH8 0xFFFFFFFFFFFFFFFF DUP2 GT ISZERO PUSH2 0x29F3 JUMPI PUSH2 0x29F2 PUSH2 0x2426 JUMP JUMPDEST JUMPDEST PUSH2 0x29FF DUP8 DUP3 DUP9 ADD PUSH2 0x28DB JUMP JUMPDEST SWAP4 POP POP PUSH1 0x40 DUP6 ADD CALLDATALOAD PUSH8 0xFFFFFFFFFFFFFFFF DUP2 GT ISZERO PUSH2 0x2A20 JUMPI PUSH2 0x2A1F PUSH2 0x2426 JUMP JUMPDEST JUMPDEST PUSH2 0x2A2C DUP8 DUP3 DUP9 ADD PUSH2 0x28DB JUMP JUMPDEST SWAP3 POP POP PUSH1 0x60 DUP6 ADD CALLDATALOAD PUSH8 0xFFFFFFFFFFFFFFFF DUP2 GT ISZERO PUSH2 0x2A4D JUMPI PUSH2 0x2A4C PUSH2 0x2426 JUMP JUMPDEST JUMPDEST PUSH2 0x2A59 DUP8 DUP3 DUP9 ADD PUSH2 0x297C JUMP JUMPDEST SWAP2 POP POP SWAP3 SWAP6 SWAP2 SWAP5 POP SWAP3 POP JUMP JUMPDEST PUSH1 0x0 DUP1 PUSH1 0x0 DUP1 PUSH1 0x0 PUSH1 0xA0 DUP7 DUP9 SUB SLT ISZERO PUSH2 0x2A81 JUMPI PUSH2 0x2A80 PUSH2 0x2421 JUMP JUMPDEST JUMPDEST PUSH1 0x0 PUSH2 0x2A8F DUP9 DUP3 DUP10 ADD PUSH2 0x2474 JUMP JUMPDEST SWAP6 POP POP PUSH1 0x20 PUSH2 0x2AA0 DUP9 DUP3 DUP10 ADD PUSH2 0x2474 JUMP JUMPDEST SWAP5 POP POP PUSH1 0x40 DUP7 ADD CALLDATALOAD PUSH8 0xFFFFFFFFFFFFFFFF DUP2 GT ISZERO PUSH2 0x2AC1 JUMPI PUSH2 0x2AC0 PUSH2 0x2426 JUMP JUMPDEST JUMPDEST PUSH2 0x2ACD DUP9 DUP3 DUP10 ADD PUSH2 0x28DB JUMP JUMPDEST SWAP4 POP POP PUSH1 0x60 DUP7 ADD CALLDATALOAD PUSH8 0xFFFFFFFFFFFFFFFF DUP2 GT ISZERO PUSH2 0x2AEE JUMPI PUSH2 0x2AED PUSH2 0x2426 JUMP JUMPDEST JUMPDEST PUSH2 0x2AFA DUP9 DUP3 DUP10 ADD PUSH2 0x28DB JUMP JUMPDEST SWAP3 POP POP PUSH1 0x80 DUP7 ADD CALLDATALOAD PUSH8 0xFFFFFFFFFFFFFFFF DUP2 GT ISZERO PUSH2 0x2B1B JUMPI PUSH2 0x2B1A PUSH2 0x2426 JUMP JUMPDEST JUMPDEST PUSH2 0x2B27 DUP9 DUP3 DUP10 ADD PUSH2 0x297C JUMP JUMPDEST SWAP2 POP POP SWAP3 SWAP6 POP SWAP3 SWAP6 SWAP1 SWAP4 POP JUMP JUMPDEST PUSH1 0x0 PUSH8 0xFFFFFFFFFFFFFFFF DUP3 GT ISZERO PUSH2 0x2B4F JUMPI PUSH2 0x2B4E PUSH2 0x25FF JUMP JUMPDEST JUMPDEST PUSH1 0x20 DUP3 MUL SWAP1 POP PUSH1 0x20 DUP2 ADD SWAP1 POP SWAP2 SWAP1 POP JUMP JUMPDEST PUSH1 0x0 PUSH2 0x2B73 PUSH2 0x2B6E DUP5 PUSH2 0x2B34 JUMP JUMPDEST PUSH2 0x265F JUMP JUMPDEST SWAP1 POP DUP1 DUP4 DUP3 MSTORE PUSH1 0x20 DUP3 ADD SWAP1 POP PUSH1 0x20 DUP5 MUL DUP4 ADD DUP6 DUP2 GT ISZERO PUSH2 0x2B96 JUMPI PUSH2 0x2B95 PUSH2 0x286D JUMP JUMPDEST JUMPDEST DUP4 JUMPDEST DUP2 DUP2 LT ISZERO PUSH2 0x2BBF JUMPI DUP1 PUSH2 0x2BAB DUP9 DUP3 PUSH2 0x2474 JUMP JUMPDEST DUP5 MSTORE PUSH1 0x20 DUP5 ADD SWAP4 POP POP PUSH1 0x20 DUP2 ADD SWAP1 POP PUSH2 0x2B98 JUMP JUMPDEST POP POP POP SWAP4 SWAP3 POP POP POP JUMP JUMPDEST PUSH1 0x0 DUP3 PUSH1 0x1F DUP4 ADD SLT PUSH2 0x2BDE JUMPI PUSH2 0x2BDD PUSH2 0x25E4 JUMP JUMPDEST JUMPDEST DUP2 CALLDATALOAD PUSH2 0x2BEE DUP5 DUP3 PUSH1 0x20 DUP7 ADD PUSH2 0x2B60 JUMP JUMPDEST SWAP2 POP POP SWAP3 SWAP2 POP POP JUMP JUMPDEST PUSH1 0x0 DUP1 PUSH1 0x40 DUP4 DUP6 SUB SLT ISZERO PUSH2 0x2C0E JUMPI PUSH2 0x2C0D PUSH2 0x2421 JUMP JUMPDEST JUMPDEST PUSH1 0x0 DUP4 ADD CALLDATALOAD PUSH8 0xFFFFFFFFFFFFFFFF DUP2 GT ISZERO PUSH2 0x2C2C JUMPI PUSH2 0x2C2B PUSH2 0x2426 JUMP JUMPDEST JUMPDEST PUSH2 0x2C38 DUP6 DUP3 DUP7 ADD PUSH2 0x2BC9 JUMP JUMPDEST SWAP3 POP POP PUSH1 0x20 DUP4 ADD CALLDATALOAD PUSH8 0xFFFFFFFFFFFFFFFF DUP2 GT ISZERO PUSH2 0x2C59 JUMPI PUSH2 0x2C58 PUSH2 0x2426 JUMP JUMPDEST JUMPDEST PUSH2 0x2C65 DUP6 DUP3 DUP7 ADD PUSH2 0x28DB JUMP JUMPDEST SWAP2 POP POP SWAP3 POP SWAP3 SWAP1 POP JUMP JUMPDEST PUSH1 0x0 DUP2 MLOAD SWAP1 POP SWAP2 SWAP1 POP JUMP JUMPDEST PUSH1 0x0 DUP3 DUP3 MSTORE PUSH1 0x20 DUP3 ADD SWAP1 POP SWAP3 SWAP2 POP POP JUMP JUMPDEST PUSH1 0x0 DUP2 SWAP1 POP PUSH1 0x20 DUP3 ADD SWAP1 POP SWAP2 SWAP1 POP JUMP JUMPDEST PUSH2 0x2CA4 DUP2 PUSH2 0x2489 JUMP JUMPDEST DUP3 MSTORE POP POP JUMP JUMPDEST PUSH1 0x0 PUSH2 0x2CB6 DUP4 DUP4 PUSH2 0x2C9B JUMP JUMPDEST PUSH1 0x20 DUP4 ADD SWAP1 POP SWAP3 SWAP2 POP POP JUMP JUMPDEST PUSH1 0x0 PUSH1 0x20 DUP3 ADD SWAP1 POP SWAP2 SWAP1 POP JUMP JUMPDEST PUSH1 0x0 PUSH2 0x2CDA DUP3 PUSH2 0x2C6F JUMP JUMPDEST PUSH2 0x2CE4 DUP2 DUP6 PUSH2 0x2C7A JUMP JUMPDEST SWAP4 POP PUSH2 0x2CEF DUP4 PUSH2 0x2C8B JUMP JUMPDEST DUP1 PUSH1 0x0 JUMPDEST DUP4 DUP2 LT ISZERO PUSH2 0x2D20 JUMPI DUP2 MLOAD PUSH2 0x2D07 DUP9 DUP3 PUSH2 0x2CAA JUMP JUMPDEST SWAP8 POP PUSH2 0x2D12 DUP4 PUSH2 0x2CC2 JUMP JUMPDEST SWAP3 POP POP PUSH1 0x1 DUP2 ADD SWAP1 POP PUSH2 0x2CF3 JUMP JUMPDEST POP DUP6 SWAP4 POP POP POP POP SWAP3 SWAP2 POP POP JUMP JUMPDEST PUSH1 0x0 PUSH1 0x20 DUP3 ADD SWAP1 POP DUP2 DUP2 SUB PUSH1 0x0 DUP4 ADD MSTORE PUSH2 0x2D47 DUP2 DUP5 PUSH2 0x2CCF JUMP JUMPDEST SWAP1 POP SWAP3 SWAP2 POP POP JUMP JUMPDEST PUSH1 0x0 PUSH8 0xFFFFFFFFFFFFFFFF DUP3 AND SWAP1 POP SWAP2 SWAP1 POP JUMP JUMPDEST PUSH2 0x2D6C DUP2 PUSH2 0x2D4F JUMP JUMPDEST DUP2 EQ PUSH2 0x2D77 JUMPI PUSH1 0x0 DUP1 REVERT JUMPDEST POP JUMP JUMPDEST PUSH1 0x0 DUP2 CALLDATALOAD SWAP1 POP PUSH2 0x2D89 DUP2 PUSH2 0x2D63 JUMP JUMPDEST SWAP3 SWAP2 POP POP JUMP JUMPDEST PUSH1 0x0 DUP1 PUSH1 0x0 DUP1 PUSH1 0x0 PUSH1 0xA0 DUP7 DUP9 SUB SLT ISZERO PUSH2 0x2DAB JUMPI PUSH2 0x2DAA PUSH2 0x2421 JUMP JUMPDEST JUMPDEST PUSH1 0x0 PUSH2 0x2DB9 DUP9 DUP3 DUP10 ADD PUSH2 0x24AA JUMP JUMPDEST SWAP6 POP POP PUSH1 0x20 PUSH2 0x2DCA DUP9 DUP3 DUP10 ADD PUSH2 0x2D7A JUMP JUMPDEST SWAP5 POP POP PUSH1 0x40 PUSH2 0x2DDB DUP9 DUP3 DUP10 ADD PUSH2 0x24AA JUMP JUMPDEST SWAP4 POP POP PUSH1 0x60 DUP7 ADD CALLDATALOAD PUSH8 0xFFFFFFFFFFFFFFFF DUP2 GT ISZERO PUSH2 0x2DFC JUMPI PUSH2 0x2DFB PUSH2 0x2426 JUMP JUMPDEST JUMPDEST PUSH2 0x2E08 DUP9 DUP3 DUP10 ADD PUSH2 0x26FC JUMP JUMPDEST SWAP3 POP POP PUSH1 0x80 DUP7 ADD CALLDATALOAD PUSH8 0xFFFFFFFFFFFFFFFF DUP2 GT ISZERO PUSH2 0x2E29 JUMPI PUSH2 0x2E28 PUSH2 0x2426 JUMP JUMPDEST JUMPDEST PUSH2 0x2E35 DUP9 DUP3 DUP10 ADD PUSH2 0x297C JUMP JUMPDEST SWAP2 POP POP SWAP3 SWAP6 POP SWAP3 SWAP6 SWAP1 SWAP4 POP JUMP JUMPDEST PUSH1 0x0 DUP1 PUSH1 0x0 DUP1 PUSH1 0x80 DUP6 DUP8 SUB SLT ISZERO PUSH2 0x2E5C JUMPI PUSH2 0x2E5B PUSH2 0x2421 JUMP JUMPDEST JUMPDEST PUSH1 0x0 PUSH2 0x2E6A DUP8 DUP3 DUP9 ADD PUSH2 0x2474 JUMP JUMPDEST SWAP5 POP POP PUSH1 0x20 PUSH2 0x2E7B DUP8 DUP3 DUP9 ADD PUSH2 0x24AA JUMP JUMPDEST SWAP4 POP POP PUSH1 0x40 PUSH2 0x2E8C DUP8 DUP3 DUP9 ADD PUSH2 0x24AA JUMP JUMPDEST SWAP3 POP POP PUSH1 0x60 DUP6 ADD CALLDATALOAD PUSH8 0xFFFFFFFFFFFFFFFF DUP2 GT ISZERO PUSH2 0x2EAD JUMPI PUSH2 0x2EAC PUSH2 0x2426 JUMP JUMPDEST JUMPDEST PUSH2 0x2EB9 DUP8 DUP3 DUP9 ADD PUSH2 0x297C JUMP JUMPDEST SWAP2 POP POP SWAP3 SWAP6 SWAP2 SWAP5 POP SWAP3 POP JUMP JUMPDEST PUSH2 0x2ECE DUP2 PUSH2 0x244B JUMP JUMPDEST DUP3 MSTORE POP POP JUMP JUMPDEST PUSH1 0x0 PUSH1 0x20 DUP3 ADD SWAP1 POP PUSH2 0x2EE9 PUSH1 0x0 DUP4 ADD DUP5 PUSH2 0x2EC5 JUMP JUMPDEST SWAP3 SWAP2 POP POP JUMP JUMPDEST PUSH1 0x0 DUP1 PUSH1 0x0 PUSH1 0x60 DUP5 DUP7 SUB SLT ISZERO PUSH2 0x2F08 JUMPI PUSH2 0x2F07 PUSH2 0x2421 JUMP JUMPDEST JUMPDEST PUSH1 0x0 PUSH2 0x2F16 DUP7 DUP3 DUP8 ADD PUSH2 0x24AA JUMP JUMPDEST SWAP4 POP POP PUSH1 0x20 PUSH2 0x2F27 DUP7 DUP3 DUP8 ADD PUSH2 0x2474 JUMP JUMPDEST SWAP3 POP POP PUSH1 0x40 DUP5 ADD CALLDATALOAD PUSH8 0xFFFFFFFFFFFFFFFF DUP2 GT ISZERO PUSH2 0x2F48 JUMPI PUSH2 0x2F47 PUSH2 0x2426 JUMP JUMPDEST JUMPDEST PUSH2 0x2F54 DUP7 DUP3 DUP8 ADD PUSH2 0x26FC JUMP JUMPDEST SWAP2 POP POP SWAP3 POP SWAP3 POP SWAP3 JUMP JUMPDEST PUSH2 0x2F67 DUP2 PUSH2 0x25AE JUMP JUMPDEST DUP2 EQ PUSH2 0x2F72 JUMPI PUSH1 0x0 DUP1 REVERT JUMPDEST POP JUMP JUMPDEST PUSH1 0x0 DUP2 CALLDATALOAD SWAP1 POP PUSH2 0x2F84 DUP2 PUSH2 0x2F5E JUMP JUMPDEST SWAP3 SWAP2 POP POP JUMP JUMPDEST PUSH1 0x0 DUP1 PUSH1 0x40 DUP4 DUP6 SUB SLT ISZERO PUSH2 0x2FA1 JUMPI PUSH2 0x2FA0 PUSH2 0x2421 JUMP JUMPDEST JUMPDEST PUSH1 0x0 PUSH2 0x2FAF DUP6 DUP3 DUP7 ADD PUSH2 0x2474 JUMP JUMPDEST SWAP3 POP POP PUSH1 0x20 PUSH2 0x2FC0 DUP6 DUP3 DUP7 ADD PUSH2 0x2F75 JUMP JUMPDEST SWAP2 POP POP SWAP3 POP SWAP3 SWAP1 POP JUMP JUMPDEST PUSH1 0x0 DUP1 PUSH1 0x40 DUP4 DUP6 SUB SLT ISZERO PUSH2 0x2FE1 JUMPI PUSH2 0x2FE0 PUSH2 0x2421 JUMP JUMPDEST JUMPDEST PUSH1 0x0 PUSH2 0x2FEF DUP6 DUP3 DUP7 ADD PUSH2 0x2474 JUMP JUMPDEST SWAP3 POP POP PUSH1 0x20 PUSH2 0x3000 DUP6 DUP3 DUP7 ADD PUSH2 0x2474 JUMP JUMPDEST SWAP2 POP POP SWAP3 POP SWAP3 SWAP1 POP JUMP JUMPDEST PUSH1 0x0 DUP1 PUSH1 0x40 DUP4 DUP6 SUB SLT ISZERO PUSH2 0x3021 JUMPI PUSH2 0x3020 PUSH2 0x2421 JUMP JUMPDEST JUMPDEST PUSH1 0x0 DUP4 ADD CALLDATALOAD PUSH8 0xFFFFFFFFFFFFFFFF DUP2 GT ISZERO PUSH2 0x303F JUMPI PUSH2 0x303E PUSH2 0x2426 JUMP JUMPDEST JUMPDEST PUSH2 0x304B DUP6 DUP3 DUP7 ADD PUSH2 0x26FC JUMP JUMPDEST SWAP3 POP POP PUSH1 0x20 DUP4 ADD CALLDATALOAD PUSH8 0xFFFFFFFFFFFFFFFF DUP2 GT ISZERO PUSH2 0x306C JUMPI PUSH2 0x306B PUSH2 0x2426 JUMP JUMPDEST JUMPDEST PUSH2 0x3078 DUP6 DUP3 DUP7 ADD PUSH2 0x297C JUMP JUMPDEST SWAP2 POP POP SWAP3 POP SWAP3 SWAP1 POP JUMP JUMPDEST PUSH1 0x0 DUP1 PUSH1 0x0 DUP1 PUSH1 0x0 PUSH1 0xA0 DUP7 DUP9 SUB SLT ISZERO PUSH2 0x309E JUMPI PUSH2 0x309D PUSH2 0x2421 JUMP JUMPDEST JUMPDEST PUSH1 0x0 PUSH2 0x30AC DUP9 DUP3 DUP10 ADD PUSH2 0x2474 JUMP JUMPDEST SWAP6 POP POP PUSH1 0x20 PUSH2 0x30BD DUP9 DUP3 DUP10 ADD PUSH2 0x2474 JUMP JUMPDEST SWAP5 POP POP PUSH1 0x40 PUSH2 0x30CE DUP9 DUP3 DUP10 ADD PUSH2 0x24AA JUMP JUMPDEST SWAP4 POP POP PUSH1 0x60 PUSH2 0x30DF DUP9 DUP3 DUP10 ADD PUSH2 0x24AA JUMP JUMPDEST SWAP3 POP POP PUSH1 0x80 DUP7 ADD CALLDATALOAD PUSH8 0xFFFFFFFFFFFFFFFF DUP2 GT ISZERO PUSH2 0x3100 JUMPI PUSH2 0x30FF PUSH2 0x2426 JUMP JUMPDEST JUMPDEST PUSH2 0x310C DUP9 DUP3 DUP10 ADD PUSH2 0x297C JUMP JUMPDEST SWAP2 POP POP SWAP3 SWAP6 POP SWAP3 SWAP6 SWAP1 SWAP4 POP JUMP JUMPDEST PUSH1 0x0 PUSH1 0x20 DUP3 DUP5 SUB SLT ISZERO PUSH2 0x312F JUMPI PUSH2 0x312E PUSH2 0x2421 JUMP JUMPDEST JUMPDEST PUSH1 0x0 PUSH2 0x313D DUP5 DUP3 DUP6 ADD PUSH2 0x2474 JUMP JUMPDEST SWAP2 POP POP SWAP3 SWAP2 POP POP JUMP JUMPDEST PUSH32 0x4E487B7100000000000000000000000000000000000000000000000000000000 PUSH1 0x0 MSTORE PUSH1 0x22 PUSH1 0x4 MSTORE PUSH1 0x24 PUSH1 0x0 REVERT JUMPDEST PUSH1 0x0 PUSH1 0x2 DUP3 DIV SWAP1 POP PUSH1 0x1 DUP3 AND DUP1 PUSH2 0x318D JUMPI PUSH1 0x7F DUP3 AND SWAP2 POP JUMPDEST PUSH1 0x20 DUP3 LT DUP2 SUB PUSH2 0x31A0 JUMPI PUSH2 0x319F PUSH2 0x3146 JUMP JUMPDEST JUMPDEST POP SWAP2 SWAP1 POP JUMP JUMPDEST PUSH1 0x0 PUSH1 0x40 DUP3 ADD SWAP1 POP PUSH2 0x31BB PUSH1 0x0 DUP4 ADD DUP6 PUSH2 0x2EC5 JUMP JUMPDEST PUSH2 0x31C8 PUSH1 0x20 DUP4 ADD DUP5 PUSH2 0x2EC5 JUMP JUMPDEST SWAP4 SWAP3 POP POP POP JUMP JUMPDEST PUSH1 0x0 PUSH1 0x40 DUP3 ADD SWAP1 POP PUSH2 0x31E4 PUSH1 0x0 DUP4 ADD DUP6 PUSH2 0x24FF JUMP JUMPDEST PUSH2 0x31F1 PUSH1 0x20 DUP4 ADD DUP5 PUSH2 0x24FF JUMP JUMPDEST SWAP4 SWAP3 POP POP POP JUMP JUMPDEST PUSH32 0x4E487B7100000000000000000000000000000000000000000000000000000000 PUSH1 0x0 MSTORE PUSH1 0x32 PUSH1 0x4 MSTORE PUSH1 0x24 PUSH1 0x0 REVERT JUMPDEST PUSH32 0x4E487B7100000000000000000000000000000000000000000000000000000000 PUSH1 0x0 MSTORE PUSH1 0x11 PUSH1 0x4 MSTORE PUSH1 0x24 PUSH1 0x0 REVERT JUMPDEST PUSH1 0x0 PUSH2 0x3261 DUP3 PUSH2 0x2489 JUMP JUMPDEST SWAP2 POP PUSH32 0xFFFFFFFFFFFFFFFFFFFFFFFFFFFFFFFFFFFFFFFFFFFFFFFFFFFFFFFFFFFFFFFF DUP3 SUB PUSH2 0x3293 JUMPI PUSH2 0x3292 PUSH2 0x3227 JUMP JUMPDEST JUMPDEST PUSH1 0x1 DUP3 ADD SWAP1 POP SWAP2 SWAP1 POP JUMP JUMPDEST PUSH1 0x0 DUP2 SWAP1 POP SWAP3 SWAP2 POP POP JUMP JUMPDEST PUSH1 0x0 PUSH2 0x32B4 DUP3 PUSH2 0x27A0 JUMP JUMPDEST PUSH2 0x32BE DUP2 DUP6 PUSH2 0x329E JUMP JUMPDEST SWAP4 POP PUSH2 0x32CE DUP2 DUP6 PUSH1 0x20 DUP7 ADD PUSH2 0x27BC JUMP JUMPDEST DUP1 DUP5 ADD SWAP2 POP POP SWAP3 SWAP2 POP POP JUMP JUMPDEST PUSH1 0x0 PUSH2 0x32E6 DUP3 DUP5 PUSH2 0x32A9 JUMP JUMPDEST SWAP2 POP DUP2 SWAP1 POP SWAP3 SWAP2 POP POP JUMP JUMPDEST PUSH32 0x6172746973740000000000000000000000000000000000000000000000000000 PUSH1 0x0 DUP3 ADD MSTORE POP JUMP JUMPDEST PUSH1 0x0 PUSH2 0x3327 PUSH1 0x6 DUP4 PUSH2 0x329E JUMP JUMPDEST SWAP2 POP PUSH2 0x3332 DUP3 PUSH2 0x32F1 JUMP JUMPDEST PUSH1 0x6 DUP3 ADD SWAP1 POP SWAP2 SWAP1 POP JUMP JUMPDEST PUSH1 0x0 PUSH2 0x3348 DUP3 PUSH2 0x331A JUMP JUMPDEST SWAP2 POP DUP2 SWAP1 POP SWAP2 SWAP1 POP JUMP JUMPDEST PUSH1 0x0 PUSH2 0x335D DUP3 PUSH2 0x2D4F JUMP JUMPDEST SWAP2 POP PUSH2 0x3368 DUP4 PUSH2 0x2D4F JUMP JUMPDEST SWAP3 POP DUP3 DUP3 ADD SWAP1 POP PUSH8 0xFFFFFFFFFFFFFFFF DUP2 GT ISZERO PUSH2 0x3388 JUMPI PUSH2 0x3387 PUSH2 0x3227 JUMP JUMPDEST JUMPDEST SWAP3 SWAP2 POP POP JUMP JUMPDEST PUSH1 0x0 PUSH2 0x3399 DUP3 PUSH2 0x2D4F JUMP JUMPDEST SWAP2 POP PUSH8 0xFFFFFFFFFFFFFFFF DUP3 SUB PUSH2 0x33B3 JUMPI PUSH2 0x33B2 PUSH2 0x3227 JUMP JUMPDEST JUMPDEST PUSH1 0x1 DUP3 ADD SWAP1 POP SWAP2 SWAP1 POP JUMP JUMPDEST PUSH1 0x0 PUSH2 0x33C9 DUP3 PUSH2 0x2489 JUMP JUMPDEST SWAP2 POP PUSH2 0x33D4 DUP4 PUSH2 0x2489 JUMP JUMPDEST SWAP3 POP DUP3 DUP3 SUB SWAP1 POP DUP2 DUP2 GT ISZERO PUSH2 0x33EC JUMPI PUSH2 0x33EB PUSH2 0x3227 JUMP JUMPDEST JUMPDEST SWAP3 SWAP2 POP POP JUMP JUMPDEST PUSH1 0x0 PUSH2 0x33FD DUP3 PUSH2 0x2489 JUMP JUMPDEST SWAP2 POP PUSH2 0x3408 DUP4 PUSH2 0x2489 JUMP JUMPDEST SWAP3 POP DUP3 DUP3 ADD SWAP1 POP DUP1 DUP3 GT ISZERO PUSH2 0x3420 JUMPI PUSH2 0x341F PUSH2 0x3227 JUMP JUMPDEST JUMPDEST SWAP3 SWAP2 POP POP JUMP JUMPDEST PUSH32 0x496E73756666696369656E742066756E64730000000000000000000000000000 PUSH1 0x0 DUP3 ADD MSTORE POP JUMP JUMPDEST PUSH1 0x0 PUSH2 0x345C PUSH1 0x12 DUP4 PUSH2 0x27AB JUMP JUMPDEST SWAP2 POP PUSH2 0x3467 DUP3 PUSH2 0x3426 JUMP JUMPDEST PUSH1 0x20 DUP3 ADD SWAP1 POP SWAP2 SWAP1 POP JUMP JUMPDEST PUSH1 0x0 PUSH1 0x20 DUP3 ADD SWAP1 POP DUP2 DUP2 SUB PUSH1 0x0 DUP4 ADD MSTORE PUSH2 0x348B DUP2 PUSH2 0x344F JUMP JUMPDEST SWAP1 POP SWAP2 SWAP1 POP JUMP JUMPDEST PUSH1 0x0 DUP2 SWAP1 POP DUP2 PUSH1 0x0 MSTORE PUSH1 0x20 PUSH1 0x0 KECCAK256 SWAP1 POP SWAP2 SWAP1 POP JUMP JUMPDEST PUSH1 0x0 PUSH1 0x20 PUSH1 0x1F DUP4 ADD DIV SWAP1 POP SWAP2 SWAP1 POP JUMP JUMPDEST PUSH1 0x0 DUP3 DUP3 SHL SWAP1 POP SWAP3 SWAP2 POP POP JUMP JUMPDEST PUSH1 0x0 PUSH1 0x8 DUP4 MUL PUSH2 0x34F4 PUSH32 0xFFFFFFFFFFFFFFFFFFFFFFFFFFFFFFFFFFFFFFFFFFFFFFFFFFFFFFFFFFFFFFFF DUP3 PUSH2 0x34B7 JUMP JUMPDEST PUSH2 0x34FE DUP7 DUP4 PUSH2 0x34B7 JUMP JUMPDEST SWAP6 POP DUP1 NOT DUP5 AND SWAP4 POP DUP1 DUP7 AND DUP5 OR SWAP3 POP POP POP SWAP4 SWAP3 POP POP POP JUMP JUMPDEST PUSH1 0x0 DUP2 SWAP1 POP SWAP2 SWAP1 POP JUMP JUMPDEST PUSH1 0x0 PUSH2 0x353B PUSH2 0x3536 PUSH2 0x3531 DUP5 PUSH2 0x2489 JUMP JUMPDEST PUSH2 0x3516 JUMP JUMPDEST PUSH2 0x2489 JUMP JUMPDEST SWAP1 POP SWAP2 SWAP1 POP JUMP JUMPDEST PUSH1 0x0 DUP2 SWAP1 POP SWAP2 SWAP1 POP JUMP JUMPDEST PUSH2 0x3555 DUP4 PUSH2 0x3520 JUMP JUMPDEST PUSH2 0x3569 PUSH2 0x3561 DUP3 PUSH2 0x3542 JUMP JUMPDEST DUP5 DUP5 SLOAD PUSH2 0x34C4 JUMP JUMPDEST DUP3 SSTORE POP POP POP POP JUMP JUMPDEST PUSH1 0x0 SWAP1 JUMP JUMPDEST PUSH2 0x357E PUSH2 0x3571 JUMP JUMPDEST PUSH2 0x3589 DUP2 DUP5 DUP5 PUSH2 0x354C JUMP JUMPDEST POP POP POP JUMP JUMPDEST JUMPDEST DUP2 DUP2 LT ISZERO PUSH2 0x35AD JUMPI PUSH2 0x35A2 PUSH1 0x0 DUP3 PUSH2 0x3576 JUMP JUMPDEST PUSH1 0x1 DUP2 ADD SWAP1 POP PUSH2 0x358F JUMP JUMPDEST POP POP JUMP JUMPDEST PUSH1 0x1F DUP3 GT ISZERO PUSH2 0x35F2 JUMPI PUSH2 0x35C3 DUP2 PUSH2 0x3492 JUMP JUMPDEST PUSH2 0x35CC DUP5 PUSH2 0x34A7 JUMP JUMPDEST DUP2 ADD PUSH1 0x20 DUP6 LT ISZERO PUSH2 0x35DB JUMPI DUP2 SWAP1 POP JUMPDEST PUSH2 0x35EF PUSH2 0x35E7 DUP6 PUSH2 0x34A7 JUMP JUMPDEST DUP4 ADD DUP3 PUSH2 0x358E JUMP JUMPDEST POP POP JUMPDEST POP POP POP JUMP JUMPDEST PUSH1 0x0 DUP3 DUP3 SHR SWAP1 POP SWAP3 SWAP2 POP POP JUMP JUMPDEST PUSH1 0x0 PUSH2 0x3615 PUSH1 0x0 NOT DUP5 PUSH1 0x8 MUL PUSH2 0x35F7 JUMP JUMPDEST NOT DUP1 DUP4 AND SWAP2 POP POP SWAP3 SWAP2 POP POP JUMP JUMPDEST PUSH1 0x0 PUSH2 0x362E DUP4 DUP4 PUSH2 0x3604 JUMP JUMPDEST SWAP2 POP DUP3 PUSH1 0x2 MUL DUP3 OR SWAP1 POP SWAP3 SWAP2 POP POP JUMP JUMPDEST PUSH2 0x3647 DUP3 PUSH2 0x27A0 JUMP JUMPDEST PUSH8 0xFFFFFFFFFFFFFFFF DUP2 GT ISZERO PUSH2 0x3660 JUMPI PUSH2 0x365F PUSH2 0x25FF JUMP JUMPDEST JUMPDEST PUSH2 0x366A DUP3 SLOAD PUSH2 0x3175 JUMP JUMPDEST PUSH2 0x3675 DUP3 DUP3 DUP6 PUSH2 0x35B1 JUMP JUMPDEST PUSH1 0x0 PUSH1 0x20 SWAP1 POP PUSH1 0x1F DUP4 GT PUSH1 0x1 DUP2 EQ PUSH2 0x36A8 JUMPI PUSH1 0x0 DUP5 ISZERO PUSH2 0x3696 JUMPI DUP3 DUP8 ADD MLOAD SWAP1 POP JUMPDEST PUSH2 0x36A0 DUP6 DUP3 PUSH2 0x3622 JUMP JUMPDEST DUP7 SSTORE POP PUSH2 0x3708 JUMP JUMPDEST PUSH1 0x1F NOT DUP5 AND PUSH2 0x36B6 DUP7 PUSH2 0x3492 JUMP JUMPDEST PUSH1 0x0 JUMPDEST DUP3 DUP2 LT ISZERO PUSH2 0x36DE JUMPI DUP5 DUP10 ADD MLOAD DUP3 SSTORE PUSH1 0x1 DUP3 ADD SWAP2 POP PUSH1 0x20 DUP6 ADD SWAP5 POP PUSH1 0x20 DUP2 ADD SWAP1 POP PUSH2 0x36B9 JUMP JUMPDEST DUP7 DUP4 LT ISZERO PUSH2 0x36FB JUMPI DUP5 DUP10 ADD MLOAD PUSH2 0x36F7 PUSH1 0x1F DUP10 AND DUP3 PUSH2 0x3604 JUMP JUMPDEST DUP4 SSTORE POP JUMPDEST PUSH1 0x1 PUSH1 0x2 DUP9 MUL ADD DUP9 SSTORE POP POP POP JUMPDEST POP POP POP POP POP POP JUMP JUMPDEST PUSH1 0x0 DUP2 MLOAD SWAP1 POP SWAP2 SWAP1 POP JUMP JUMPDEST PUSH1 0x0 DUP3 DUP3 MSTORE PUSH1 0x20 DUP3 ADD SWAP1 POP SWAP3 SWAP2 POP POP JUMP JUMPDEST PUSH1 0x0 PUSH2 0x3737 DUP3 PUSH2 0x3710 JUMP JUMPDEST PUSH2 0x3741 DUP2 DUP6 PUSH2 0x371B JUMP JUMPDEST SWAP4 POP PUSH2 0x3751 DUP2 DUP6 PUSH1 0x20 DUP7 ADD PUSH2 0x27BC JUMP JUMPDEST PUSH2 0x375A DUP2 PUSH2 0x25EE JUMP JUMPDEST DUP5 ADD SWAP2 POP POP SWAP3 SWAP2 POP POP JUMP JUMPDEST PUSH1 0x0 PUSH1 0xA0 DUP3 ADD SWAP1 POP PUSH2 0x377A PUSH1 0x0 DUP4 ADD DUP9 PUSH2 0x2EC5 JUMP JUMPDEST PUSH2 0x3787 PUSH1 0x20 DUP4 ADD DUP8 PUSH2 0x2EC5 JUMP JUMPDEST PUSH2 0x3794 PUSH1 0x40 DUP4 ADD DUP7 PUSH2 0x24FF JUMP JUMPDEST PUSH2 0x37A1 PUSH1 0x60 DUP4 ADD DUP6 PUSH2 0x24FF JUMP JUMPDEST DUP2 DUP2 SUB PUSH1 0x80 DUP4 ADD MSTORE PUSH2 0x37B3 DUP2 DUP5 PUSH2 0x372C JUMP JUMPDEST SWAP1 POP SWAP7 SWAP6 POP POP POP POP POP POP JUMP JUMPDEST PUSH1 0x0 DUP2 MLOAD SWAP1 POP PUSH2 0x37CE DUP2 PUSH2 0x2555 JUMP JUMPDEST SWAP3 SWAP2 POP POP JUMP JUMPDEST PUSH1 0x0 PUSH1 0x20 DUP3 DUP5 SUB SLT ISZERO PUSH2 0x37EA JUMPI PUSH2 0x37E9 PUSH2 0x2421 JUMP JUMPDEST JUMPDEST PUSH1 0x0 PUSH2 0x37F8 DUP5 DUP3 DUP6 ADD PUSH2 0x37BF JUMP JUMPDEST SWAP2 POP POP SWAP3 SWAP2 POP POP JUMP JUMPDEST PUSH1 0x0 PUSH1 0xA0 DUP3 ADD SWAP1 POP PUSH2 0x3816 PUSH1 0x0 DUP4 ADD DUP9 PUSH2 0x2EC5 JUMP JUMPDEST PUSH2 0x3823 PUSH1 0x20 DUP4 ADD DUP8 PUSH2 0x2EC5 JUMP JUMPDEST DUP2 DUP2 SUB PUSH1 0x40 DUP4 ADD MSTORE PUSH2 0x3835 DUP2 DUP7 PUSH2 0x2CCF JUMP JUMPDEST SWAP1 POP DUP2 DUP2 SUB PUSH1 0x60 DUP4 ADD MSTORE PUSH2 0x3849 DUP2 DUP6 PUSH2 0x2CCF JUMP JUMPDEST SWAP1 POP DUP2 DUP2 SUB PUSH1 0x80 DUP4 ADD MSTORE PUSH2 0x385D DUP2 DUP5 PUSH2 0x372C JUMP JUMPDEST SWAP1 POP SWAP7 SWAP6 POP POP POP POP POP POP JUMP JUMPDEST PUSH1 0x0 PUSH1 0x80 DUP3 ADD SWAP1 POP PUSH2 0x387E PUSH1 0x0 DUP4 ADD DUP8 PUSH2 0x2EC5 JUMP JUMPDEST PUSH2 0x388B PUSH1 0x20 DUP4 ADD DUP7 PUSH2 0x24FF JUMP JUMPDEST PUSH2 0x3898 PUSH1 0x40 DUP4 ADD DUP6 PUSH2 0x24FF JUMP JUMPDEST PUSH2 0x38A5 PUSH1 0x60 DUP4 ADD DUP5 PUSH2 0x24FF JUMP JUMPDEST SWAP6 SWAP5 POP POP POP POP POP JUMP JUMPDEST PUSH1 0x0 PUSH1 0x40 DUP3 ADD SWAP1 POP DUP2 DUP2 SUB PUSH1 0x0 DUP4 ADD MSTORE PUSH2 0x38C8 DUP2 DUP6 PUSH2 0x2CCF JUMP JUMPDEST SWAP1 POP DUP2 DUP2 SUB PUSH1 0x20 DUP4 ADD MSTORE PUSH2 0x38DC DUP2 DUP5 PUSH2 0x2CCF JUMP JUMPDEST SWAP1 POP SWAP4 SWAP3 POP POP POP JUMP INVALID LOG2 PUSH5 0x6970667358 0x22 SLT KECCAK256 CREATE EQ 0xEE SWAP12 0x4D 0xAB 0x2A EXTCODEHASH 0xBA 0xCD DUP10 PUSH25 0xB718AB854F08814EDD04ACF57185944120AB6FAF64736F6C63 NUMBER STOP ADDMOD EQ STOP CALLER "},"methodIdentifiers":{"balanceOf(address,uint256)":"00fdd58e","balanceOfBatch(address[],uint256[])":"4e1273f4","buy_ticket(string,bytes)":"f20dfe12","exists(uint256)":"4f558e79","incrementScore(uint256,address,string)":"985d3797","isApprovedForAll(address,address)":"e985e9c5","mint(address,uint256,uint256,bytes)":"731133e9","mintBatch(address,uint256[],uint256[],bytes)":"1f7fdffa","owner()":"8da5cb5b","renounceOwnership()":"715018a6","safeBatchTransferFrom(address,address,uint256[],uint256[],bytes)":"2eb2c2d6","safeTransferFrom(address,address,uint256,uint256,bytes)":"f242432a","sale(uint256,uint64,uint256,string,bytes)":"71e33e78","setApprovalForAll(address,bool)":"a22cb465","setURI(string)":"02fe5305","supportsInterface(bytes4)":"01ffc9a7","totalSupply()":"18160ddd","totalSupply(uint256)":"bd85b039","transferOwnership(address)":"f2fde38b","uri(uint256)":"0e89341c"}}}}}