{
  "_format": "hh-sol-artifact-1",
  "contractName": "FanaTick",
  "sourceName": "contracts/NFT_Marketplace.sol",
  "abi": [
    {
      "inputs": [
        {
          "internalType": "address",
          "name": "initialOwner",
          "type": "address"
        }
      ],
      "stateMutability": "nonpayable",
      "type": "constructor"
    },
    {
      "inputs": [
        {
          "internalType": "address",
          "name": "sender",
          "type": "address"
        },
        {
          "internalType": "uint256",
          "name": "balance",
          "type": "uint256"
        },
        {
          "internalType": "uint256",
          "name": "needed",
          "type": "uint256"
        },
        {
          "internalType": "uint256",
          "name": "tokenId",
          "type": "uint256"
        }
      ],
      "name": "ERC1155InsufficientBalance",
      "type": "error"
    },
    {
      "inputs": [
        {
          "internalType": "address",
          "name": "approver",
          "type": "address"
        }
      ],
      "name": "ERC1155InvalidApprover",
      "type": "error"
    },
    {
      "inputs": [
        {
          "internalType": "uint256",
          "name": "idsLength",
          "type": "uint256"
        },
        {
          "internalType": "uint256",
          "name": "valuesLength",
          "type": "uint256"
        }
      ],
      "name": "ERC1155InvalidArrayLength",
      "type": "error"
    },
    {
      "inputs": [
        {
          "internalType": "address",
          "name": "operator",
          "type": "address"
        }
      ],
      "name": "ERC1155InvalidOperator",
      "type": "error"
    },
    {
      "inputs": [
        {
          "internalType": "address",
          "name": "receiver",
          "type": "address"
        }
      ],
      "name": "ERC1155InvalidReceiver",
      "type": "error"
    },
    {
      "inputs": [
        {
          "internalType": "address",
          "name": "sender",
          "type": "address"
        }
      ],
      "name": "ERC1155InvalidSender",
      "type": "error"
    },
    {
      "inputs": [
        {
          "internalType": "address",
          "name": "operator",
          "type": "address"
        },
        {
          "internalType": "address",
          "name": "owner",
          "type": "address"
        }
      ],
      "name": "ERC1155MissingApprovalForAll",
      "type": "error"
    },
    {
      "inputs": [
        {
          "internalType": "address",
          "name": "owner",
          "type": "address"
        }
      ],
      "name": "OwnableInvalidOwner",
      "type": "error"
    },
    {
      "inputs": [
        {
          "internalType": "address",
          "name": "account",
          "type": "address"
        }
      ],
      "name": "OwnableUnauthorizedAccount",
      "type": "error"
    },
    {
      "anonymous": false,
      "inputs": [
        {
          "indexed": true,
          "internalType": "address",
          "name": "account",
          "type": "address"
        },
        {
          "indexed": true,
          "internalType": "address",
          "name": "operator",
          "type": "address"
        },
        {
          "indexed": false,
          "internalType": "bool",
          "name": "approved",
          "type": "bool"
        }
      ],
      "name": "ApprovalForAll",
      "type": "event"
    },
    {
      "anonymous": false,
      "inputs": [
        {
          "indexed": true,
          "internalType": "address",
          "name": "previousOwner",
          "type": "address"
        },
        {
          "indexed": true,
          "internalType": "address",
          "name": "newOwner",
          "type": "address"
        }
      ],
      "name": "OwnershipTransferred",
      "type": "event"
    },
    {
      "anonymous": false,
      "inputs": [
        {
          "indexed": true,
          "internalType": "address",
          "name": "player",
          "type": "address"
        },
        {
          "indexed": false,
          "internalType": "uint256",
          "name": "newScore",
          "type": "uint256"
        }
      ],
      "name": "POIUpdated",
      "type": "event"
    },
    {
      "anonymous": false,
      "inputs": [
        {
          "indexed": true,
          "internalType": "address",
          "name": "operator",
          "type": "address"
        },
        {
          "indexed": true,
          "internalType": "address",
          "name": "from",
          "type": "address"
        },
        {
          "indexed": true,
          "internalType": "address",
          "name": "to",
          "type": "address"
        },
        {
          "indexed": false,
          "internalType": "uint256[]",
          "name": "ids",
          "type": "uint256[]"
        },
        {
          "indexed": false,
          "internalType": "uint256[]",
          "name": "values",
          "type": "uint256[]"
        }
      ],
      "name": "TransferBatch",
      "type": "event"
    },
    {
      "anonymous": false,
      "inputs": [
        {
          "indexed": true,
          "internalType": "address",
          "name": "operator",
          "type": "address"
        },
        {
          "indexed": true,
          "internalType": "address",
          "name": "from",
          "type": "address"
        },
        {
          "indexed": true,
          "internalType": "address",
          "name": "to",
          "type": "address"
        },
        {
          "indexed": false,
          "internalType": "uint256",
          "name": "id",
          "type": "uint256"
        },
        {
          "indexed": false,
          "internalType": "uint256",
          "name": "value",
          "type": "uint256"
        }
      ],
      "name": "TransferSingle",
      "type": "event"
    },
    {
      "anonymous": false,
      "inputs": [
        {
          "indexed": false,
          "internalType": "string",
          "name": "value",
          "type": "string"
        },
        {
          "indexed": true,
          "internalType": "uint256",
          "name": "id",
          "type": "uint256"
        }
      ],
      "name": "URI",
      "type": "event"
    },
    {
      "inputs": [
        {
          "internalType": "address",
          "name": "account",
          "type": "address"
        },
        {
          "internalType": "uint256",
          "name": "id",
          "type": "uint256"
        }
      ],
      "name": "balanceOf",
      "outputs": [
        {
          "internalType": "uint256",
          "name": "",
          "type": "uint256"
        }
      ],
      "stateMutability": "view",
      "type": "function"
    },
    {
      "inputs": [
        {
          "internalType": "address[]",
          "name": "accounts",
          "type": "address[]"
        },
        {
          "internalType": "uint256[]",
          "name": "ids",
          "type": "uint256[]"
        }
      ],
      "name": "balanceOfBatch",
      "outputs": [
        {
          "internalType": "uint256[]",
          "name": "",
          "type": "uint256[]"
        }
      ],
      "stateMutability": "view",
      "type": "function"
    },
    {
      "inputs": [
        {
          "internalType": "string",
          "name": "artist",
          "type": "string"
        },
        {
          "internalType": "bytes",
          "name": "tokenURIs",
          "type": "bytes"
        }
      ],
      "name": "buy_ticket",
      "outputs": [],
      "stateMutability": "payable",
      "type": "function"
    },
    {
      "inputs": [
        {
          "internalType": "uint256",
          "name": "_incrementBy",
          "type": "uint256"
        },
        {
          "internalType": "address",
          "name": "_sender",
          "type": "address"
        },
        {
          "internalType": "string",
          "name": "artist",
          "type": "string"
        }
      ],
      "name": "incrementScore",
      "outputs": [],
      "stateMutability": "nonpayable",
      "type": "function"
    },
    {
      "inputs": [
        {
          "internalType": "address",
          "name": "account",
          "type": "address"
        },
        {
          "internalType": "address",
          "name": "operator",
          "type": "address"
        }
      ],
      "name": "isApprovedForAll",
      "outputs": [
        {
          "internalType": "bool",
          "name": "",
          "type": "bool"
        }
      ],
      "stateMutability": "view",
      "type": "function"
    },
    {
      "inputs": [
        {
          "internalType": "address",
          "name": "account",
          "type": "address"
        },
        {
          "internalType": "uint256",
          "name": "id",
          "type": "uint256"
        },
        {
          "internalType": "uint256",
          "name": "amount",
          "type": "uint256"
        },
        {
          "internalType": "bytes",
          "name": "data",
          "type": "bytes"
        }
      ],
      "name": "mint",
      "outputs": [],
      "stateMutability": "nonpayable",
      "type": "function"
    },
    {
      "inputs": [],
      "name": "owner",
      "outputs": [
        {
          "internalType": "address",
          "name": "",
          "type": "address"
        }
      ],
      "stateMutability": "view",
      "type": "function"
    },
    {
      "inputs": [],
      "name": "renounceOwnership",
      "outputs": [],
      "stateMutability": "nonpayable",
      "type": "function"
    },
    {
      "inputs": [
        {
          "internalType": "address",
          "name": "from",
          "type": "address"
        },
        {
          "internalType": "address",
          "name": "to",
          "type": "address"
        },
        {
          "internalType": "uint256[]",
          "name": "ids",
          "type": "uint256[]"
        },
        {
          "internalType": "uint256[]",
          "name": "values",
          "type": "uint256[]"
        },
        {
          "internalType": "bytes",
          "name": "data",
          "type": "bytes"
        }
      ],
      "name": "safeBatchTransferFrom",
      "outputs": [],
      "stateMutability": "nonpayable",
      "type": "function"
    },
    {
      "inputs": [
        {
          "internalType": "address",
          "name": "from",
          "type": "address"
        },
        {
          "internalType": "address",
          "name": "to",
          "type": "address"
        },
        {
          "internalType": "uint256",
          "name": "id",
          "type": "uint256"
        },
        {
          "internalType": "uint256",
          "name": "value",
          "type": "uint256"
        },
        {
          "internalType": "bytes",
          "name": "data",
          "type": "bytes"
        }
      ],
      "name": "safeTransferFrom",
      "outputs": [],
      "stateMutability": "nonpayable",
      "type": "function"
    },
    {
      "inputs": [
        {
          "internalType": "uint256",
          "name": "seats",
          "type": "uint256"
        },
        {
          "internalType": "uint64",
          "name": "seats_poi",
          "type": "uint64"
        },
        {
          "internalType": "uint256",
          "name": "gprice",
          "type": "uint256"
        },
        {
          "internalType": "string",
          "name": "artist",
          "type": "string"
        },
        {
          "internalType": "bytes",
          "name": "tokenURIs",
          "type": "bytes"
        }
      ],
      "name": "sale",
      "outputs": [],
      "stateMutability": "nonpayable",
      "type": "function"
    },
    {
      "inputs": [
        {
          "internalType": "address",
          "name": "operator",
          "type": "address"
        },
        {
          "internalType": "bool",
          "name": "approved",
          "type": "bool"
        }
      ],
      "name": "setApprovalForAll",
      "outputs": [],
      "stateMutability": "nonpayable",
      "type": "function"
    },
    {
      "inputs": [
        {
          "internalType": "bytes4",
          "name": "interfaceId",
          "type": "bytes4"
        }
      ],
      "name": "supportsInterface",
      "outputs": [
        {
          "internalType": "bool",
          "name": "",
          "type": "bool"
        }
      ],
      "stateMutability": "view",
      "type": "function"
    },
    {
      "inputs": [
        {
          "internalType": "address",
          "name": "newOwner",
          "type": "address"
        }
      ],
      "name": "transferOwnership",
      "outputs": [],
      "stateMutability": "nonpayable",
      "type": "function"
    },
    {
      "inputs": [
        {
          "internalType": "uint256",
          "name": "",
          "type": "uint256"
        }
      ],
      "name": "uri",
      "outputs": [
        {
          "internalType": "string",
          "name": "",
          "type": "string"
        }
      ],
      "stateMutability": "view",
      "type": "function"
    }
  ],
  "bytecode": "0x60806040523480156200001157600080fd5b50604051620038f7380380620038f783398181016040528101906200003791906200026e565b806040518060200160405280600081525062000059816200012960201b60201c565b50600073ffffffffffffffffffffffffffffffffffffffff168173ffffffffffffffffffffffffffffffffffffffff1603620000cf5760006040517f1e4fbdf7000000000000000000000000000000000000000000000000000000008152600401620000c69190620002b1565b60405180910390fd5b620000e0816200013e60201b60201c565b5080600560006101000a81548173ffffffffffffffffffffffffffffffffffffffff021916908373ffffffffffffffffffffffffffffffffffffffff160217905550506200062f565b80600290816200013a919062000548565b5050565b6000600360009054906101000a900473ffffffffffffffffffffffffffffffffffffffff16905081600360006101000a81548173ffffffffffffffffffffffffffffffffffffffff021916908373ffffffffffffffffffffffffffffffffffffffff1602179055508173ffffffffffffffffffffffffffffffffffffffff168173ffffffffffffffffffffffffffffffffffffffff167f8be0079c531659141344cd1fd0a4f28419497f9722a3daafe3b4186f6b6457e060405160405180910390a35050565b600080fd5b600073ffffffffffffffffffffffffffffffffffffffff82169050919050565b6000620002368262000209565b9050919050565b620002488162000229565b81146200025457600080fd5b50565b60008151905062000268816200023d565b92915050565b60006020828403121562000287576200028662000204565b5b6000620002978482850162000257565b91505092915050565b620002ab8162000229565b82525050565b6000602082019050620002c86000830184620002a0565b92915050565b600081519050919050565b7f4e487b7100000000000000000000000000000000000000000000000000000000600052604160045260246000fd5b7f4e487b7100000000000000000000000000000000000000000000000000000000600052602260045260246000fd5b600060028204905060018216806200035057607f821691505b60208210810362000366576200036562000308565b5b50919050565b60008190508160005260206000209050919050565b60006020601f8301049050919050565b600082821b905092915050565b600060088302620003d07fffffffffffffffffffffffffffffffffffffffffffffffffffffffffffffffff8262000391565b620003dc868362000391565b95508019841693508086168417925050509392505050565b6000819050919050565b6000819050919050565b600062000429620004236200041d84620003f4565b620003fe565b620003f4565b9050919050565b6000819050919050565b620004458362000408565b6200045d620004548262000430565b8484546200039e565b825550505050565b600090565b6200047462000465565b620004818184846200043a565b505050565b5b81811015620004a9576200049d6000826200046a565b60018101905062000487565b5050565b601f821115620004f857620004c2816200036c565b620004cd8462000381565b81016020851015620004dd578190505b620004f5620004ec8562000381565b83018262000486565b50505b505050565b600082821c905092915050565b60006200051d60001984600802620004fd565b1980831691505092915050565b60006200053883836200050a565b9150826002028217905092915050565b6200055382620002ce565b67ffffffffffffffff8111156200056f576200056e620002d9565b5b6200057b825462000337565b62000588828285620004ad565b600060209050601f831160018114620005c05760008415620005ab578287015190505b620005b785826200052a565b86555062000627565b601f198416620005d0866200036c565b60005b82811015620005fa57848901518255600182019150602085019450602081019050620005d3565b868310156200061a578489015162000616601f8916826200050a565b8355505b6001600288020188555050505b505050505050565b6132b8806200063f6000396000f3fe6080604052600436106100e75760003560e01c8063731133e91161008a578063e985e9c511610059578063e985e9c5146102ef578063f20dfe121461032c578063f242432a14610348578063f2fde38b14610371576100e7565b8063731133e9146102495780638da5cb5b14610272578063985d37971461029d578063a22cb465146102c6576100e7565b80632eb2c2d6116100c65780632eb2c2d6146101a35780634e1273f4146101cc578063715018a61461020957806371e33e7814610220576100e7565b8062fdd58e146100ec57806301ffc9a7146101295780630e89341c14610166575b600080fd5b3480156100f857600080fd5b50610113600480360381019061010e91906120d9565b61039a565b6040516101209190612128565b60405180910390f35b34801561013557600080fd5b50610150600480360381019061014b919061219b565b6103f4565b60405161015d91906121e3565b60405180910390f35b34801561017257600080fd5b5061018d600480360381019061018891906121fe565b6104d6565b60405161019a91906122bb565b60405180910390f35b3480156101af57600080fd5b506101ca60048036038101906101c591906124da565b61056a565b005b3480156101d857600080fd5b506101f360048036038101906101ee919061266c565b610612565b60405161020091906127a2565b60405180910390f35b34801561021557600080fd5b5061021e610721565b005b34801561022c57600080fd5b5061024760048036038101906102429190612900565b610735565b005b34801561025557600080fd5b50610270600480360381019061026b91906129b6565b610b9b565b005b34801561027e57600080fd5b50610287610bfa565b6040516102949190612a4d565b60405180910390f35b3480156102a957600080fd5b506102c460048036038101906102bf9190612abe565b610c24565b005b3480156102d257600080fd5b506102ed60048036038101906102e89190612b5e565b610e34565b005b3480156102fb57600080fd5b5061031660048036038101906103119190612b9e565b610e4a565b60405161032391906121e3565b60405180910390f35b61034660048036038101906103419190612bde565b610ede565b005b34801561035457600080fd5b5061036f600480360381019061036a9190612c5f565b611106565b005b34801561037d57600080fd5b5061039860048036038101906103939190612cf6565b6111ae565b005b600080600083815260200190815260200160002060008473ffffffffffffffffffffffffffffffffffffffff1673ffffffffffffffffffffffffffffffffffffffff16815260200190815260200160002054905092915050565b60007fd9b67a26000000000000000000000000000000000000000000000000000000007bffffffffffffffffffffffffffffffffffffffffffffffffffffffff1916827bffffffffffffffffffffffffffffffffffffffffffffffffffffffff191614806104bf57507f0e89341c000000000000000000000000000000000000000000000000000000007bffffffffffffffffffffffffffffffffffffffffffffffffffffffff1916827bffffffffffffffffffffffffffffffffffffffffffffffffffffffff1916145b806104cf57506104ce82611234565b5b9050919050565b6060600280546104e590612d52565b80601f016020809104026020016040519081016040528092919081815260200182805461051190612d52565b801561055e5780601f106105335761010080835404028352916020019161055e565b820191906000526020600020905b81548152906001019060200180831161054157829003601f168201915b50505050509050919050565b600061057461129e565b90508073ffffffffffffffffffffffffffffffffffffffff168673ffffffffffffffffffffffffffffffffffffffff16141580156105b957506105b78682610e4a565b155b156105fd5780866040517fe237d9220000000000000000000000000000000000000000000000000000000081526004016105f4929190612d83565b60405180910390fd5b61060a86868686866112a6565b505050505050565b6060815183511461065e57815183516040517f5b059991000000000000000000000000000000000000000000000000000000008152600401610655929190612dac565b60405180910390fd5b6000835167ffffffffffffffff81111561067b5761067a6122e2565b5b6040519080825280602002602001820160405280156106a95781602001602082028036833780820191505090505b50905060005b8451811015610716576106e66106ce828761139e90919063ffffffff16565b6106e183876113b290919063ffffffff16565b61039a565b8282815181106106f9576106f8612dd5565b5b6020026020010181815250508061070f90612e33565b90506106af565b508091505092915050565b6107296113c6565b610733600061144d565b565b8467ffffffffffffffff166004846040516107509190612eb7565b90815260200160405180910390206002018054905010156108f75760005b600460405161077c90612f1a565b9081526020016040518091039020600201805490508167ffffffffffffffff1610156108405761082d6004856040516107b59190612eb7565b90815260200160405180910390206002018267ffffffffffffffff16815481106107e2576107e1612dd5565b5b9060005260206000200160009054906101000a900473ffffffffffffffffffffffffffffffffffffffff1660018361081a9190612f2f565b67ffffffffffffffff1660018686610b9b565b808061083890612f6b565b91505061076e565b506000604051806080016040528042815260200188815260200186815260200160018861086d9190612f2f565b67ffffffffffffffff16815250905060048460405161088c9190612eb7565b908152602001604051809103902060040181908060018154018082558091505060019003906000526020600020906004020160009091909190915060008201518160000155602082015181600101556040820151816002015560608201518160030155505050610b93565b60008567ffffffffffffffff1667ffffffffffffffff81111561091d5761091c6122e2565b5b60405190808252806020026020018201604052801561094b5781602001602082028036833780820191505090505b50905060005b8667ffffffffffffffff168167ffffffffffffffff161015610aca576109f86004866040516109809190612eb7565b90815260200160405180910390206002018267ffffffffffffffff16815481106109ad576109ac612dd5565b5b9060005260206000200160009054906101000a900473ffffffffffffffffffffffffffffffffffffffff166001836109e59190612f2f565b67ffffffffffffffff1660018787610b9b565b600485604051610a089190612eb7565b90815260200160405180910390206002018167ffffffffffffffff1681548110610a3557610a34612dd5565b5b9060005260206000200160009054906101000a900473ffffffffffffffffffffffffffffffffffffffff16828267ffffffffffffffff1681518110610a7d57610a7c612dd5565b5b602002602001019073ffffffffffffffffffffffffffffffffffffffff16908173ffffffffffffffffffffffffffffffffffffffff16815250508080610ac290612f6b565b915050610951565b50600060405180608001604052804281526020018867ffffffffffffffff168a610af49190612f9b565b8152602001878152602001600189610b0c9190612f2f565b67ffffffffffffffff168152509050600485604051610b2b9190612eb7565b908152602001604051809103902060040181908060018154018082558091505060019003906000526020600020906004020160009091909190915060008201518160000155602082015181600101556040820151816002015560608201518160030155505050505b505050505050565b610ba36113c6565b610bf385858585858080601f016020809104026020016040519081016040528093929190818152602001838380828437600081840152601f19601f82011690508083019250505050505050611513565b5050505050565b6000600360009054906101000a900473ffffffffffffffffffffffffffffffffffffffff16905090565b600060048383604051610c38929190612ff4565b908152602001604051809103902060000160008573ffffffffffffffffffffffffffffffffffffffff1673ffffffffffffffffffffffffffffffffffffffff1681526020019081526020016000205403610d115760048282604051610c9e929190612ff4565b9081526020016040518091039020600201839080600181540180825580915050600190039060005260206000200160009091909190916101000a81548173ffffffffffffffffffffffffffffffffffffffff021916908373ffffffffffffffffffffffffffffffffffffffff1602179055505b836004604051610d2090612f1a565b908152602001604051809103902060000160008573ffffffffffffffffffffffffffffffffffffffff1673ffffffffffffffffffffffffffffffffffffffff1681526020019081526020016000206000828254610d7d919061300d565b925050819055508273ffffffffffffffffffffffffffffffffffffffff167f40f839c1403eb49fa41afde447358e499b01b7c5aa7e51c628b52cbc5766cb486004604051610dca90612f1a565b908152602001604051809103902060000160008673ffffffffffffffffffffffffffffffffffffffff1673ffffffffffffffffffffffffffffffffffffffff16815260200190815260200160002054604051610e269190612128565b60405180910390a250505050565b610e46610e3f61129e565b83836115ac565b5050565b6000600160008473ffffffffffffffffffffffffffffffffffffffff1673ffffffffffffffffffffffffffffffffffffffff16815260200190815260200160002060008373ffffffffffffffffffffffffffffffffffffffff1673ffffffffffffffffffffffffffffffffffffffff16815260200190815260200160002060009054906101000a900460ff16905092915050565b600060048585604051610ef2929190612ff4565b9081526020016040518091039020600401805490509050600060048686604051610f1d929190612ff4565b9081526020016040518091039020600401600183610f3b9190612f9b565b81548110610f4c57610f4b612dd5565b5b9060005260206000209060040201600301549050600160048787604051610f74929190612ff4565b9081526020016040518091039020600401600184610f929190612f9b565b81548110610fa357610fa2612dd5565b5b90600052602060002090600402016003016000828254610fc3919061300d565b9250508190555060048686604051610fdc929190612ff4565b9081526020016040518091039020600401600183610ffa9190612f9b565b8154811061100b5761100a612dd5565b5b90600052602060002090600402016002015434101561105f576040517f08c379a00000000000000000000000000000000000000000000000000000000081526004016110569061308d565b60405180910390fd5b6110b03382600187878080601f016020809104026020016040519081016040528093929190818152602001838380828437600081840152601f19601f82011690508083019250505050505050611513565b6110b8610bfa565b73ffffffffffffffffffffffffffffffffffffffff166108fc349081150290604051600060405180830381858888f193505050501580156110fd573d6000803e3d6000fd5b50505050505050565b600061111061129e565b90508073ffffffffffffffffffffffffffffffffffffffff168673ffffffffffffffffffffffffffffffffffffffff161415801561115557506111538682610e4a565b155b156111995780866040517fe237d922000000000000000000000000000000000000000000000000000000008152600401611190929190612d83565b60405180910390fd5b6111a6868686868661171c565b505050505050565b6111b66113c6565b600073ffffffffffffffffffffffffffffffffffffffff168173ffffffffffffffffffffffffffffffffffffffff16036112285760006040517f1e4fbdf700000000000000000000000000000000000000000000000000000000815260040161121f9190612a4d565b60405180910390fd5b6112318161144d565b50565b60007f01ffc9a7000000000000000000000000000000000000000000000000000000007bffffffffffffffffffffffffffffffffffffffffffffffffffffffff1916827bffffffffffffffffffffffffffffffffffffffffffffffffffffffff1916149050919050565b600033905090565b600073ffffffffffffffffffffffffffffffffffffffff168473ffffffffffffffffffffffffffffffffffffffff16036113185760006040517f57f447ce00000000000000000000000000000000000000000000000000000000815260040161130f9190612a4d565b60405180910390fd5b600073ffffffffffffffffffffffffffffffffffffffff168573ffffffffffffffffffffffffffffffffffffffff160361138a5760006040517f01a835140000000000000000000000000000000000000000000000000000000081526004016113819190612a4d565b60405180910390fd5b6113978585858585611827565b5050505050565b600060208202602084010151905092915050565b600060208202602084010151905092915050565b6113ce61129e565b73ffffffffffffffffffffffffffffffffffffffff166113ec610bfa565b73ffffffffffffffffffffffffffffffffffffffff161461144b5761140f61129e565b6040517f118cdaa70000000000000000000000000000000000000000000000000000000081526004016114429190612a4d565b60405180910390fd5b565b6000600360009054906101000a900473ffffffffffffffffffffffffffffffffffffffff16905081600360006101000a81548173ffffffffffffffffffffffffffffffffffffffff021916908373ffffffffffffffffffffffffffffffffffffffff1602179055508173ffffffffffffffffffffffffffffffffffffffff168173ffffffffffffffffffffffffffffffffffffffff167f8be0079c531659141344cd1fd0a4f28419497f9722a3daafe3b4186f6b6457e060405160405180910390a35050565b600073ffffffffffffffffffffffffffffffffffffffff168473ffffffffffffffffffffffffffffffffffffffff16036115855760006040517f57f447ce00000000000000000000000000000000000000000000000000000000815260040161157c9190612a4d565b60405180910390fd5b60008061159285856118d9565b915091506115a4600087848487611827565b505050505050565b600073ffffffffffffffffffffffffffffffffffffffff168273ffffffffffffffffffffffffffffffffffffffff160361161e5760006040517fced3e1000000000000000000000000000000000000000000000000000000000081526004016116159190612a4d565b60405180910390fd5b80600160008573ffffffffffffffffffffffffffffffffffffffff1673ffffffffffffffffffffffffffffffffffffffff16815260200190815260200160002060008473ffffffffffffffffffffffffffffffffffffffff1673ffffffffffffffffffffffffffffffffffffffff16815260200190815260200160002060006101000a81548160ff0219169083151502179055508173ffffffffffffffffffffffffffffffffffffffff168373ffffffffffffffffffffffffffffffffffffffff167f17307eab39ab6107e8899845ad3d59bd9653f200f220920489ca2b5937696c318360405161170f91906121e3565b60405180910390a3505050565b600073ffffffffffffffffffffffffffffffffffffffff168473ffffffffffffffffffffffffffffffffffffffff160361178e5760006040517f57f447ce0000000000000000000000000000000000000000000000000000000081526004016117859190612a4d565b60405180910390fd5b600073ffffffffffffffffffffffffffffffffffffffff168573ffffffffffffffffffffffffffffffffffffffff16036118005760006040517f01a835140000000000000000000000000000000000000000000000000000000081526004016117f79190612a4d565b60405180910390fd5b60008061180d85856118d9565b9150915061181e8787848487611827565b50505050505050565b61183385858585611909565b600073ffffffffffffffffffffffffffffffffffffffff168473ffffffffffffffffffffffffffffffffffffffff16146118d257600061187161129e565b905060018451036118c15760006118926000866113b290919063ffffffff16565b905060006118aa6000866113b290919063ffffffff16565b90506118ba83898985858961191b565b50506118d0565b6118cf818787878787611acf565b5b505b5050505050565b60608060405191506001825283602083015260408201905060018152826020820152604081016040529250929050565b61191584848484611c83565b50505050565b60008473ffffffffffffffffffffffffffffffffffffffff163b1115611ac7578373ffffffffffffffffffffffffffffffffffffffff1663f23a6e6187878686866040518663ffffffff1660e01b815260040161197c959493929190613102565b6020604051808303816000875af19250505080156119b857506040513d601f19601f820116820180604052508101906119b59190613171565b60015b611a3c573d80600081146119e8576040519150601f19603f3d011682016040523d82523d6000602084013e6119ed565b606091505b506000815103611a3457846040517f57f447ce000000000000000000000000000000000000000000000000000000008152600401611a2b9190612a4d565b60405180910390fd5b805181602001fd5b63f23a6e6160e01b7bffffffffffffffffffffffffffffffffffffffffffffffffffffffff1916817bffffffffffffffffffffffffffffffffffffffffffffffffffffffff191614611ac557846040517f57f447ce000000000000000000000000000000000000000000000000000000008152600401611abc9190612a4d565b60405180910390fd5b505b505050505050565b60008473ffffffffffffffffffffffffffffffffffffffff163b1115611c7b578373ffffffffffffffffffffffffffffffffffffffff1663bc197c8187878686866040518663ffffffff1660e01b8152600401611b3095949392919061319e565b6020604051808303816000875af1925050508015611b6c57506040513d601f19601f82011682018060405250810190611b699190613171565b60015b611bf0573d8060008114611b9c576040519150601f19603f3d011682016040523d82523d6000602084013e611ba1565b606091505b506000815103611be857846040517f57f447ce000000000000000000000000000000000000000000000000000000008152600401611bdf9190612a4d565b60405180910390fd5b805181602001fd5b63bc197c8160e01b7bffffffffffffffffffffffffffffffffffffffffffffffffffffffff1916817bffffffffffffffffffffffffffffffffffffffffffffffffffffffff191614611c7957846040517f57f447ce000000000000000000000000000000000000000000000000000000008152600401611c709190612a4d565b60405180910390fd5b505b505050505050565b8051825114611ccd57815181516040517f5b059991000000000000000000000000000000000000000000000000000000008152600401611cc4929190612dac565b60405180910390fd5b6000611cd761129e565b905060005b8351811015611eec576000611cfa82866113b290919063ffffffff16565b90506000611d1183866113b290919063ffffffff16565b9050600073ffffffffffffffffffffffffffffffffffffffff168873ffffffffffffffffffffffffffffffffffffffff1614611e3e57600080600084815260200190815260200160002060008a73ffffffffffffffffffffffffffffffffffffffff1673ffffffffffffffffffffffffffffffffffffffff16815260200190815260200160002054905081811015611de657888183856040517f03dee4c5000000000000000000000000000000000000000000000000000000008152600401611ddd9493929190613206565b60405180910390fd5b81810360008085815260200190815260200160002060008b73ffffffffffffffffffffffffffffffffffffffff1673ffffffffffffffffffffffffffffffffffffffff16815260200190815260200160002081905550505b600073ffffffffffffffffffffffffffffffffffffffff168773ffffffffffffffffffffffffffffffffffffffff1614611ed9578060008084815260200190815260200160002060008973ffffffffffffffffffffffffffffffffffffffff1673ffffffffffffffffffffffffffffffffffffffff1681526020019081526020016000206000828254611ed1919061300d565b925050819055505b505080611ee590612e33565b9050611cdc565b506001835103611fab576000611f0c6000856113b290919063ffffffff16565b90506000611f246000856113b290919063ffffffff16565b90508573ffffffffffffffffffffffffffffffffffffffff168773ffffffffffffffffffffffffffffffffffffffff168473ffffffffffffffffffffffffffffffffffffffff167fc3d58168c5ae7397731d063d5bbf3d657854427343f4c083240f7aacaa2d0f628585604051611f9c929190612dac565b60405180910390a4505061202a565b8373ffffffffffffffffffffffffffffffffffffffff168573ffffffffffffffffffffffffffffffffffffffff168273ffffffffffffffffffffffffffffffffffffffff167f4a39dc06d4c0dbc64b70af90fd698a233a518aa5d07e595d983b8c0526c8f7fb868660405161202192919061324b565b60405180910390a45b5050505050565b6000604051905090565b600080fd5b600080fd5b600073ffffffffffffffffffffffffffffffffffffffff82169050919050565b600061207082612045565b9050919050565b61208081612065565b811461208b57600080fd5b50565b60008135905061209d81612077565b92915050565b6000819050919050565b6120b6816120a3565b81146120c157600080fd5b50565b6000813590506120d3816120ad565b92915050565b600080604083850312156120f0576120ef61203b565b5b60006120fe8582860161208e565b925050602061210f858286016120c4565b9150509250929050565b612122816120a3565b82525050565b600060208201905061213d6000830184612119565b92915050565b60007fffffffff0000000000000000000000000000000000000000000000000000000082169050919050565b61217881612143565b811461218357600080fd5b50565b6000813590506121958161216f565b92915050565b6000602082840312156121b1576121b061203b565b5b60006121bf84828501612186565b91505092915050565b60008115159050919050565b6121dd816121c8565b82525050565b60006020820190506121f860008301846121d4565b92915050565b6000602082840312156122145761221361203b565b5b6000612222848285016120c4565b91505092915050565b600081519050919050565b600082825260208201905092915050565b60005b8381101561226557808201518184015260208101905061224a565b60008484015250505050565b6000601f19601f8301169050919050565b600061228d8261222b565b6122978185612236565b93506122a7818560208601612247565b6122b081612271565b840191505092915050565b600060208201905081810360008301526122d58184612282565b905092915050565b600080fd5b7f4e487b7100000000000000000000000000000000000000000000000000000000600052604160045260246000fd5b61231a82612271565b810181811067ffffffffffffffff82111715612339576123386122e2565b5b80604052505050565b600061234c612031565b90506123588282612311565b919050565b600067ffffffffffffffff821115612378576123776122e2565b5b602082029050602081019050919050565b600080fd5b60006123a161239c8461235d565b612342565b905080838252602082019050602084028301858111156123c4576123c3612389565b5b835b818110156123ed57806123d988826120c4565b8452602084019350506020810190506123c6565b5050509392505050565b600082601f83011261240c5761240b6122dd565b5b813561241c84826020860161238e565b91505092915050565b600080fd5b600067ffffffffffffffff821115612445576124446122e2565b5b61244e82612271565b9050602081019050919050565b82818337600083830152505050565b600061247d6124788461242a565b612342565b90508281526020810184848401111561249957612498612425565b5b6124a484828561245b565b509392505050565b600082601f8301126124c1576124c06122dd565b5b81356124d184826020860161246a565b91505092915050565b600080600080600060a086880312156124f6576124f561203b565b5b60006125048882890161208e565b95505060206125158882890161208e565b945050604086013567ffffffffffffffff81111561253657612535612040565b5b612542888289016123f7565b935050606086013567ffffffffffffffff81111561256357612562612040565b5b61256f888289016123f7565b925050608086013567ffffffffffffffff8111156125905761258f612040565b5b61259c888289016124ac565b9150509295509295909350565b600067ffffffffffffffff8211156125c4576125c36122e2565b5b602082029050602081019050919050565b60006125e86125e3846125a9565b612342565b9050808382526020820190506020840283018581111561260b5761260a612389565b5b835b818110156126345780612620888261208e565b84526020840193505060208101905061260d565b5050509392505050565b600082601f830112612653576126526122dd565b5b81356126638482602086016125d5565b91505092915050565b600080604083850312156126835761268261203b565b5b600083013567ffffffffffffffff8111156126a1576126a0612040565b5b6126ad8582860161263e565b925050602083013567ffffffffffffffff8111156126ce576126cd612040565b5b6126da858286016123f7565b9150509250929050565b600081519050919050565b600082825260208201905092915050565b6000819050602082019050919050565b612719816120a3565b82525050565b600061272b8383612710565b60208301905092915050565b6000602082019050919050565b600061274f826126e4565b61275981856126ef565b935061276483612700565b8060005b8381101561279557815161277c888261271f565b975061278783612737565b925050600181019050612768565b5085935050505092915050565b600060208201905081810360008301526127bc8184612744565b905092915050565b600067ffffffffffffffff82169050919050565b6127e1816127c4565b81146127ec57600080fd5b50565b6000813590506127fe816127d8565b92915050565b600067ffffffffffffffff82111561281f5761281e6122e2565b5b61282882612271565b9050602081019050919050565b600061284861284384612804565b612342565b90508281526020810184848401111561286457612863612425565b5b61286f84828561245b565b509392505050565b600082601f83011261288c5761288b6122dd565b5b813561289c848260208601612835565b91505092915050565b600080fd5b60008083601f8401126128c0576128bf6122dd565b5b8235905067ffffffffffffffff8111156128dd576128dc6128a5565b5b6020830191508360018202830111156128f9576128f8612389565b5b9250929050565b60008060008060008060a0878903121561291d5761291c61203b565b5b600061292b89828a016120c4565b965050602061293c89828a016127ef565b955050604061294d89828a016120c4565b945050606087013567ffffffffffffffff81111561296e5761296d612040565b5b61297a89828a01612877565b935050608087013567ffffffffffffffff81111561299b5761299a612040565b5b6129a789828a016128aa565b92509250509295509295509295565b6000806000806000608086880312156129d2576129d161203b565b5b60006129e08882890161208e565b95505060206129f1888289016120c4565b9450506040612a02888289016120c4565b935050606086013567ffffffffffffffff811115612a2357612a22612040565b5b612a2f888289016128aa565b92509250509295509295909350565b612a4781612065565b82525050565b6000602082019050612a626000830184612a3e565b92915050565b60008083601f840112612a7e57612a7d6122dd565b5b8235905067ffffffffffffffff811115612a9b57612a9a6128a5565b5b602083019150836001820283011115612ab757612ab6612389565b5b9250929050565b60008060008060608587031215612ad857612ad761203b565b5b6000612ae6878288016120c4565b9450506020612af78782880161208e565b935050604085013567ffffffffffffffff811115612b1857612b17612040565b5b612b2487828801612a68565b925092505092959194509250565b612b3b816121c8565b8114612b4657600080fd5b50565b600081359050612b5881612b32565b92915050565b60008060408385031215612b7557612b7461203b565b5b6000612b838582860161208e565b9250506020612b9485828601612b49565b9150509250929050565b60008060408385031215612bb557612bb461203b565b5b6000612bc38582860161208e565b9250506020612bd48582860161208e565b9150509250929050565b60008060008060408587031215612bf857612bf761203b565b5b600085013567ffffffffffffffff811115612c1657612c15612040565b5b612c2287828801612a68565b9450945050602085013567ffffffffffffffff811115612c4557612c44612040565b5b612c51878288016128aa565b925092505092959194509250565b600080600080600060a08688031215612c7b57612c7a61203b565b5b6000612c898882890161208e565b9550506020612c9a8882890161208e565b9450506040612cab888289016120c4565b9350506060612cbc888289016120c4565b925050608086013567ffffffffffffffff811115612cdd57612cdc612040565b5b612ce9888289016124ac565b9150509295509295909350565b600060208284031215612d0c57612d0b61203b565b5b6000612d1a8482850161208e565b91505092915050565b7f4e487b7100000000000000000000000000000000000000000000000000000000600052602260045260246000fd5b60006002820490506001821680612d6a57607f821691505b602082108103612d7d57612d7c612d23565b5b50919050565b6000604082019050612d986000830185612a3e565b612da56020830184612a3e565b9392505050565b6000604082019050612dc16000830185612119565b612dce6020830184612119565b9392505050565b7f4e487b7100000000000000000000000000000000000000000000000000000000600052603260045260246000fd5b7f4e487b7100000000000000000000000000000000000000000000000000000000600052601160045260246000fd5b6000612e3e826120a3565b91507fffffffffffffffffffffffffffffffffffffffffffffffffffffffffffffffff8203612e7057612e6f612e04565b5b600182019050919050565b600081905092915050565b6000612e918261222b565b612e9b8185612e7b565b9350612eab818560208601612247565b80840191505092915050565b6000612ec38284612e86565b915081905092915050565b7f6172746973740000000000000000000000000000000000000000000000000000600082015250565b6000612f04600683612e7b565b9150612f0f82612ece565b600682019050919050565b6000612f2582612ef7565b9150819050919050565b6000612f3a826127c4565b9150612f45836127c4565b9250828201905067ffffffffffffffff811115612f6557612f64612e04565b5b92915050565b6000612f76826127c4565b915067ffffffffffffffff8203612f9057612f8f612e04565b5b600182019050919050565b6000612fa6826120a3565b9150612fb1836120a3565b9250828203905081811115612fc957612fc8612e04565b5b92915050565b6000612fdb8385612e7b565b9350612fe883858461245b565b82840190509392505050565b6000613001828486612fcf565b91508190509392505050565b6000613018826120a3565b9150613023836120a3565b925082820190508082111561303b5761303a612e04565b5b92915050565b7f496e73756666696369656e742066756e64730000000000000000000000000000600082015250565b6000613077601283612236565b915061308282613041565b602082019050919050565b600060208201905081810360008301526130a68161306a565b9050919050565b600081519050919050565b600082825260208201905092915050565b60006130d4826130ad565b6130de81856130b8565b93506130ee818560208601612247565b6130f781612271565b840191505092915050565b600060a0820190506131176000830188612a3e565b6131246020830187612a3e565b6131316040830186612119565b61313e6060830185612119565b818103608083015261315081846130c9565b90509695505050505050565b60008151905061316b8161216f565b92915050565b6000602082840312156131875761318661203b565b5b60006131958482850161315c565b91505092915050565b600060a0820190506131b36000830188612a3e565b6131c06020830187612a3e565b81810360408301526131d28186612744565b905081810360608301526131e68185612744565b905081810360808301526131fa81846130c9565b90509695505050505050565b600060808201905061321b6000830187612a3e565b6132286020830186612119565b6132356040830185612119565b6132426060830184612119565b95945050505050565b600060408201905081810360008301526132658185612744565b905081810360208301526132798184612744565b9050939250505056fea26469706673582212206e342569140e161867fe32ab075637e2d9d475093e4d76e774386d19a43e2b7464736f6c63430008140033",
  "linkReferences": {},
  "deployedLinkReferences": {}
}